:020000040800F2
:10000000B0050020010100089914000891130008B0
:1000100095140008910100087D15000800000000FB
:10002000000000000000000000000000A114000813
:1000300095010008000000009D140008A5140008A8
:100040001B0100081B0100081B0100081B01000820
:100050001B0100081B0100081B0100081B01000810
:100060001B0100081B0100081B0100081B01000800
:100070001B0100081B0100081B0100081B010008F0
:100080001B0100081B0100081B0100081B010008E0
:100090001B0100081B0100081B0100081B010008D0
:1000A0001B0100081B0100081B0100081B010008C0
:1000B0001B0100081B0100081B0100081B010008B0
:1000C0001B0100081B0100081B0100081B010008A0
:1000D0001B0100081B0100081B0100087115000826
:1000E0001B0100081B0100081B010008DFF80CD0F1
:1000F00000F03CF8004800474D170008B00500200C
:100100000648804706480047FEE7FEE7FEE7FEE7B1
:10011000FEE7FEE7FEE7FEE7FEE7FEE7A9140008BC
:10012000ED000008D2B201E000F8012B491EFBD21D
:1001300070470022F6E710B513460A4604461946F2
:10014000FFF7F0FF204610BD30B505462A460B46A6
:1001500012F8010B13F8014B08B1A042F8D01CB102
:10016000002802D06D1CF1E7284630BD064C074D33
:1001700006E0E06840F0010394E807009847103477
:10018000AC42F6D3FFF7B6FFC4180008E418000825
:10019000FEE7000070470000EFF3108072B600BF6A
:1001A000FEE70000014690F82100022816D10868F9
:1001B000D1E90FC3026822F00E020260026822F049
:1001C00001020260012000FA03F2CCF8042081F859
:1001D00021000020002281F820207047042088633D
:1001E0000120002281F820207047000080B590F89F
:1001F0002110022924D10268116821F00E0111603A
:100200002F211368C4F202018A4240F20401C4F2B1
:10021000020123F00103136016DD3023C4F2020350
:100220009A421DD04423C4F202039A421CD05823A0
:10023000C4F202039A421DD14FF4803322E000BF82
:1002400004218163012080BD0823C4F202039A4285
:100250000ED01C23C4F202039A420BD1102311E0EA
:100260004FF480730EE000BF4FF480530AE000BFEC
:10027000012307E001F1680C4FF08073624508BF6D
:100280004FF480130B60416B4FF48072028401B114
:100290008847002080BD0000B0B5044600F024F976
:1002A000054640F20000C2F200000078611C18BF51
:1002B000044400BF00F018F9401BA042FAD3B0BDBF
:1002C0002DE9F04F82B00E68002E00F0038140F25D
:1002D0000C4C41F200424FF6FF7EC4F2010CC4F216
:1002E0000102042700240123C1F2100E4FF0000A7E
:1002F0004FF00009904208BF0327009745E000BF78
:10030000012704F00C030F229A402BEA020207FA9D
:1003100003F34FEA9A051A4346F82520D1F804B0B2
:1003200040F20045C4F201055FEACB322A6854BFAF
:1003300022EA080242EA08022A606A685FEA8B330E
:1003400054BF22EA080242EA08026A605FEACB234D
:10035000AA6854BF22EA080242EA08025FEA8B2335
:10036000AA60DCF800204FF0010354BF22EA080223
:1003700042EA0802CCF800200E680AF1010A36FAB7
:100380000AF204F1040400F0A58003FA0AF816EA60
:10039000080FF1D04E68764512DC122E56D8DFE8F1
:1003A00006F0350B45495555555555555555555537
:1003B0005555554D510000BFD1F80C9046E000BF97
:1003C0004FF6FF72C1F2210296420FDC0022C1F209
:1003D000110296421AD00022C1F21202964215D0A2
:1003E0000022C1F22102964210D02FE00022C1F279
:1003F000220296420AD00022C1F23102964205D072
:100400000022C1F23202964220D100BF8A684AB16E
:10041000012A14BFC0F81480C0F810804FF00809FA
:1004200014E000BF4FF0040910E000BFCA6802F1F9
:1004300008090BE04FF0000908E000BFCA6802F1AC
:10044000040903E0CA6802F10C0900BF224606460F
:10045000BAF1080F24BF203A043637680F259540BB
:1004600027EA050509FA02F22A433260CA79D20660
:100470007FF582AF41F21803C4F202031A6842F01A
:1004800001021A601A6802F001020192019A40F218
:100490000042C4F20102A2F57E762AF0030256F869
:1004A00002B040F60002C4F20102904210D040F6C1
:1004B0000042C4F2010290423FF422AF41F2000236
:1004C000C4F20102009F904208BF022719E700BF53
:1004D000002716E702B0BDE8F08F0000002A08BF31
:1004E000090401617047000040F2AC10C2F2000044
:1004F0000068704740F2000040F2AC11C2F2000008
:10050000C2F2000100780A681044086070470000D9
:1005100080B542F20000C4F20200016841F010010F
:100520000160032000F08EF80F2000F005F800F0C5
:1005300027F8002080BD000070B540F20006C2F22E
:10054000000640F208013278C2F200014FF47A73DB
:100550000968B3FBF2F20446B1FBF2F1084600F081
:1005600063FB0F2C4FF0010508D838B94FF0FF306E
:1005700021460022002500F039F87460284670BD3D
:1005800082B041F21800C4F202000168022241F078
:1005900001010160016801F00101019101994168C7
:1005A00041F080514160406800F080500090009818
:1005B0000420C4F20100016862F31A61016002B014
:1005C00070470000002848BF7047C1B200F01F000C
:1005D000012202FA00F04EF20012CEF2000242EACC
:1005E000D10121F0030108607047000010B54EF6FC
:1005F0000C5CCEF2000CDCF80030C3F3022E8EF05F
:100600000704042C28BF0424BEF103034FF0FF3E6F
:100610000EFA04F438BF0023A14399400EFA03F305
:100620009A43114300F00F0200F160430901043ABC
:1006300003F564436244002848BF02F10C031970BB
:1006400010BD00004EF60C51CEF200010A684FF6C4
:10065000FF031A4060F30A2242F0806040F0FD7010
:10066000086070472DE9F04381B0002800F08580D4
:1006700042F20008C4F202080446D8F800000D4611
:1006800000F0070088420CD2D8F8000020F00700E4
:100690002843C8F80000D8F8000000F00700A8427E
:1006A0006BD1206841F204098107C4F2020917D511
:1006B000410705D5D9F8001041F4E061C9F80010F0
:1006C000010705D5D9F8001041F46051C9F80010B0
:1006D000D9F80010A26821F0F0011143C9F8001008
:1006E000C00741D1D8F8000000F00700A8420CD99B
:1006F000D8F8000020F007002843C8F80000D8F818
:10070000000000F00700A84237D12068410707D554
:10071000D9F80010E26821F4E0611143C9F8001033
:10072000000708D5D9F80000216920F4605040EA9C
:10073000C100C9F80000D9F8002002F00C00082818
:1007400041F20020C0F27A0050D141F6A603C2F374
:100750008341C0F60003595CD2033BD440F600103D
:10076000C0F23D00484341E0606802280AD00128F9
:100770002AD159F8041C890308D4012001B0BDE82E
:10078000F08300BF59F8041C8901F6D5D9F8001090
:1007900021F003010843C9F80000FFF7A5FE064653
:1007A00041F28837D9F80000616800F00C00B0EB26
:1007B000810F97D0FFF798FE801BB842F2D9032033
:1007C00001B0BDE8F08300BF59F8041C8907D4D5F7
:1007D000DCE700BFD9F8002041F68C03C2F34042A9
:1007E000C0F600039A5C4843B0FBF2F0D9F8001061
:1007F00041F68E02C1F30311C0F60002515C40F2D3
:10080000080220FA01F140F20400C2F20000006880
:10081000C2F200021160FFF78FFE002001B0BDE8B8
:10082000F083000040F2080041F20401C2F200002F
:10083000C4F202010068096841F69E02C1F3022178
:10084000C0F60002515CC8407047000040F208004A
:1008500041F20401C2F20000C4F20201006809681A
:1008600041F69E02C1F3C221C0F60002515CC840AD
:10087000704700002DE9F04182B0002868D004469E
:10088000007841F20006C007C4F2020625D0706865
:1008900000F00C0004281BD0706800F00C00082841
:1008A00002D17068C00313D46068002800F068812A
:1008B000B0F5A02F00F07C81B0F5803F00F07C8186
:1008C000306820F480303060306820F4802076E199
:1008D0003068800301D56068D0B32078800718D5D0
:1008E000706810F00C0F07D0706800F00C0008283A
:1008F0006ED17068C0036BD43068800702D5206960
:10090000012825D13068616920F0F80040EAC10073
:100910003060207800071FD42078400732D4E56982
:1009200095B1706800F00C00082840F08F80012D10
:100930000ED07068216A00F480328A4208D1616A60
:1009400000F47010884203D1002002B0BDE8F081AD
:10095000012002B0BDE8F081A069002862D000202B
:10096000C4F242200121C0F88014FFF7BDFD054606
:10097000706A800700F18C80FFF7B6FD401B0228EB
:10098000F6D92AE1F06910F0805808D1F06940F0FA
:100990008050F061F06900F080500090009847F2BC
:1009A0000007C4F200073868C00529D4386840F44D
:1009B00080703860FFF798FD054600BF3868C005B5
:1009C0001ED4FFF791FD401B6428F7D905E100BF55
:1009D0002069002840F20000C4F2422000F082802A
:1009E00001210160FFF780FD054600BF30688007E8
:1009F0003FF588AFFFF778FD401B0228F6D9ECE001
:100A0000E068002800F08080052800F09780012829
:100A100000F09880306A20F001003062306A20F0E7
:100A2000040092E00020C4F242200021C0F88014AB
:100A3000FFF75AFD054600BF706A80077FF56CAF6F
:100A4000FFF752FD401B0228F6D9C6E00027C4F28A
:100A5000422700203866FFF747FD022D05460BD1DF
:100A60003068800140F1BE80FFF73EFD401B022848
:100A70004FF00300F4D968E7306880017FF564AF78
:100A8000FFF732FD401B02284FF00300F4D95CE76A
:100A900040F20800C2F20000006844F6D351C1F2EF
:100AA0006201A0FB0101480A019000BF00BF01984C
:100AB000411E002801913FF42FAF00BF0198411E55
:100AC000002801913FF428AF00BF0198411E002883
:100AD00001913FF421AF00BF0198411E0028019110
:100AE000E4D119E700210160FFF7FEFC054600BFD5
:100AF000306880077FF50DAFFFF7F6FC401B02283A
:100B00004FF00300F4D920E7306A20F00100306292
:100B1000306A20F004003062FFF7E6FC054641F23F
:100B2000883700BF306A800720D5FFF7DDFC401B07
:100B3000B8424FF00300F5D907E700BF306A40F034
:100B400004003062306A40F001003062FFF7CCFCF4
:100B5000054641F2883700BF306A800706D4FFF7A8
:100B6000C3FC401BB842F7D937E000BFB8F1000F13
:100B70007FF4D5AEF06920F08050F061CFE600BF81
:100B8000306820F480303060306820F4802030609D
:100B9000FFF7AAFC054600BF306880037FF59DAED5
:100BA000FFF7A2FC401B64284FF00300F4D9CCE609
:100BB000306840F480203060306840F4803030602D
:100BC000FFF792FC054600BF306880033FF585AE15
:100BD000FFF78AFC401B6428F6D9032002B0BDE869
:100BE000F08100BF206AB0F5803F05D17168A2682E
:100BF00021F40031114371607168626A21F474114B
:100C000011430843706001203866FFF76DFC04460D
:100C1000306880013FF598AEFFF766FC001B0228A4
:100C20004FF00300F4D990E6411E0020B0EB116FA5
:100C30001CBF012070474EF21002CEF2000251603C
:100C40004EF62351CEF20001F0230B700721906085
:100C500011607047704700007047000090F83D1029
:100C600090F83E000843C0B270470000B0B582B0B3
:100C7000026805461068D368546900F02F012029E6
:100C800003F0200106D129B1284602B0BDE8B040EA
:100C900000F012BC5FEA007C1EBF04F0010E03F4FA
:100CA000907414EB0E0453D1296B012905D110F077
:100CB000100118BF13F0100136D1010622D513F030
:100CC00080011FD095F83D0021283FD1A868B0F5DC
:100CD000805F03D12869002800F0F880286A411C51
:100CE000296200785060E88C01380104E8842DD135
:100CF000D06820F08000D060D06840F04000D06024
:100D000002B0B0BD400621D513F040001ED0D0681F
:100D1000202120F04000D060284685F83D1002B028
:100D2000BDE8B04000F032BB002001901068019097
:100D30005068019001985069400611D4A88DE98D42
:100D4000EB8D002B18BF884240F0A68002B0B0BDEA
:100D5000C40718BF13F480732CD1430730D436E096
:100D6000A86B01684B689CB2002CEFD0A98D8C4217
:100D7000ECD2EB858369202B17D0D16821F48071E8
:100D8000D160516921F001015161516921F04001A7
:100D90005161202185F83E1000212963D16821F09E
:100DA0001001D160FFF7FEF9A98DE88D081A81B214
:100DB000284685E02B6C43F001032B64430706D5DE
:100DC000BEF1000F03D02B6C43F002032B648307AA
:100DD00006D5BEF1000F03D02B6C43F004032B6447
:100DE000BCF1000F09D541EA0E03B3FA83F35B09A6
:100DF00003D12B6C43F008032B642B6C002BA5D084
:100E000010F0200018BF002903D0284600F054FB42
:100E10002A685069296C00F0400001F00801401870
:100E20002CD0D06820F49070D060506920F0010080
:100E30005061286B012803D1D06820F01000D060E9
:100E4000202085F83E0000202863506940061DD50B
:100E5000506920F040005061A86BB8B141F2AD413B
:100E6000C0F600014163FFF7C1F900283FF46EAFFF
:100E7000A86B416B02B0BDE8B04008472846FFF7B9
:100E8000EBFE0020286402B0B0BD00BF284602B0CF
:100E9000BDE8B040FFF7E0BED368401A23F490737A
:100EA000D360536981B223F001035361202385F895
:100EB0003E3000232B63D368284623F01003D36011
:100EC00002B0BDE8B040FFF7C5BE00BF286A30F8E9
:100ED000021B6FF35F215160286204E7002804BF02
:100EE0000120704710B5044690F83D0028B9002055
:100EF00084F83C00204600F061F8242084F83D008E
:100F00002068D4E90212C36823F40053C360036964
:100F100023F440531A430261D4E904231143C26805
:100F2000194341F20C639A431143C1604169A269BC
:100F300021F44071114343F60002C4F201029042D1
:100F4000416103D0FFF76EFC02E000BFFFF77EFCBB
:100F50006268192148439100B0FBF1F048F21F513B
:100F6000C5F2EB11A0FB01235A094FF69C73C0F6A2
:100F7000FF7302FB0300322303EB0010A0FB01010F
:100F8000F02303EA5113206803EB0212C1F343116B
:100F900011448160016921F490410161416921F0AE
:100FA0002A014161C16841F40051C1600020202143
:100FB000206484F83D1084F83E1010BD70B586B0F2
:100FC000006844F60001C4F200010026884205963C
:100FD000CDE90366029637D043F60001C4F2010161
:100FE00088426AD141F21800C4F20200016840F65A
:100FF000000441F4804101600168C4F2010401F47D
:10100000804101910199016802AD41F00401016044
:101010000068294600F00400019001984FF4007028
:10102000029002200390032005902046FFF748F924
:101030004FF4806002900020CDE90300204629464D
:10104000FFF73EF906B070BD41F21800C4F202008D
:10105000416802AD41F480214160416801F4802182
:1010600001910199016841F0080101600068294679
:1010700000F00800019001984FF480600290022077
:1010800003900320059040F60000C4F2010000F533
:1010900080642046FFF714F94FF40060CDE90206A2
:1010A000204629460496FFF70BF92720002100224D
:1010B000FFF79CFA2720FFF785FA06B070BD000005
:1010C000034690F83E0020280AD100294FF0010085
:1010D00018BF002A00D1704793F83C00012801D1C5
:1010E0000220704700201863996222219A85DA85D0
:1010F000186483F83E10196883F83C00CA6842F40B
:101100008072CA604A6942F001024A61CA6842F0CC
:101110002002CA607047000070B540F21004C2F2AD
:1011200000042078FF284BD0A278E17840F2240C0C
:10113000C2F2000C002A0CF800103DD12279831A6B
:101140001CF803303C2B37D101323E29227102D0EA
:10115000D1B20E2930D311062AD0D1B2421A0023BF
:101160000CEB020102F1010E4D78DEB226448645F9
:1011700075711DDA43F00106F6B202F1020E8D78A8
:1011800026448645757113DA43F00206F6B202F181
:10119000030ECD7826448645757109DA43F00306BF
:1011A000F6B2043209790433264482427171D7DBE6
:1011B0000121A17000212171013020700AE000BFDF
:1011C0000020207040F22400C2F200004FF4807131
:1011D000FEF7AFFF40F26810E11CC2F200000122EE
:1011E000BDE87040FFF76CBF2DE9F041044690F870
:1011F0003D0020280ED10D4600294FF0010000F0DF
:101200008E801646002A08BFBDE8F08194F83C00A5
:10121000012803D10220BDE8F08100BF012084F83D
:101220003C00002020642120984684F83D00FFF710
:101230005BF9A684E684A1680646B1F5805F03D118
:101240002069002800F0A0802F460025002084F8A7
:101250003C00E08CE0B118F101001BD0B8F1000FA8
:1012600060D120680BE000BF35F8021B00276FF348
:101270005F214160E18C0139E184E18C51B3016867
:1012800009066DD5002FEFD017F8011BF1E700BF5D
:1012900020681FE0206802E00168090609D401689F
:1012A000090606D4016809065CBF01685FEA0161AE
:1012B000F2D51FB117F8011B05E000BF35F8021B7E
:1012C00000276FF35F214160E18C0139E184E18CFB
:1012D0000029E4D1016849061DD4B8F1000F3FD0C0
:1012E00018F101010ED10168490614D401684906BC
:1012F0005CBF01685FEA41610DD401684906F2D51F
:1013000009E000BFFFF7F0F8811B2068414527D8AE
:1013100000684006F6D5202084F83D000020BDE896
:10132000F08100BF206800BF0168090606D4FFF7FE
:10133000DBF8811B20684145F6D911E017B117F899
:10134000011B04E035F8021B00276FF35F214160A9
:10135000E18C0139E184E18C0029E5D1BAE700BFD5
:10136000C16821F4D071C160416921F0010141617E
:10137000202084F83D0084F83E00002084F83C00E2
:101380000320BDE8F08100BF00275FE77047000041
:10139000FEE7000070B584B041F21800C4F202000C
:1013A000016841F2000441F0100101600168C4F2DB
:1013B000010401F01001009100990168002241F040
:1013C0002001016001684FF4005501F020010091F7
:1013D00000990168002641F008010160016801F0F0
:1013E000080100910099016841F004010160006862
:1013F0004FF4005100F00400009000982046FFF7E1
:101400006DF80120CDE901060220039069462046CF
:101410000095FEF755FF04B070BD000080B540F2A6
:10142000241043F60001C2F20000C4F201010023BF
:101430004FF00C0C4FF4E13280E80E00C0E90333AA
:10144000C0E905C3C361FFF749FD002808BF80BD9F
:10145000BDE88040FEF7A0BE80B540F2681044F6BB
:101460000001C2F20000C4F2000100234FF00C0C96
:101470004FF4E13280E80E00C0E90333C0E905C350
:10148000C361FFF72BFD002808BF80BDBDE8804089
:10149000FEF782BEFEE70000FEE700007047000096
:1014A00070470000FFF726B870470000406A00212F
:1014B000C185C184FFF7D0BB81B090F83E102229CE
:1014C00021D183680246B3F5805F09D152F8281F05
:1014D00052F8183C002B3FD003685B680AE000BF5D
:1014E00052F8281F13B90369002BF5D003685B6815
:1014F00003F07F030B70116801311160C18D013958
:101500000A04C18502D001B0704700BF0168CA68F3
:1015100022F02002CA60CA6822F48072CA604A6956
:1015200022F001024A61202280F83E20026B012A4B
:101530001AD100220263CB6823F01003CB600B6842
:10154000DB0605D500920A6800924968009100996F
:10155000818D01B0FFF77EBB026852686FF35F2296
:1015600021F8022B8162C9E701B0FFF7D5BD000069
:1015700040F26810C2F20000FFF778BBFEE70000FF
:101580002DE9F0418EB001AE884607463046322143
:101590001446FEF7CEFD3A78F2B1B91C002000BF28
:1015A00011F8017C40F00103C5B27255B7B10D7856
:1015B00040F00202DBB2F75495B14F7840F00303DC
:1015C000D2B2B55457B18A780430DBB2002A01F1A7
:1015D0000401F754E4D104E0002002E0184600E0E2
:1015E0001046411CC2B20D2340F26817B3540230BA
:1015F000C9B20A22C2F200077254C2B2384631465A
:101600004FF6FF73FFF7F0FD3846FFF727FB212861
:10161000FAD0B8F1000F4FF0000018BF002C03D132
:101620000EB0BDE8F08100BF40F22406C2F2000611
:10163000013C20041AD00A20FEF72EFE3046414617
:10164000FEF782FD0028F3D040F21000C2F2000045
:101650000021017040F22400C2F200004FF48071BA
:10166000FEF767FD01200EB0BDE8F08100200EB04E
:10167000BDE8F08110B541F6B604C0F6000418A02C
:1016800021463222FFF77CFF18A01AA11422FFF78F
:1016900077FF4FF47A70FEF7FFFD4FF47A70FEF794
:1016A000FBFD4FF47A70FEF7F7FD4FF47A70FEF70A
:1016B000F3FD12A02146C822FFF762FF18A02146C1
:1016C0001422FFF75DFF19A02146C822FFF758FF3B
:1016D0001BA021463222BDE81040FFF751BF00BFDA
:1016E00041542B43574D4F44453D320041542B52FA
:1016F00053540000726561647900000041542B432B
:10170000575341503D2245535038323636222C2211
:101710003132333435363738222C312C3400000046
:1017200041542B4349504D55583D310041542B43B2
:1017300049505345525645523D312C3830383000CF
:1017400041542B43495053454E44000090B0FEF79E
:10175000DFFE00240120CDE90B44CDE909440690C9
:101760000A904FF4E0104FF4803102250F9006A844
:10177000CDE90714CDE90D51FFF77CF820B1EFF367
:10178000108072B6FEE700BF0F20CDE901054FF4CF
:101790008060CDE9040401A802210394FEF762FFF2
:1017A00020B1EFF3108072B6FEE700BF40F60004F0
:1017B000C4F20104FFF7EEFDFFF730FEFFF74CFE29
:1017C00020464FF4807100224FF0000BFEF786FE9A
:1017D00040F21007C2F2000740F26810F91CC2F292
:1017E000000001224FF00108FFF76AFCFFF742FFFB
:1017F00041F6BF0940F2240A04F500647D1DC0F6DD
:101800000009C2F2000A18E041F6B9012846C0F604
:101810000001FEF799FC064650464FF4807187F8A8
:1018200000B0FEF786FCEEB187F801B00126204635
:101830004FF400513246FEF751FEB87890B1284679
:10184000494687F802B0FEF77FFC0028DCD000266E
:1018500050464FF480713E70FEF76BFC87F80180B4
:10186000E5E700BF78780128E0D10026DFE702E055
:1018700008C8121F08C1002AFAD17047704700201B
:1018800001E001C1121F002AFBD1704701020000D4
:101890000000000000000102030406070809000020
:1018A00000000102030402030405060708090A0BED
:1018B0000C0D0E0F10104F4B003C6F66663E003C47
:1018C0006F6E3E00E81800080000002010000000C5
:1018D0006E180008F818000810000020A00500008D
:1018E0007E18000800000000010000001000000049
:0818F0000024F40000000000D8
:04000005080000ED02
:00000001FF
