:020000040800F2
:10000000B004002001010008DD220008E91000080A
:10001000D922000849010008D5230008000000008B
:10002000000000000000000000000000C9230008DC
:100030004D01000800000000E1220008CD23000867
:100040001B0100081B0100081B0100081B01000820
:100050001B0100081B0100081B0100081B01000810
:100060001B0100081B0100081B0100081B01000800
:100070001B0100081B0100081B0100081B010008F0
:100080001B0100081B0100081B0100081B010008E0
:100090001B0100081B0100081B0100081B010008D0
:1000A0001B0100081B0100081B0100081B010008C0
:1000B0001B0100081B0100081B0100081B010008B0
:1000C0001B0100081B0100081B0100081B010008A0
:1000D0001B0100081B0100081B0100081B01000890
:1000E0001B0100081B0100081B010008DFF80CD0F1
:1000F00000F018F800480047FD230008B004002075
:100100000648804706480047FEE7FEE7FEE7FEE7B1
:10011000FEE7FEE7FEE7FEE7FEE7FEE7D123000885
:10012000ED000008064C074D06E0E06840F00103D2
:1001300094E8070098471034AC42F6D3FFF7DAFF93
:1001400024A5000844A50008FEE700007047000051
:10015000EFF3108072B600BFFEE70000B0B50446B2
:1001600000F024F9054640F20400C2F200000078D5
:10017000611C18BF044400BF00F018F9401BA042E6
:10018000FAD3B0BD2DE9F04F82B00E68002E00F01A
:10019000038140F20C4C41F200424FF6FF7EC4F264
:1001A000010CC4F20102042700240123C1F2100E45
:1001B0004FF0000A4FF00009904208BF0327009754
:1001C00045E000BF012704F00C030F229A402BEA00
:1001D000020207FA03F34FEA9A051A4346F825206C
:1001E000D1F804B040F20045C4F201055FEACB3219
:1001F0002A6854BF22EA080242EA08022A606A68B2
:100200005FEA8B3354BF22EA080242EA08026A60BE
:100210005FEACB23AA6854BF22EA080242EA080236
:100220005FEA8B23AA60DCF800204FF0010354BF83
:1002300022EA080242EA0802CCF800200E680AF11D
:10024000010A36FA0AF204F1040400F0A58003FA68
:100250000AF816EA080FF1D04E68764512DC122E25
:1002600056D8DFE806F0350B4549555555555555D7
:10027000555555555555554D510000BFD1F80C9069
:1002800046E000BF4FF6FF72C1F2210296420FDC3A
:100290000022C1F2110296421AD00022C1F21202CB
:1002A000964215D00022C1F22102964210D02FE0D2
:1002B0000022C1F2220296420AD00022C1F231028B
:1002C000964205D00022C1F23202964220D100BFF0
:1002D0008A684AB1012A14BFC0F81480C0F810809F
:1002E0004FF0080914E000BF4FF0040910E000BF10
:1002F000CA6802F108090BE04FF0000908E000BFEE
:10030000CA6802F1040903E0CA6802F10C0900BFDF
:1003100022460646BAF1080F24BF203A0436376851
:100320000F25954027EA050509FA02F22A433260B3
:10033000CA79D2067FF582AF41F21803C4F20203F4
:100340001A6842F001021A601A6802F00102019272
:10035000019A40F20042C4F20102A2F57E762AF030
:10036000030256F802B040F60002C4F201029042C5
:1003700010D040F60042C4F2010290423FF422AF96
:1003800041F20002C4F20102009F904208BF02271E
:1003900019E700BF002716E702B0BDE8F08F0000A4
:1003A000002A08BF090401617047000040F2AC0058
:1003B000C2F200000068704740F2040040F2AC0155
:1003C000C2F20000C2F2000100780A68104408601E
:1003D0007047000080B542F20000C4F202000168DC
:1003E00041F010010160032000F07AF80F2000F0C6
:1003F00005F800F027F8002080BD000070B540F23D
:100400000406C2F2000640F20C013278C2F200018A
:100410004FF47A730968B3FBF2F20446B1FBF2F1D0
:10042000084600F0CBFC0F2C4FF0010508D838B976
:100430004FF0FF3021460022002500F025F87460BF
:10044000284670BD82B041F21800C4F20200016873
:10045000022241F001010160016801F001010191F6
:100460000199416841F080514160406800F080503E
:10047000009000980420C4F20100016862F31A6140
:10048000016002B07047000010B54EF60C5CCEF271
:10049000000CDCF80030C3F3022E8EF00704042CAD
:1004A00028BF0424BEF103034FF0FF3E0EFA04F40C
:1004B00038BF0023A14399400EFA03F39A43114336
:1004C00000F00F0200F160430901043A03F56443B0
:1004D0006244002848BF02F10C03197010BD0000EF
:1004E0004EF60C51CEF200010A684FF6FF031A4097
:1004F00060F30A2242F0806040F0FD7008607047AF
:100500002DE9F04381B0002800F0858042F2000818
:10051000C4F202080446D8F800000D4600F00700B7
:1005200088420CD2D8F8000020F007002843C8F811
:100530000000D8F8000000F00700A8426BD1206846
:1005400041F204098107C4F2020917D5410705D514
:10055000D9F8001041F4E061C9F80010010705D591
:10056000D9F8001041F46051C9F80010D9F8001012
:10057000A26821F0F0011143C9F80010C00741D171
:10058000D8F8000000F00700A8420CD9D8F8000005
:1005900020F007002843C8F80000D8F8000000F059
:1005A0000700A84237D12068410707D5D9F80010C5
:1005B000E26821F4E0611143C9F80010000708D592
:1005C000D9F80000216920F4605040EAC100C9F860
:1005D0000000D9F8002002F00C00082841F20020A9
:1005E000C0F27A0050D142F21253C2F38341C0F6F6
:1005F0000003595CD2033BD440F60010C0F23D002A
:10060000484341E0606802280AD001282AD159F8FD
:10061000041C890308D4012001B0BDE8F08300BFA9
:1006200059F8041C8901F6D5D9F8001021F003010E
:100630000843C9F80000FFF7B9FE064641F28837C3
:10064000D9F80000616800F00C00B0EB810F97D082
:10065000FFF7ACFE801BB842F2D9032001B0BDE821
:10066000F08300BF59F8041C8907D4D5DCE700BF2C
:10067000D9F8002042F2F843C2F34042C0F600032A
:100680009A5C4843B0FBF2F0D9F8001042F2FA420B
:10069000C1F30311C0F60002515C40F20C0220FAD3
:1006A00001F140F20800C2F200000068C2F200024C
:1006B0001160FFF7A3FE002001B0BDE8F083000049
:1006C00040F20C0041F20401C2F20000C4F2020147
:1006D0000068096842F20A52C1F30221C0F6000222
:1006E000515CC8407047000040F20C0041F2040128
:1006F000C2F20000C4F202010068096842F20A5224
:10070000C1F3C221C0F60002515CC840704700002E
:100710002DE9F04182B0002868D00446007841F20B
:100720000006C007C4F2020625D0706800F00C0075
:1007300004281BD0706800F00C00082802D17068F3
:10074000C00313D46068002800F06881B0F5A02FC2
:1007500000F07C81B0F5803F00F07C81306820F4AF
:1007600080303060306820F4802076E1306880038B
:1007700001D56068D0B32078800718D5706810F074
:100780000C0F07D0706800F00C0008286ED170685C
:10079000C0036BD43068800702D52069012825D1B9
:1007A0003068616920F0F80040EAC10030602078CC
:1007B00000071FD42078400732D4E56995B17068EE
:1007C00000F00C00082840F08F80012D0ED07068DA
:1007D000216A00F480328A4208D1616A00F4701004
:1007E000884203D1002002B0BDE8F081012002B0B0
:1007F000BDE8F081A069002862D00020C4F2422048
:100800000121C0F88014FFF7D1FD0546706A80070A
:1008100000F18C80FFF7CAFD401B0228F6D92AE1BF
:10082000F06910F0805808D1F06940F08050F06114
:10083000F06900F080500090009847F20007C4F281
:1008400000073868C00529D4386840F480703860E3
:10085000FFF7ACFD054600BF3868C0051ED4FFF7A2
:10086000A5FD401B6428F7D905E100BF20690028D9
:1008700040F20000C4F2422000F0828001210160B9
:10088000FFF794FD054600BF306880073FF588AF4D
:10089000FFF78CFD401B0228F6D9ECE0E068002849
:1008A00000F08080052800F09780012800F09880F3
:1008B000306A20F001003062306A20F0040092E0DB
:1008C0000020C4F242200021C0F88014FFF76EFD22
:1008D000054600BF706A80077FF56CAFFFF766FDC5
:1008E000401B0228F6D9C6E00027C4F242270020A8
:1008F0003866FFF75BFD022D05460BD1306880019D
:1009000040F1BE80FFF752FD401B02284FF003006C
:10091000F4D968E7306880017FF564AFFFF746FDE2
:10092000401B02284FF00300F4D95CE740F20C00B2
:10093000C2F20000006844F6D351C1F26201A0FB8C
:100940000101480A019000BF00BF0198411E002824
:1009500001913FF42FAF00BF0198411E0028019183
:100960003FF428AF00BF0198411E002801913FF4D9
:1009700021AF00BF0198411E00280191E4D119E781
:1009800000210160FFF712FD054600BF30688007B7
:100990007FF50DAFFFF70AFD401B02284FF0030063
:1009A000F4D920E7306A20F001003062306A20F08C
:1009B00004003062FFF7FAFC054641F2883700BFB9
:1009C000306A800720D5FFF7F1FC401BB8424FF09A
:1009D0000300F5D907E700BF306A40F00400306239
:1009E000306A40F001003062FFF7E0FC054641F25A
:1009F000883700BF306A800706D4FFF7D7FC401B5A
:100A0000B842F7D937E000BFB8F1000F7FF4D5AE98
:100A1000F06920F08050F061CFE600BF306820F42C
:100A200080303060306820F480203060FFF7BEFCFA
:100A3000054600BF306880037FF59DAEFFF7B6FC2A
:100A4000401B64284FF00300F4D9CCE6306840F432
:100A500080203060306840F480303060FFF7A6FCC2
:100A6000054600BF306880033FF585AEFFF79EFC6A
:100A7000401B6428F6D9032002B0BDE8F08100BF16
:100A8000206AB0F5803F05D17168A26821F4003179
:100A9000114371607168626A21F474111143084353
:100AA000706001203866FFF781FC044630688001E1
:100AB0003FF598AEFFF77AFC001B02284FF00300C9
:100AC000F4D990E670B538B10446406A30B10020E0
:100AD000206104F1140007E0012070BD6068B0F5EA
:100AE000827F03D004F11C00002101600026A66271
:100AF00094F8510020B9204684F8506000F038F88E
:100B0000022084F8510094E8071001F48271036810
:100B100002F4044223F040030360236911440CF4FF
:100B20000062114403F002026369114403F0010200
:100B3000A369E569114403F40072114405F0380219
:100B4000256A114405F08002A56A114305F400529C
:100B500011430160042101EA13414160C16921F49C
:100B60000061C1610120666584F85100304670BDA6
:100B700070B586B040F60004C4F20104006804F5C4
:100B8000205100268842049602D006B070BD00BFF6
:100B900041F21800C4F20200016802AD41F4805134
:100BA0000160016801F4805101910199016841F0EF
:100BB000040101600068294600F0040001900198DA
:100BC000A020029002200390032005902046FFF70A
:100BD000D9FA4020CDE90206204629460496FFF7BF
:100BE000D1FA06B070BD00002DE9F04381B0044693
:100BF00090F85000012803D1022001B0BDE8F08335
:100C00004FF001091D4616460F4684F85090FFF735
:100C1000CDFB94F85110012944D18046002F4FF0AC
:100C2000010018BF002E00F0C0800320002184F8CE
:100C3000510061652763A686E686A163A187E187E7
:100C4000A0682164B0F5004F2068616407D1016895
:100C500021F040010160016841F4804101600168B8
:100C6000490603D4016841F0400101606168731EC8
:100C7000E268B1FA81F1B3FA83F349095B09B2F58D
:100C8000006F41EA03013BD131B137F8021BC1606B
:100C90002763E08E0138E086E08E00286AD0681C69
:100CA0000DD11CE0022080E0216B31F8022BC260E4
:100CB0002163E08E0138E086E08E00285AD020685B
:100CC00081688907F0D4FFF771FBA0EB0800A84208
:100CD000F2D338E0FFF76AFBE08E00284AD02068A4
:100CE00081688907F6D5216B31F8022BC260216338
:100CF000E08E0138E086E08E0028F0D13AE000BFB7
:100D000039B139780173206B01302063E08E0138EE
:100D1000E086E08E70B3681C0BD11BE0216B097874
:100D20000173206B01302063E08E0138E086E08E95
:100D300000B3206881688907F0D4FFF737FBA0EB88
:100D40000800A842F3D303202FE000BFFFF72EFBDB
:100D5000E08E78B1206881688907F7D5216B097822
:100D60000173206B01302063E08E0138E086E08E55
:100D70000028EFD1204680212A46434601F0B2FAEE
:100D800028B1606D40F02000606520206065A0689B
:100D900038B9002000902068C168009180680090F8
:100DA0000098606D002818BF0120002184F8519040
:100DB00084F8501001B0BDE8F0830000411E00200F
:100DC000B0EB116F1CBF012070474EF21002CEF243
:100DD000000251604EF62351CEF20001F0230B7059
:100DE0000721906011607047002804BF0120704700
:100DF00010B5044690F83D0028B9002084F83C0066
:100E0000204600F061F8242084F83D002068D4E9F1
:100E10000212C36823F40053C360036923F44053F0
:100E20001A430261D4E904231143C268194341F211
:100E30000C639A431143C1604169A26921F4407176
:100E4000114343F60002C4F201029042416103D013
:100E5000FFF736FC02E000BFFFF746FC626819218D
:100E600048439100B0FBF1F048F21F51C5F2EB117D
:100E7000A0FB01235A094FF69C73C0F6FF7302FBD7
:100E80000300322303EB0010A0FB0101F02303EA6F
:100E90005113206803EB0212C1F343111144816026
:100EA000016921F490410161416921F02A01416108
:100EB000C16841F40051C16000202021206484F801
:100EC0003D1084F83E1010BD70B586B040F60004A9
:100ED000C4F20104006804F54051002688420496DB
:100EE00002D006B070BD00BF41F21800C4F202008B
:100EF000016802AD41F480410160016801F4804164
:100F000001910199016841F00401016000682946DE
:100F100000F00400019001984FF40070029002204C
:100F20000390032005902046FFF72CF94FF48060D2
:100F3000CDE90206204629460496FFF723F906B0BC
:100F400070BD00002DE9F041044690F83D002028D6
:100F50000ED10D4600294FF0010000F08E8016469C
:100F6000002A08BFBDE8F08194F83C00012803D1B5
:100F70000220BDE8F08100BF012084F83C00002081
:100F800020642120984684F83D00FFF70FFAA684DC
:100F9000E684A1680646B1F5805F03D12069002888
:100FA00000F0A0802F460025002084F83C00E08C53
:100FB000E0B118F101001BD0B8F1000F60D120683A
:100FC0000BE000BF35F8021B00276FF35F21416083
:100FD000E18C0139E184E18C51B3016809066DD5DA
:100FE000002FEFD017F8011BF1E700BF20681FE0CA
:100FF000206802E00168090609D40168090606D4E0
:10100000016809065CBF01685FEA0161F2D51FB1A2
:1010100017F8011B05E000BF35F8021B00276FF32E
:101020005F214160E18C0139E184E18C0029E4D148
:10103000016849061DD4B8F1000F3FD018F1010135
:101040000ED10168490614D4016849065CBF0168E5
:101050005FEA41610DD401684906F2D509E000BF9D
:10106000FFF7A4F9811B2068414527D80068400696
:10107000F6D5202084F83D000020BDE8F08100BFB7
:10108000206800BF0168090606D4FFF78FF9811BAD
:1010900020684145F6D911E017B117F8011B04E0AB
:1010A00035F8021B00276FF35F214160E18C0139A5
:1010B000E184E18C0029E5D1BAE700BFC16821F4E1
:1010C000D071C160416921F001014161202084F8A3
:1010D0003D0084F83E00002084F83C000320BDE879
:1010E000F08100BF00275FE7FEE700002DE9F04335
:1010F00083B040F60004C4F2010416468946074650
:101100002046082100229846FFF74AF92A208DF848
:101110000100204610210022FFF742F940F210059D
:10112000C2F200050DF10101284601224FF47A7345
:10113000FFF75AFD204610210122FFF731F9204622
:1011400008210122FFF72CF90237380A8DF8020036
:10115000204610210022FFF723F90DF10201284655
:1011600001224FF47A73FFF73FFD20461021012240
:10117000FFF716F92046102100228DF80370FFF7C3
:101180000FF90DF10301284601224FF47A73FFF79E
:101190002BFD204610210122FFF702F90236300A0A
:1011A0008DF80400204610210022FFF7F9F801A96C
:1011B000284601224FF47A73FFF716FD20461021CE
:1011C0000122FFF7EDF82046102100228DF805607E
:1011D000FFF7E6F80DF10501284601224FF47A7376
:1011E000FFF702FD204610210122FFF7D9F8204623
:1011F00008210022FFF7D4F82B208DF806002046A6
:1012000010210022FFF7CCF80DF10601284601223B
:101210004FF47A73FFF7E8FC204610210122FFF714
:10122000BFF8204608210122FFF7BAF809F10306AA
:10123000300A8DF80700204610210022FFF7B0F891
:101240000DF10701284601224FF47A73FFF7CCFC19
:10125000204610210122FFF7A3F82046102100228A
:101260008DF80860FFF79CF802A9284601224FF488
:101270007A73FFF7B9FC204610210122FFF790F89E
:1012800008F10306300A8DF80900204610210022DB
:10129000FFF786F80DF10901284601224FF47A7311
:1012A000FFF7A2FC204610210122FFF779F8204623
:1012B000102100228DF80A60FFF772F80DF10A0183
:1012C000284601224FF47A73FFF78EFC2046102146
:1012D0000122FFF765F8204608210022FFF760F899
:1012E0002C208DF80B00204610210022FFF758F823
:1012F0000DF10B01284601224FF47A73FFF774FCBD
:10130000204610210122FFF74BF820460821012238
:10131000FFF746F803B0BDE8F08300002DE9F04385
:1013200081B00E468146501E591E9846154682B21F
:101330008BB248463146FFF7D9FE464538BFA9452E
:101340000DD2089C4F4600BF204600F0FDFE01373D
:10135000B8B2A842F8D30136B0B24045F2D301B0DA
:10136000BDE8F0832DE9F04F81B040F60004C4F2EF
:1013700001042046042100224FF0000AFFF710F874
:101380006420FEF7EBFE204604210122FFF708F857
:101390006420FEF7E3FE2046022101220227FEF729
:1013A000FFFF6420FEF7DAFE204608210022FEF748
:1013B000F7FF11208DF803002046102100224FF086
:1013C0001009FEF7EDFF40F21005C2F200050DF125
:1013D0000301284601224FF47A73FFF705FC2046EB
:1013E00010210122FEF7DCFF204608210122FEF732
:1013F000D7FF7820FEF7B2FE204608210022FEF734
:10140000CFFFB1208DF80300204610210022FEF707
:10141000C7FF0DF10301284601224FF47A73FFF74D
:10142000E3FB204610210122FEF7BAFF20460821E7
:101430000122FEF7B5FF2046102100228DF803702F
:10144000FEF7AEFF0DF10301284601224FF47A7337
:10145000FFF7CAFB204610210122FEF7A1FF352627
:101460002046102100228DF80360FEF799FF0DF150
:101470000301284601224FF47A73FFF7B5FB20469B
:1014800010210122FEF78CFF4FF036082046102174
:1014900000228DF80380FEF783FF0DF1030128463B
:1014A00001224FF47A73FFF79FFB2046102101229F
:1014B000FEF776FF204608210022FEF771FFB220DA
:1014C0008DF80300204610210022FEF769FF0DF180
:1014D0000301284601224FF47A73FFF785FB20466B
:1014E00010210122FEF75CFF204608210122FEF7B1
:1014F00057FF2046102100228DF80370FEF750FFA1
:101500000DF10301284601224FF47A73FFF76CFBBB
:10151000204610210122FEF743FF20461021002221
:101520008DF80360FEF73CFF0DF103012846012210
:101530004FF47A73FFF758FB204610210122FEF783
:101540002FFF2046102100228DF80380FEF728FF90
:101550000DF10301284601224FF47A73FFF744FB93
:10156000204610210122FEF71BFF20460821002201
:10157000FEF716FFB3208DF803002046102100224D
:10158000FEF70EFF0DF10301284601224FF47A7396
:10159000FFF72AFB204610210122FEF701FF20461B
:1015A00008210122FEF7FCFE2046102100228DF8C2
:1015B0000370FEF7F5FE0DF10301284601224FF4FA
:1015C0007A73FFF711FB204610210122FEF7E8FE97
:1015D0002046102100228DF80360FEF7E1FE0DF198
:1015E0000301284601224FF47A73FFF7FDFA2046E3
:1015F00010210122FEF7D4FE2046102100228DF892
:101600000380FEF7CDFE0DF10301284601224FF4C1
:101610007A73FFF7E9FA204610210122FEF7C0FE97
:101620002046102100228DF80370FEF7B9FE0DF15F
:101630000301284601224FF47A73FFF7D5FA2046BA
:1016400010210122FEF7ACFE2046102100228DF869
:101650000360FEF7A5FE0DF10301284601224FF4B9
:101660007A73FFF7C1FA204610210122FEF798FE97
:101670002046102100228DF80380FEF791FE0DF127
:101680000301284601224FF47A73FFF7ADFA204692
:1016900010210122FEF784FE204608210022FEF7D9
:1016A0007FFEB4208DF80300204610210022FEF7B3
:1016B00077FE0DF10301284601224FF47A73FFF7FC
:1016C00093FA204610210122FEF76AFE20460821E7
:1016D0000122FEF765FE03208DF80300204610214D
:1016E0000022FEF75DFE0DF10301284601224FF4B2
:1016F0007A73FFF779FA204610210122FEF750FE97
:10170000204608210022FEF74BFEC0208DF8030082
:10171000204610210022FEF743FE0DF1030128466A
:1017200001224FF47A73FFF75FFA2046102101225D
:10173000FEF736FE204608210122FEF731FEA220E8
:101740008DF80300204610210022FEF729FE0DF13E
:101750000301284601224FF47A73FFF745FA204629
:1017600010210122FEF71CFE2046102100228DF8D8
:101770000370FEF715FE0DF10301284601224FF418
:101780007A73FFF731FA204610210122FEF708FE96
:1017900084208DF80300204610210022FEF700FE71
:1017A0000DF10301284601224FF47A73FFF71CFA6A
:1017B000204610210122FEF7F3FD204608210022D9
:1017C000FEF7EEFDC1208DF8030020461021002217
:1017D000FEF7E6FD0DF10301284601224FF47A736E
:1017E000FFF702FA204610210122FEF7D9FD20461C
:1017F00008210122FEF7D4FDC52720461021002232
:101800008DF80370FEF7CCFD0DF10301284601228F
:101810004FF47A73FFF7E8F9204610210122FEF712
:10182000BFFD204608210022FEF7BAFDC2208DF838
:101830000300204610210022FEF7B2FD0DF1030146
:10184000284601224FF47A73FFF7CEF92046102183
:101850000122FEF7A5FD204608210122FEF7A0FD8A
:101860000D208DF80300204610210022FEF798FD80
:101870000DF10301284601224FF47A73FFF7B4F902
:10188000204610210122FEF78BFD20461021002268
:101890008DF803A04FF0000AFEF782FD0DF1030161
:1018A000284601224FF47A73FFF79EF92046102153
:1018B0000122FEF775FD204608210022FEF770FD8B
:1018C000C3208DF80300204610210022FEF768FD9A
:1018D0000DF10301284601224FF47A73FFF784F9D2
:1018E000204610210122FEF75BFD2046082101223F
:1018F000FEF756FD8D262046102100228DF803604C
:10190000FEF74EFD0DF10301284601224FF47A73D4
:10191000FFF76AF9204610210122FEF741FD2A2037
:101920008DF80300204610210022FEF739FD0DF14D
:101930000301284601224FF47A73FFF755F9204638
:1019400010210122FEF72CFD204608210022FEF77F
:1019500027FDC4208DF80300204610210022FEF749
:101960001FFD0DF10301284601224FF47A73FFF7A2
:101970003BF9204610210122FEF712FD20460821E6
:101980000122FEF70DFD2046102100228DF8036094
:10199000FEF706FD0DF10301284601224FF47A738C
:1019A000FFF722F9204610210122FEF7F9FCEE2074
:1019B0008DF80300204610210022FEF7F1FC0DF106
:1019C0000301284601224FF47A73FFF70DF92046F0
:1019D00010210122FEF7E4FC204608210022FEF738
:1019E000DFFC2046102100228DF80370FEF7D8FCA2
:1019F0000DF10301284601224FF47A73FFF7F4F842
:101A0000204610210122FEF7CBFC204608210122AE
:101A1000FEF7C6FC0A208DF80300204610210022A4
:101A2000FEF7BEFC0DF10301284601224FF47A7344
:101A3000FFF7DAF8204610210122FEF7B1FC20461C
:101A400008210022FEF7ACFC2046102100228DF870
:101A50000380FEF7A5FC0DF10301284601224FF497
:101A60007A73FFF7C1F8204610210122FEF798FC97
:101A7000204608210122FEF793FCC8208DF80300C0
:101A8000204610210022FEF78BFC0DF103012846B1
:101A900001224FF47A73FFF7A7F8204610210122A4
:101AA000FEF77EFC204608210022FEF779FCE020AC
:101AB0008DF80300204610210022FEF771FC0DF185
:101AC0000301284601224FF47A73FFF78DF8204670
:101AD00010210122FEF764FC204608210122FEF7B6
:101AE0005FFC12208DF80300204610210022FEF733
:101AF00057FC0DF10301284601224FF47A73FFF7DA
:101B000073F8204610210122FEF74AFC1C208DF8B4
:101B10000300204610210022FEF742FC0DF10301D4
:101B2000284601224FF47A73FFF75EF82046102111
:101B30000122FEF735FC2046102100228DF803908B
:101B4000FEF72EFC0DF10301284601224FF47A73B3
:101B5000FFF74AF8204610210122FEF721FC4FF042
:101B600018082046102100228DF80380FEF718FC8B
:101B70000DF10301284601224FF47A73FFF734F880
:101B8000204610210122FEF70BFC33208DF80300C4
:101B9000204610210022FEF703FC0DF10301284628
:101BA00001224FF47A73FFF71FF82046102101221B
:101BB000FEF7F6FB2C208DF80300204610210022B2
:101BC000FEF7EEFB0DF10301284601224FF47A7374
:101BD000FFF70AF8204610210122FEF7E1FB25203D
:101BE0008DF80300204610210022FEF7D9FB0DF1ED
:101BF0000301284601224FF47A73FEF7F5FF2046D1
:101C000010210122FEF7CCFB2826204610210022BD
:101C10008DF80360FEF7C4FB0DF103012846012295
:101C20004FF47A73FEF7E0FF204610210122FEF701
:101C3000B7FB2046102100228DF80360FEF7B0FBB1
:101C40000DF10301284601224FF47A73FEF7CCFF11
:101C5000204610210122FEF7A3FB27208DF8030068
:101C6000204610210022FEF79BFB0DF103012846C0
:101C700001224FF47A73FEF7B7FF204610210122AC
:101C8000FEF78EFB4FF02F092046102100228DF821
:101C90000390FEF785FB0DF10301284601224FF466
:101CA0007A73FEF7A1FF204610210122FEF778FB90
:101CB0003C208DF80300204610210022FEF770FB27
:101CC0000DF10301284601224FF47A73FEF78CFFD1
:101CD000204610210122FEF763FB2046102100223E
:101CE0008DF803A0FEF75CFB0DF1030128460122ED
:101CF0004FF47A73FEF778FF204610210122FEF799
:101D00004FFB03272046102100228DF80370FEF7B9
:101D100047FB0DF10301284601224FF47A73FEF7C9
:101D200063FF204610210122FEF73AFB20461021D6
:101D300000228DF803704FF0030BFEF731FB0DF11D
:101D40000301284601224FF47A73FEF74DFF204627
:101D500010210122FEF724FB4FF0100A204610212B
:101D600000228DF803A0FEF71BFB0DF103012846AE
:101D700001224FF47A73FEF737FF2046102101222B
:101D8000FEF70EFB204608210022FEF709FBE120AA
:101D90008DF80300204610210022FEF701FB0DF113
:101DA0000301284601224FF47A73FEF71DFF2046F7
:101DB00010210122FEF7F4FA204608210122FEF745
:101DC000EFFA12208DF80300204610210022FEF7C2
:101DD000E7FA0DF10301284601224FF47A73FEF76A
:101DE00003FF204610210122FEF7DAFA1C208DF8AD
:101DF0000300204610210022FEF7D2FA0DF1030164
:101E0000284601224FF47A73FEF7EEFE2046102199
:101E10000122FEF7C5FA2046102100228DF803A00A
:101E20001027FEF7BDFA0DF10301284601224FF4F9
:101E30007A73FEF7D9FE204610210122FEF7B0FA90
:101E40002046102100228DF80380FEF7A9FA0DF13B
:101E50000301284601224FF47A73FEF7C5FE20469F
:101E600010210122FEF79CFA2D208DF80300204658
:101E700010210022FEF794FA0DF1030128460122F9
:101E80004FF47A73FEF7B0FE204610210122FEF7D0
:101E900087FA2046102100228DF80360FEF780FAB1
:101EA0000DF10301284601224FF47A73FEF79CFEE0
:101EB000204610210122FEF773FA23208DF803003B
:101EC000204610210022FEF76BFA0DF1030128468F
:101ED00001224FF47A73FEF787FE2046102101227B
:101EE000FEF75EFA2046102100228DF80360FEF70F
:101EF00057FA0DF10301284601224FF47A73FEF7D9
:101F000073FE204610210122FEF74AFA20461021D6
:101F100000228DF80360FEF743FA0DF10301284615
:101F200001224FF47A73FEF75FFE20461021012252
:101F3000FEF736FA26208DF80300204610210022F5
:101F4000FEF72EFA0DF10301284601224FF47A73B1
:101F5000FEF74AFE204610210122FEF721FA204614
:101F6000102100228DF80390FEF71AFA0DF10301FB
:101F7000284601224FF47A73FEF736FE20461021E0
:101F80000122FEF70DFA3B208DF8030020461021B8
:101F90000022FEF705FA0DF10301284601224FF455
:101FA0007A73FEF721FE204610210122FEF7F8F990
:101FB00000208DF80300204610210022FEF7F0F9E2
:101FC0000DF10301284601224FF47A73FEF70CFE4F
:101FD000204610210122FEF7E3F9204610210022BD
:101FE0008DF803B0FEF7DCF90DF10301284601225C
:101FF0004FF47A73FEF7F8FD204610210122FEF718
:10200000CFF92046102100228DF803B0FEF7C8F961
:102010000DF10301284601224FF47A73FEF7E4FD27
:10202000204610210122FEF7BBF920461021002294
:102030008DF80370FEF7B4F90DF103012846012273
:102040004FF47A73FEF7D0FD204610210122FEF7EF
:10205000A7F9204608210022FEF7A2F93A208DF8C0
:102060000300204610210022FEF79AF90DF103012A
:10207000284601224FF47A73FEF7B6FD2046102160
:102080000122FEF78DF9204608210122FEF788F98A
:1020900005208DF80300204610210022FEF780F96C
:1020A0000DF10301284601224FF47A73FEF79CFDDF
:1020B000204610210122FEF773F920460821002254
:1020C000FEF76EF929208DF803002046102100222A
:1020D000FEF766F90DF10301284601224FF47A73E9
:1020E000FEF782FD204610210122FEF759F9204615
:1020F00008210122FEF754F901B0BDE8F08F00007D
:10210000F0B581B01C46154602440B44013A013B30
:1021100092B29BB2FEF7EAFF002D18BF002C11D03F
:10212000069E6C43002500BFA9B216F8110006EB0D
:10213000410700F03FF8787800F03CF8013C05F1E9
:102140000105F1D101B0F0BD70B582B040F60004D8
:102150000546000AC4F201048DF80600204610214D
:102160000022FEF71DF940F21006C2F200060DF142
:102170000601304601224FF47A73FEF735FD204602
:1021800010210122FEF70CF92046102100228DF8C3
:102190000750FEF705F90DF10701304601224FF413
:1021A0007A73FEF721FD204610210122FEF7F8F890
:1021B00002B070BD10B582B040F60004C4F2010454
:1021C0008DF80700204610210022FEF7E9F840F2C2
:1021D0001000C2F200000DF1070101224FF47A73E2
:1021E000FEF702FD204610210122FEF7D9F802B0C9
:1021F00010BD000070B584B041F21800C4F20200B6
:10220000016840F6000441F0200101600168C4F259
:10221000010401F02001009100990168012241F0C0
:102220000401016000681E2100F004000090009885
:1022300020461E250126FEF7B3F8032003906946C9
:102240002046CDE900560296FDF79CFF04B070BD14
:1022500080B540F2100043F20001C2F20000C4F267
:1022600001014FF48272002380E80E0000F1140196
:102270004FF4007C4FF0080E81E808500A21C0E9B5
:102280000333C0E90833C0E90A31FEF71BFC00281C
:1022900008BF80BDBDE88040FDF75ABF80B540F261
:1022A000680043F60001C2F20000C4F201010023FD
:1022B0004FF00C0C4FF4E13280E80E00C0E903331C
:1022C000C0E905C3C361FEF78FFD002808BF80BDCC
:1022D000BDE88040FDF73CBFFEE70000FEE70000E0
:1022E000704700002DE9F04182B01E4690460D4631
:1022F0000446FEF75BF8301A00EB0807FEF756F8C5
:1023000040F20C01C2F200010968C1F3CB317943FC
:10231000019121688A682A40AA4227D1064618F10D
:1023200001001FD0FEF742F8801BB84222D201986C
:1023300001990028A1F1010101912168896808BF74
:10234000074601EA0500A842ECD00FE08868284063
:10235000A8420BD188682840A84207D18868284045
:10236000A84203D188682840A842EFD0002002B0DC
:10237000BDE8F081D4E900014268B1F5827F22F026
:10238000E00242600AD1A168B1F5004F02D0B1F578
:10239000806F03D1016821F040010160A16AB1F5AD
:1023A000005F07D1016821F400510160016841F428
:1023B00000510160012084F85100002084F8500091
:1023C000032002B0BDE8F08170470000FDF7F4BFC4
:1023D00070470000FEE7000010B582B004468DF89B
:1023E000070040F26800C2F200000DF1070101226F
:1023F0000223FEF7A7FD204602B010BD90B0FDF706
:10240000E9FF00240120CDE90B44CDE90944069001
:102410000A904FF4E0104FF4803102250F9006A887
:10242000CDE90714CDE90D51FEF772F920B1EFF3B4
:10243000108072B6FEE700BF0F20CDE901054FF412
:102440008060CDE9040401A802210394FEF758F846
:1024500020B1EFF3108072B6FEE700BFFFF7CAFEAF
:10246000FFF7F6FEFFF71AFFFEF77CFF4FF6FF754A
:1024700000200021802280230095FEF74FFF42F2CA
:10248000225507A4C0F60005204600F00DF80020F4
:102490000021802280230095FFF732FEF4E700BF81
:1024A0007374617274000000014A024900F013B8AD
:1024B000D92300080000002002E008C8121F08C14C
:1024C000002AFAD170477047002001E001C1121FB5
:1024D000002AFBD170472DE9F04116460F4604460D
:1024E000002503E03946B047641C6D1C20780028A5
:1024F000F8D12846BDE8F08101020000000000008C
:1025000000000102030406070809000000000102A0
:10251000030402030405060708090A0B0C0D0E0F3D
:10252000101095DC95DC9DFC9DFC95FC95DB84D71B
:102530007CD89DFD959B9D544AEE7CD7428C31C73B
:102540001924BE5A426BAE3C95FBADB6298229A434
:102550003A6429A673EA29A4846E3A258CD05AC914
:1025600039E210C01104B63831E66BEE5B2A5B2A03
:10257000ADD629A794F184708CD331C429A5192133
:1025800031E429C519231902216131C431C342261E
:10259000424521423A265B2B31E695149CF59DBAC3
:1025A000A5DC95FD9E1D961D9DFD9DFD9E1D9DFD21
:1025B0009DFD9DFD9E1D9DFDA61C636D6BAD6B6C11
:1025C00042A76BF0433195DD9E3D961CA5FC638EC2
:1025D0004AA9A5FC95DCAE3B7C327C936B8BCC8905
:1025E0009C4AE61049A031803A444A6919201902F0
:1025F0002983424531A121410060216300600060D0
:1026000029A33A06424421632183320129424A65C3
:102610005B0600603A8108C008A042A27CA300606B
:10262000198095DC95DC95DC95DDA5FB74759DDB4B
:10263000A63DA61C9DDC3A48636E6BD163F019453C
:1026400029845B4F9556A61BA61B29C539C83A2578
:1026500052E8298542453A0431E3A5969D524AA79E
:102660005AE66328636A3A4731C542A9BE599D0FAD
:1026700042A3216142873A6429C131C231C7298608
:102680002124192131C431C4214221857C518C92ED
:1026900029A331E321812981844E426A4B6B8492C4
:1026A00095FC9DFC9E1D9E1D9E1D9E1D9E1D9E1D9E
:1026B0009E1D9DFD95FD961DA63C6BEF845142AA83
:1026C00074124B2BA63C9E1D9DFDA61B5B6C5B0AEA
:1026D0006B4C426752CB21A331C37C2F5B2A18601D
:1026E00039A042419BEA8B665B48194110E04AC31E
:1026F00010A0424408400060006000804286004014
:1027000039E61901218110E129A129A0002073E9EE
:102710003A43004000602981088084A874074B0474
:1027200000A08DDC95DC95DC1A0A29C6A59521EA66
:102730006C1111458CF608A1953794F46BD0B5FA5D
:1027400029A631E629A508E442E929A5298542857B
:1027500031E5634D5B2A422752E929C5218129834E
:1027600031E24AA552E85B2829C94ACB638D4A6504
:1027700029C111203224218232024AA5426429E66D
:102780003A0618E0296310C173CD218673D119016F
:1027900031E419024A87298252A794D2B5D85B6FD7
:1027A000A61CA5FBA67E9E3D9E3D9E3D9E3D9E1D7C
:1027B0009E1D9DFD9E1DAE7E8D356BCD8D147CD9ED
:1027C0003A8CADFBAE7D9E1E22098D17638FB5DA64
:1027D0004A84A554738B73E752E573CC52874AC37E
:1027E00053A24AE36B0572E56348212042415B2313
:1027F00039C02100216108C010C108800020740880
:10280000322008E0320310A110A0108000200860E0
:1028100052E90020004008800000006031E542A23B
:102820005324A63E95BA74545B6E328C4B0E3A8A92
:10283000A59629C89575190421456BAE52A829871C
:1028400010E331C708A129A442486C139D7629C41E
:10285000112131E473CE3A2652C6296231C4424571
:10286000002032033A2742483A279D1552CA3223A4
:102870008CAF6BC73A0519212160428A42864227F4
:1028800094EF21655B4D740F29C74A8B6B8E4A64A8
:10289000424573EE29A35B0D5B2B52C83205426A99
:1028A000A61E9E1DA63EA63E9E3D9E3E9E1D9E1EB3
:1028B0009E1D9E1E9E1E85189DFB4AEF95954248C3
:1028C000426631C3530A8D5395DAA5FC29E89D145D
:1028D0004AA7A55442635AE94AA64AE484705305BC
:1028E00031E26BC5740411000861738508603A20F9
:1028F00032005B455B272964210208A03A2308C007
:1029000010C108E0006010A0110211010060004039
:102910000020002000200020086008801101002015
:10292000110095FB7C949D989D795B8F8471422862
:10293000ADF894F531C7196663907C109D5752EC41
:10294000218429E929A7636D31E729E83207AD938E
:102950005B0B5B2B08E03A2773EFA576424629A371
:1029600000603A05638C004110C2088052C95AE9E0
:102970007C2C31C431C342454A8A218421843A23C4
:10298000636A73F08CB419437412192339E431A3C8
:10299000212284309CF3A57352CC5B0A5B4B636CA1
:1029A0004B2FA65DA65D9E3DA63DA65E9E3E9E3D2E
:1029B0009E5D9E1C9E3D9DFC961D95FC52EC638B7E
:1029C00052E621403A26740D52E6192031C352A82E
:1029D000216052E5428352E74A684A8829815B09AF
:1029E0007429B5CB94A739A10860004008608C4ACF
:1029F0008428740810E10060080020A008800040CE
:102A0000292118A07BED006000400020002000205C
:102A1000002010C108A0002018E200601102004050
:102A200041E36BF07C537CD6A61929C8216642ACE1
:102A30005B6F84949D998D37A5DA2188BE5D4ACB62
:102A400042ACBE5A6BCF21446B8D424921435B0B94
:102A50004AAA3A4973F018E384304AAA6BAD298434
:102A600018E04245426A10C24AA74A8629A429852D
:102A7000632B422431E273CB42839D556BAF7C12B2
:102A80005B2C6BAB3A4452EA3A2531A463283A24D2
:102A90005AEA5AE7632D74118CD273CC4AA6634E5E
:102AA0009D77A65DAE5DA63EA63DA63DA63DA65E73
:102AB0007CD663F29DD97412A5FAA63CA63C74118B
:102AC00084526B8D53299D1632015B6829A23A24EA
:102AD00031E14AA639E34265634752EA7367736A94
:102AE0008C285B015240BD8B3181196129A27C2564
:102AF0004AA52121084010C152036AA3736921220B
:102B000020C0190108803A47002031C508800040E4
:102B1000002008A00060194318C1088008C031C413
:102B20006B6842AB8D18A63CA61B7432216529A7A1
:102B3000218629A763F28D1573F05B2F4AEB6B6E2C
:102B40009D3529664A69ADD82965A556426A5B2E2E
:102B5000A5989557741231E821438C6EBE1810E386
:102B600018E11902632B42482982298310C13A28AF
:102B700029876BAC3A076BAE9D345B4E94F44A8662
:102B80003A04A5533A4329C631A531C521224A69E1
:102B900010C03A06630D39E531A431C352A84A6921
:102BA0004A8AAE1953B1A61CA65DA63DA63DA67ED7
:102BB000A5FA8516AE7D63D03A69A5D863CD428764
:102BC000AE16532CC69B7C0E4AC33A203A225B05B4
:102BD00042245285738C5B273A06846F31816B47A0
:102BE0008C484240BD8A738641C3106083E65AA177
:102BF0004AC25B0731840040210120E03A24216170
:102C000010E142860040008000200060002000406B
:102C100008A1008008C0194121211942088008C07C
:102C200031E395FB9DFDA63C959921A963AEB5B610
:102C30004AABA59721A99D9853709E1CA5BB21A6C0
:102C4000AE19ADF97CB6B67D63D1A5FBC6FEB69EC6
:102C5000AE5DA61CAE5DB69EAE7C4B0D94F352CA23
:102C600018E219012101298329A16B8931E33A0670
:102C70003A0919232163636D31E629A432082181C1
:102C80003A0352E831C23A644A85212310A119025D
:102C900029445AEA29A442066B6B4A2729A373CE1A
:102CA0007411532E9DFBA65DA65DA65DA63DA65E96
:102CB000A63EAE5EA63DB69EA5BA3A6B3A454A849C
:102CC000426595718D119D0F8C93634629C15AE61B
:102CD000294039C452E829878CB13A0452E5214190
:102CE000192118C0416152057BEB9CC962456AA756
:102CF0006B4729C100400020212300202183006070
:102D000010C110000800112200600040088000601F
:102D100008C0428629A20020088019410060006096
:102D20001942A5FA747463B084F6A5FBA5BB95158A
:102D300063B0320A7C959DFC3A6DADD919C7A5BA2E
:102D40007494B65CA63C63F39599AE5DB65CA61C24
:102D5000AE3DAE3DAE5DAE7DAE5DAE5D29C72143FD
:102D600018E1210239E529843A2429C231C33A06FF
:102D7000214529A46BCD214610C252A684914266FA
:102D80008C6F52C842463A0732023A0410E0422998
:102D9000296442456B8F422731C3630831A46B69B4
:102DA0009D9342CB63D2AE7DA65DA65DA65DA65D7A
:102DB000A67EA67EA67DA67DAE5D74734AEA42A875
:102DC000AE36ADD842894A675B4B4AAB530D5AEBDE
:102DD0005AE94A873A2473EF94B331E43A26194109
:102DE0001100192020E01840294019002921006015
:102DF00021C308E0298221620060006008A00080F1
:102E00000880006008600040006008A0006008A121
:102E100000400060002000200020216200200060AF
:102E2000004021658CF4A5B984B4A5D96C13BE9B70
:102E3000AE3B4AED955784D6B65A7454A5FC11871B
:102E4000534FA63CA5DBA63DA67EAE5DA63C7D18F5
:102E50009DFCA63DA63DA63DA65EAE7D29E839A512
:102E6000190121014267844F3A0773CD422752EB83
:102E700021643205740E08A110E13A045B0910A127
:102E8000634A632B214310E0530B3A0531E529C611
:102E90008CB43A2710E35AE9298473AF636D532E3B
:102EA000C69E42CB532EAE5DAE5DAE5EAE5EAE5EF6
:102EB000AE7EAE7EAE5EAE7EAE7CAE5E9E1CA65D8F
:102EC000AE7D8D59B67C63B37C53536EB67C3A2786
:102ED00084504A6773AF94B4216242880080110124
:102EE00031E30080086031A35B0510E06AC608602A
:102EF000002029C508C0006008A1006008E108A101
:102F000000600080004008401943088000400060D5
:102F1000008000200020088100200040000008A060
:102F200000203A088CD4320874311924ADF9A5DA9E
:102F300042AB8CF564141947AE1AA61CAE7D6C9694
:102F4000A63C9E1C9D98322A5391B67C74958D7A2E
:102F5000A63DA63DA63DA63DA65DAE5D9DFA2943D4
:102F600039A341E41924ADB4218229C54ACA3208E3
:102F70005B4B190229A529A5A5341923192231E68D
:102F80002123298339E3190042634A664AA631C4E2
:102F90008CB3CEBB426942295B2C3A273A264AECD5
:102FA000A65DA5FBB69DA65DAE5EAE7EAE5EAE7FB7
:102FB000B65CAE1995B8B6BF6BF15BAFAE3BB65D14
:102FC000AE1A42AABE9B530BA5B65AEA742F2964C7
:102FD000BE17190331C631A542251101088008A08A
:102FE000006008A1532231A263C54AA553083A24C0
:102FF000218330E01901214408A010E10060214242
:1030000031E44A8600600040214300400040004017
:1030100000400020006008A10040004000200000A7
:1030200000209537A63C19A9A61A95367CB501054E
:1030300063D23AAF9598B67C7CD6A63DA61C9DFB84
:1030400095BB42AD3A49955763B07412B67D9DBAAF
:10305000A61CA63DA63DA65DA65DA63DA69E216436
:103060005A8762E7C67A29C6BE3C63B095173228F4
:103070004AEC29C529A673CD216329A529A6214398
:103080002145A5557C4921403A4252A610A14ACB80
:1030900073F4636F4AC921434A85420873AB84D5F0
:1030A000C71FAE5DAE7EAE7EAE7EAE7EAE7EBEDEB7
:1030B0009D557C51B67DA61B5B6C530D3A656C0823
:1030C0003A214AC45308216321C24A885AE918E1C7
:1030D0002163426673ED31E319401100190008A025
:1030E00010C129C16BE5004008C011006BAA212066
:1030F0000100B4293A2308A0006010C200801942E0
:1031000000404A8808600040004008A100400020BC
:1031100000200020004000400040002008810020E6
:1031200000209DFB9DFB9E1CA63C9E3EA61BA61B55
:103130008515AE3B9DDC9DDBA63DA63C9E1CAE7D71
:103140009599AE3BADD9B67DB67C9D99BE5BBEDE92
:10315000AE7EA63DA63DA63DA63DA63DA65D428B04
:10316000316141C152AB5B2B3A8A21864ACC4B0C70
:10317000BE7E29E832087C3084513A2A4A8B1943B2
:1031800031A55B0A426342645AC7424373F05BB2A3
:10319000B6595B4B39E9298652CB31C221418CD4D7
:1031A000A5B6B65BBEDEB69DAE9EAE7EAE7DAE393A
:1031B0008D57BEDE9DB79DB99D3763CD73EAA5538C
:1031C00029A129E33A421120110131C431C339C385
:1031D00031C410C02983424318E239C33A0510E0D4
:1031E00010C110E12160006008C029A319032182E9
:1031F000428449A35B45298129A14286218300603D
:103200002181088029832183004000600040002044
:1032100000200020002008800040004000400040C6
:1032200000409DFB9E1C9DFB9E1C9E1C9DFB9E1CAE
:103230001127196895DB9E1C9E1CA61DB69E9DD964
:10324000AE5DA65DA63CA63C9E1CAE5C63B1B67BA3
:103250009E3CAE3EA65DA65DAE9EAE5DA67B530DCA
:103260004A03318194F431E784946BAEA5B8955646
:1032700032299578A5B89D98C6BD19255B2E9D1459
:1032800029A439E55B093A243A04738873EA19459D
:1032900029A731C7BE7B8CF56BCF31E629A68C936D
:1032A0009536532FBEBD7476B6BEB6BEBE7C4B06F9
:1032B0005B0963CE5B475B658CCD6BC9951152E4AE
:1032C00052C629A129E32182004031E331E32101E3
:1032D000298131E54AA63A24214231C352C70080F0
:1032E00008C000A01100088052E410C252E708E0B4
:1032F00029C331C24282110053225B28006008A01A
:103300003A430060002008C0006000800040004098
:1033100000600040004000200020006008A108A1DB
:103320000040A63CA63CA63CA63CA63CA61CA61B70
:10333000A63C9E1CA61B9E1C9E1CA61CA61CAE5C2E
:10334000A63CA63CA63DA63CA63DA63DAE5CBE9CCA
:10335000AE5CAE3DA63DA65DAE7DB67C326AB5D90B
:1033600041E34A442987ADD619657C53C69C73F066
:103370004AAB5B8FADF8530D9516955721862164A6
:1033800031845B0939E5190252C86B473A024A8A0F
:1033900084F79537A5F9BEBEB67DA5DB9537A5BAEE
:1033A000C69DA5F99DB8B69DB67E5BD06BF26BB09D
:1033B00074106B8A6B8842623A0431A552E5A555B8
:1033C0003A0352A539E342223A03636831E24243A9
:1033D00031C418E0214142643A0629C5426529C238
:1033E000216131E510E029C40060428408C000601A
:1033F00000805B664AE208A06BA908A008A008A0AC
:103400007BEB00400880002000600040000000804E
:1034100010C000600040002000402162194200807E
:103420001902AE3CAE5CAE5CAE5CAE5CAE3CAE5C7B
:10343000AE3CAE3CA63CA63CA63CA63CA63CA63C6C
:10344000A63CA63CA63CA63CA63CA63DA65DAE3C42
:10345000AE9DAE3DA65DA65DAE7DB67DB6BDBE5C45
:1034600041E318C0A57729E88473B63A3A8DBE5B6C
:103470002987AE3BBE9C3A4A5B4E95374AED7412A3
:103480006B8D4A694A254AC952CB39E342437BF0E6
:10349000BEDE4B2F322B8D17B67CA63CC71F9DDAA4
:1034A0004ACD8D385B8FB65CAE9DB69DB67FB65B60
:1034B000B6DD530BB6384284848B74083A224AA294
:1034C00094AE18A052C36B66532621C56BCD6B69B1
:1034D00008601901298363291902214210C031E3D0
:1034E00029A210C01901112029E03223324242A43E
:1034F00029C629A1298073A4298210C000405B67D6
:103500004AC6114029E1196108E008A10040216282
:103510000020086000200020006019410060008049
:103520000040AE3CAE3CAE5CAE5CAE5CAE5CAE3C75
:10353000AE5CAE3CAE5CA63CA63CA63CA63CA63C23
:10354000AE3CA65CA65CAE5CA65CA65CA65CAE5D72
:10355000A65CA65CA65CA65DAE7D638FAE1ABE7B44
:10356000398239A28CB321C8B63A6C33B67C322A80
:10357000BE9DB67DB6BDB63A4AEC530E7C52BEBD7A
:103580009536AD75632C42264A867C0B52C55B4D41
:103590009D998CB5BEBE7432BE9C6413AE7DAE5D8B
:1035A000AE5C5BD1B67D959AAE9DB67EBEDE534DC8
:1035B000AE9EAE1B3A45216252E64AA54AA63A643F
:1035C0006B6A6B485AC54A8652ECB65B7455532DEC
:1035D00021645AE5292231C3424518E152A74A2401
:1035E000216131E4190121A132413A8208A0004051
:1035F000086008A0AC49AD040880006000403A644F
:1036000021C042C32A013262194108C000401100A2
:1036100008A0004000200020004000400080004042
:103620000060AE5CAE3BAE5CAE5CAE5CAE5CAE5C15
:10363000AE5CAE5CAE5CAE5CAE3CAE5CAE5CAE3C7A
:10364000AE3CAE5CAE5CAE5DAE5DAE5DAE5DA65C4E
:10365000AE5DAE5DA65DAE5C428CA5D99DDABE596D
:1036600039A418E0C67B6C33B6BEAE5D9558B67D06
:10367000BEBEB67DB67DB6BEAE5CBEDEBE5B84D6DB
:103680009D774AA97BD04A26528631A173EEAE1AA5
:1036900074337C548CF6426C74135B703ACEB67DF6
:1036A000A63CA61BB69DB69DB69DB69DB69EB65EC3
:1036B000B6BC7451CEFC634B5B6853263A84B61893
:1036C000218331A26B295AA54A89532E43079D595C
:1036D0009D346B6E294310A0294310C13A0629423C
:1036E00010C0298210E04AA308E029A26368218360
:1036F00010A04A66C50DACA808A1006021823A81DD
:103700003AA2324142A442A300A01101110108E0F3
:10371000324232423224110008E008A029A40040BD
:103720000040B65BB65CB65CB65CB65CB65CAE5BE5
:10373000AE5BAE5CAE5CAE5CAE5CAE5CAE5CAE5C3A
:10374000AE5CAE5CAE3CAE5CAE5CAE5CAE7DAE5C28
:10375000AE5CAE5CAE5CB69DB69DAE5CAE7D5B2DE8
:1037600031A331A3B63BB67DAE7DB67DB6BDB69D69
:10377000B67DB67DB69D8D37B6BDC6DECEFD9D78D5
:10378000426BCEDBC5F74A457C2D4224742FB6BF71
:10379000C6DCAE1B29C85B904AED5B4DAE1ABEBEBF
:1037A000AE5CAE7DAE9DAE9DAE9DB69DB69DB6DEC9
:1037B000B69C9D78AE5A63CEB63BBEDF42A96B6C19
:1037C0009CD0190042266B296B8C5B2742863243C2
:1037D00063496B4A634A21435AEA212210E2294392
:1037E000318352A731813A042983296410C018E03B
:1037F00029A42122214210A0218308A14AC642C344
:1038000042E23A82004021C132414AE511003A6168
:10381000326129C219413A6429E100A000600060C8
:1038200029E1B65CB67CB65CB67CB67CB67CB65C90
:10383000B65CB65CAE5CAE5CAE5CAE5CAE5CAE5C28
:10384000AE3CAE3CAE5CAE5CAE5CAE5CAE5CAE5C68
:10385000AE5CAE5CAE7DAE5DAE5DAE5DAE7CBE5BC5
:1038600031822962B65BAE7CAE7DB67DB67DB67D1B
:10387000B67DB67DB69DB69DB69DB69DA5D8CEBB90
:103880009D988CD494B27C2D4AA632679D139DDA04
:10389000B69CBE9C7C947C736BD0BE188D15A5D94C
:1038A000B6BEB69DAE9DAE9DAE9DB69DB69DB69D77
:1038B000B6BDAE9DAE7DB69EAE3BBE7DB6395B6DF0
:1038C00032063A243A056BA85AC64A824A8394AD16
:1038D00073CD84503A045B255ACC39C61102B5F930
:1038E000294131E34224086018E1214318E110E046
:1038F00010E010C02163192210C1110110E108E08D
:1039000042A3006000603241322129C211000080D0
:1039100000403A443A62006008E1004032223A62D4
:1039200029C2AE5BB65CB65CB65CB65CB65CB65C37
:10393000B65CB65CB65CB65CB65CB65CAE5CAE5C07
:10394000AE5CAE5CAE5CAE5CB65CB67CB65CB65DE6
:10395000B67DB67DB65DAE7DAE7DAE7DAE7CA59806
:1039600042252941B61AAE7CAE7DAE7DAE7DB67DD8
:10397000B67DB67DB67DB69DB69DB69DBEBDC6DD97
:10398000CF3FB65AADB5847042655369636DCEDCE6
:1039900042ABB67DB69DAE5CB65C8D37A5DA955769
:1039A0005BB1AE9DB69DAE9DAE9DB69DB69DAE7D06
:1039B000AE7DAE9DB69DB6BE9DFA9DDA8CF4A59700
:1039C00052EA4AC584705AEC39E631A231E33A43EF
:1039D0003A248C5273AC6B6E3A0629865AEB636EAE
:1039E000424729854A4873AE5B2E214410C018E136
:1039F00010C021420860212210E1194111220080EB
:103A0000006021A110E010E0194008A0006008A1AA
:103A10000060322042A33221322108C02A02006015
:103A200021A0AE3BAE3BB63BB63BB65BB65CB65BED
:103A3000B65CB65CB65CB65CB65CB65CB65CAE5CFE
:103A4000AE5CAE5CAE5CAE5CAE5CB65CB65CB67DED
:103A5000B67DB65DB67DB67DB67CB67CAE7CC6BCAA
:103A60004A2331629D77AE7CAE7DAE7DAE7DAE7D6C
:103A7000B67DB67DB69DB69DB69DB69DB69DC6FE7D
:103A8000BEBDB65BADD89D5652C994D431EAC6DDF1
:103A9000B67CB69EAE9DAE5CA63CAE7DB6BE8D3706
:103AA000BEBDAE9DAE9DAE9DAE9DB69DB69DAE9D7E
:103AB000B69DB69DB69DB67DB67DAE3CA5FC84B3E5
:103AC000BE3B8CD221875AEB4A876B6939E431C4FB
:103AD0004AA53A2331C37BED31E694F5632C73CCD0
:103AE0008C705B4E532D84938CD4638E190310A07D
:103AF000296410A110C2632B0060190108E11100B4
:103B00003A833A42196253063A81110108C008A16A
:103B100010E02A202A214AE52A02002021A253454A
:103B20003A82AE1BAE3BAE3BAE3CB63AB65CB65C40
:103B3000B65CB65CB65BB65BB65CB65AB65CB65CF9
:103B4000AE5CAE5CAE5CB65CAE7CB67CB67CB67C85
:103B5000AE7CB65CAE7CAE7CAE7CB67CB67CC69CE5
:103B60005A6539C2BE3AB69CB67DB67DB67DB67D85
:103B7000B69DB69DB69DB69DBEBEBE9DB69BAE1A09
:103B8000BE9CAE18A5BA740E52A9A556A552849132
:103B9000BEBDB69EB67CB69DB69DAE9DB69DB67DAD
:103BA000B69DB69DB69DB69DAE7DB69DB69DB69EA4
:103BB000B69DE73CE73AD6D9D6D8E73BDED8F77BC7
:103BC000F75983CB62E99CCF4A8362A542224A64BB
:103BD0007C0B5B054A6331C14204630973CE6B877A
:103BE0004A6663AF528931A6636C951529A752EADC
:103BF00010C294B22965320600400040008000A047
:103C00008CAF006010E27C6952E4192110E00040A2
:103C1000004042861940326108C000603A443A626E
:103C20003A63AE3AADF8B63BAE5BB63CB65BAE5B64
:103C3000AE3BAE3BB63CAE5BAE5CAE5CAE5CAE5C8F
:103C4000AE5CAE5CAE5CAE5CB67CB67CB65CB67CA4
:103C5000B67CB67CB67CB67CB67CB69DB67CC6DC43
:103C60005A434A23B619B69DB67DB69DB67DB67D3C
:103C7000B69DB69DB69DB67DAE3B9D97740EB5D9EB
:103C8000A5B79555C6DCBE542120C6BAB638B67C59
:103C9000B6BDB69DB67DB69DB69DB69DB69DB69D8C
:103CA000B69DB69DB69DB69DB69DB69DB69DAE7CA5
:103CB000BEBD6B8C948DA4EE83E9BDD14A645AA538
:103CC0007BA8528452E531E131C249E373865AC47C
:103CD0006B454A4352C752C841E339C3A515530C3B
:103CE00018E36B4C424710A110C2636C52AB31E831
:103CF000BE185B2C2144218408C008A108A008A09C
:103D00003A04008010E153276BA6322110C0004016
:103D100000400060004052A462C83A2321A121A1C2
:103D2000110195337C2EADD7848FADF5A577AE3BD1
:103D3000AE1BB6369533B63CAE3CAE5BAE3BAE5B2F
:103D4000AE5BAE5BAE5CB65CB65CB65CB65CB67CDD
:103D5000B67CB65CB67CB67CB67CB67CB67CBEBCAB
:103D60007B474A02BE18B69CB67DB67DB69DB69D11
:103D7000B69DB67DB67DB69DAE7C95363269BEBF2A
:103D800084D5534B8CB3C6796308BE9BBE9BAE7D76
:103D9000B69DB69DB69DB69DB67DB69DB69DB69DAB
:103DA000B69DB69DB69DB69DB69DB69DB69DB67F99
:103DB00032696BF24A64DEB67389738A298241E400
:103DC000FFFB9D10634829817BE89C6C8C4BBD9068
:103DD0004A4252659CD0636B4A2431634227B6182D
:103DE00018E22100294210C110C231A319033A2858
:103DF000ADB62164214418E342274A8A212300807A
:103E000000801903214400403A454286002000808A
:103E1000008000600080292228E10060322229A36E
:103E200008C0844D52E9BE36842E8468B5D484CF50
:103E3000ADB7638A8C8B8CF2AE3BB63BB65BB65BA0
:103E4000B65BAE3BAE5CB65CAE5BB65CB67CB67CDD
:103E5000B67CB67CBE7CBE7CBE7CBE7CB67CBE9C8A
:103E600062A662A4ADB7B69CB67DB67DB69DB69C83
:103E7000B67DB69DB69DB67DAE7DB69CAE3BB67D9D
:103E80009D98A5B4ADD85B0B948DCF1DB65DB69D46
:103E9000B69DB69DB69DB69DB69DB69DB6BDB69D6A
:103EA000B6BDB69DB69DB69DB69DB69DB69DB6BC3B
:103EB000C69D4B0BB5F6634718E02962946E3161DD
:103EC0004A8521612140736983EC7BA96B66B590BB
:103ED000A51139A45AC84A6563288C6F4A85BDD498
:103EE0009D3442466AE87BAE192319023A272184A1
:103EF00010E208A0192308A008A010C108A000A083
:103F000000000000006000200040002000206BE85E
:103F100008A008C0320108C029C010C000A008A035
:103F200000806B8752C652C84AC6428431C36BC7F1
:103F30006BC89D0D8467BE5AB65BB65BB65BB63B7D
:103F4000B63BB65BB65CB65CB65CB65CB65CB67CE3
:103F5000B67CB67CB67CBE7CBE9CBE9CB69CCEBC01
:103F60005A8562C59D14BE9DBE9DB67CB67CB69C2E
:103F7000B67CB69DB67DB69DB69DB69DB69CBEBEC2
:103F80003A6ACE9CBE799D524A24C6BBB69DB69D68
:103F9000B69DB69DB69DB69DB69DB69DB69DB69D89
:103FA000BEBDBEBDBEBDBEBDBEBDBEBDB69DA5F740
:103FB000326832285B2A21416B29949083EC8C4B28
:103FC00039C35B08422352A57BCC840B94AD4A6471
:103FD000212131844A474A4729656B49840E296467
:103FE00042263184292239C6006031A421421102BF
:103FF00010E108E1194210E10020216408E008A066
:10400000002008A063873A22192163C65343534214
:104010005B65194131E411402A0074291940198166
:10402000196139E05AE6634532032983110042835E
:1040300073C94A644205B63AB65BB65BB65BB65B1B
:10404000B65BB65BB65BB65BB65CB67CB65CB65CC4
:10405000B65CB67CB67CB65CBE7CBE7CB69CC69CB0
:104060005A855A848472BE9DBE9CBE9CBE9DBE9CD9
:10407000B69CB67CB67CB67DB67DB67DB67DB69B6D
:10408000BE9BA5B5B63DBE9D5245D71DB69CB69DFF
:10409000B69DB69DB69DB69DB69DBE9DBEBDB69D58
:1040A000B69DBEBDB69DB69DBEBDBE9DBE9D8CF5EA
:1040B000BE9DD71EB5F5FFBB736AD697FFBA9C8E1F
:1040C000B552A4CF94AD3A02212029A05B0639C293
:1040D000422539834A052963424831A26B09632985
:1040E000292341E539E5422700812964194208A0C6
:1040F000110108C0008032061921320329A108A04D
:104100003200216008E04AC34B22428508A008A083
:104110000060110119402180008008A0112129E2CE
:1041200032246BC53A2342225306214329A429A3F2
:1041300052AA5B473A4584F2B63AB63BB65BB63B09
:10414000B65BB65BB63BB65BB65CB67CB67CB65CC3
:10415000B65CB65CB65CBE7CBE7CBE7CB69BC69CC8
:1041600049E37326632DBEBCBE9CBE9CBE9CB67C40
:10417000B69CB67CB67CB67CB67CB67CB67D84B389
:10418000CEDC8C924B09BEBB41E4CEDCBE7DB67D5D
:10419000B69CB69CB69DB69DBE9DB69DB69DBEBD59
:1041A000BEBDB69DBEBDB69DB69CBE9DBE9DB69D18
:1041B000B69CC6BDB65AFFFCFFBBFFDBDED78C4DFD
:1041C000FFFBF7BA31816327844731C05AE6524674
:1041D00041C441E463090860190429A7294149E65B
:1041E00094F229858C7021233A261922008010E14F
:1041F000006008A032066BEA4AC4320408C063A516
:104200005BA342633A43426400804AC400801921A0
:104210000020002000204263192252E5006019208E
:1042200008E010E010C1296408E010E1192231E52E
:104230004AA87C0E21418472B61ABE7BB63BB65B9F
:10424000B65BB65BB65BB65BB65BB65BB65CB65BE5
:10425000B65BB65BB65BB65CBE7CBE7CBE7BC67C2A
:104260004A24628539E6BE9DB67CBE7BBE7BBE9C81
:10427000BE7BBE9CBE7BBE7BBE9BBE9BBE9BA57514
:10428000C6597C2F94F2BE792985BE39CE9BB65C87
:10429000B67CB69CBE9CB69DBE9CBE9DBE9CBEBD63
:1042A000BE7CC6BCC69BC69CC638CE9BC69BC6BB46
:1042B000C69BCEBCCE9AFFFBFFFBFFFBF7DA7BC8A9
:1042C000BDB04203CE3442233A036B885AC629421A
:1042D00021224A4541C5422742065AC95A885225D9
:1042E00020E221435B0B0880296331E600600080F7
:1042F00019430880008010C100804283194042A405
:1043000011201120530442824B4253635B8500A06D
:10431000004000210060192010C0192019013180CF
:104320001921320229A32983190310E173EA638555
:104330005B46214131E1B6355B29BE39BE5BBE7AB1
:10434000B65ABE7BB63AAE3AB65BB65BB65BB65B08
:10435000B65BB65BB65BB65BBE5CB67CB67BC67C5A
:10436000526549E331E5BE7CC6BCE676DE76E6B84A
:10437000DE97E698E6D8DE77EEF9EED8E6F8E6FACC
:10438000DEB87328DE56A4CF2142CE56F7184A0471
:104390007C2FBE5BBE7DBE9EBE7CC6DEBE9CBE9D2F
:1043A000C6BCFFBBFF9BFFBBFFBBFFBCFFBBFFBB94
:1043B000FFBBFFBBFF9AFFFBFFFBFFFB7BC78C2B09
:1043C0009CAD52C29CCC31605AE8F7188BEB4A2462
:1043D0004A4652656AA8396328E0D635FF5A212239
:1043E00029632142190210E11942192108A008A0ED
:1043F000008008A000A008E042A453272983216080
:1044000042843A815363534508A2114032014B2341
:104410004B0308C00060216210C0006019214A03EC
:104420000840190110C12984426531E421612160ED
:104430002141422729632163320221624AE94AE786
:10444000532942C7530CB63BB63BB63BB65BB65B93
:10445000B65BB65BB65BB65BB65BB65BB67BBE7B8C
:104460004A045A652143BE9CBE5AFFDDFFDDFFFEB4
:10447000F7DEF7DEFFFEFFFEF7DEF7DEF7BDF7BD86
:10448000F79DD6B9F7DDE71A3163DE77AD53A4B0F7
:10449000840D5AC85AC9CEBAC6DBBE7CBE9CBE9D2E
:1044A000BE9CFF9AFFBBFFBBFFBBFFDBFFBBFFBB9D
:1044B000FFBBFFBAF779FFFBF7B983E8DEB5FFFA78
:1044C000A4EE420142016B67DE96840CC5B283897B
:1044D000BD72CDF3D635B552D677D656C5D5E6F9E9
:1044E0007BED11011922194200A0192108C00060BA
:1044F000216410C110C129A3110008A008A05B66A7
:104500003AC33A825BA34B033AA142833A8108C083
:10451000532542C1004008C019003A033A43420003
:104520000060088008A008C108E011005B2710C0E7
:104530002985218408C1192121605B0674093A2666
:104540003A25638B4289BE9BBE7AAE3AB63BB63BF8
:10455000B63BB63BB63BB65BB65BB65BB67ABE7BEC
:104560005A855AA62964B65CBE59D591C52FCD6F20
:10457000C50ECD70D5B1D5AFD56FDDB0DD8FE58F70
:10458000E5CF9BA8DD708B2629837329B50F39C52C
:10459000ACEF7BCB9CF26B25B550CEDBBE7BBE7BFC
:1045A000C69CD698E6B6E6B6DEB6DE96DE96DE7534
:1045B000D675D655DED7FFFA8C2A946AFFFBFFFB2F
:1045C000C5F28C6BB56F41A2DEB5F7599C4DEED6A6
:1045D000838A8BEC8C0C290239846B4B7BAC7BADD2
:1045E0004A667C2E10A0110110E110E121436BAD51
:1045F00008A10040192210C110E010A008C021C07D
:104600003A8308C05BA342A15B4442A308C008C22E
:1046100021814B02534410C042612180216000205F
:10462000006029A23A2418E208A0086042436B8582
:104630004A46190310E152E81900426329A1298270
:1046400052C9422631E46B8A4AC6B618B63AB63A1F
:10465000AE3AB63BB65BB63BB63BB63BB65AB65B7C
:104660004A035A6431C5BE7CAE1BFFFAA570FFFC3D
:10467000FFFCFFFCFFDCFFDCFFFFFFFFFFFEFFFE98
:10468000E6D8FFDEFFFCE71A318383EDEF195A8885
:10469000948E62E762E8840B7BAA7348AD518CB3B9
:1046A0006BCFBE7BFFFBFFDAFFDAFFDAFFBAFFDA80
:1046B000FFDAFFDAFFDA9CEDA52EFFFBC613EF163B
:1046C000FFB9DEB59469AD30BD71D6149C6E838997
:1046D00041A262C7D6978C2EBD73944E946F190178
:1046E00052466B49088010C111221902634B2123E5
:1046F000216452CA422831C508A010E110E00080B0
:10470000530608E042C54AC24AE411003242110091
:1047100063A65BA25BA342C33A6253425BC34AE116
:1047200032407408424331A25B2721605B25632736
:104730004A6652A7296231A24AA510E031E232014D
:104740004A6641E452E55B257BE7944A73A87C0BFB
:10475000A593B617BE59B65BB63BB63AB65ABE5B22
:1047600073277B274A26B63BB67CBE7CFFFFAC286E
:104770006AA28BC7BCA9ED8CFF9CDE76DED8FF3821
:10478000F779E6B59CAF8C0D314242265AC93A06FC
:10479000840E5AC841E3A4ED9C6E948E9CCE9D1568
:1047A000BE15C657FFDBFFFBFFFBFFFBFFFBFFFB5D
:1047B000FFFBFFFBFFFBFFFBFFDBFFFB9CAD9C8CCC
:1047C0006B27FFDA6B46FFFA9C4DB552C5B339A390
:1047D0009CCF39C32121A553738C73ED2143214311
:1047E000B5934A4608A118E208A018E18C9018E198
:1047F00010C13A276B8E08C39D1308A0008000608B
:1048000042A429E421825B03004008E000605B844D
:10481000534563A57C864B2311205BA36C2542C1C5
:1048200042E23202216100601920194008A029618A
:10483000426510C0426273C829A24265190019423C
:1048400031E452A64A8352E54AA352E431A13A41E7
:10485000426352C6B5D69D97BE1AB63BB65AAE3A1B
:1048600062647B275265B63BBE3BADF9FF7B9BE59F
:10487000B3E76AC37AE18C687BCCC5F6C613BDB0DA
:1048800073859C8DAD32C61641C32963948F31C5A3
:1048900041C431434A67634652437349A4EEAD7540
:1048A000946E6308AD0EFFBAFFFBFFFBFFFBFFFB3F
:1048B000FFDBFFDAFFB9C4EEC46CAC6CA4ADD675F7
:1048C000FFB962A5CDD3E696BD72BD9441E529211D
:1048D00041C43141216110E0110110E008A019220A
:1048E00021631122192210C12143006010C1000070
:1048F00039C331C43A09BE5B08C2006008A000A0F9
:104900003A63004000803202320342A342C35B6834
:10491000008008A05B8463C51140538163C34AE2F1
:104920005345296110C021622161190152A718C0A5
:1049300031E410E029A1216131E35B063A231942F9
:1049400029A44AA552E429805B256345424252C40A
:1049500041E25AA47349C69BB63AB63ABDF8BE596D
:104960007B0672C55266C69863C753048CA67C0644
:104970009D4953059C278C489D306BC77C6A6327F3
:10498000A50FA4F06B488C6B524539C36B0A946F2A
:10499000A48E398283AA5A855A669CEFB5F87C4F5B
:1049A000C679D696E716F7DBFFFBFFFBFFFBFFDBC5
:1049B000FFFBFFFBDEB69C2D62A8FF5920A0B5537C
:1049C0009C90630A52474A2662C89490AD535AC9D4
:1049D000840E4A4731A3212239E521221922008081
:1049E000214308C108A0192208A00060086019220C
:1049F000088018C29CF14AAA6BCE31C4216310C151
:104A000008A031E3008029C408C1110000A00061A2
:104A100008A0320353446C05534700A05B85008017
:104A200011023A233A2431C3422518E0214210A151
:104A300008A010C010E0002010E1298342653A244C
:104A40005B064242634542226367424273688C6B55
:104A5000528452A45285A595ADB8B63BBDD6530C31
:104A600072E67B066AE484677C469D079CEB4A609D
:104A70006BC67C6641C05240EF3973AA6B4A42252F
:104A800041E373AA632941E67B8B41E26B4B2984A6
:104A900083AB7BCC5AA74A255205842D73ED9D54D8
:104AA000C67BF7BCFFFBFFFBFFFBFFFBFFFBFFDB56
:104AB000FFFBFFFBFFFAA48D5AC9FFDAF758BD527E
:104AC000420694D1B594B552CE35AD12632B5AEA55
:104AD000842F31647BCD29432963214308C00080A2
:104AE00008A008A000400880006008A129A418C1FF
:104AF00008A0A4F26AC58C2E4A6810A0086008A11C
:104B000031E608C000801922004011011101004067
:104B1000216208C000601940006042A52A00428658
:104B200008A031A331840020296439E518E200602F
:104B300010E1194231C34A8608A0112221833A2488
:104B40003A2163664A8252C3530531C152856328B4
:104B50004A6529804265214173CBB619B5956B6DC5
:104B60006265626362C43200848829E131E029E031
:104B70004AE35284948CAD704A8373AA7C4A846B56
:104B8000A54FD6D77389CE555AA75A66A532736BEF
:104B90007B6A8C2E946E6B288C0C73889D0F8CB363
:104BA000BE7BEF7CFFDBFFFBFFFBFFFBFFDBF7FBCD
:104BB000FFFBFFDAF7DAE6D54206FFB9FF79CDD47D
:104BC000BD944A27AD536B4BBD935A875AA8A51283
:104BD0008C2F94705288294310C0214208A010E104
:104BE00008C108C008A010E108A0088010E2006019
:104BF000110108A018E01860106010E110A000403A
:104C0000218429C3198108C1002000600060006070
:104C10000080088008A074094B0463E53AA05B8318
:104C200008C04227B5D32123088031C508A04A888F
:104C3000216308800000088108803A24006029A0D0
:104C400042225B263A223A02424339E252A53A0313
:104C50004A4539A13A225B0573057284BCCE7B4676
:104C6000736783466AE5740921604A845B274A8436
:104C700019003A026B864A85322342646B495B070E
:104C8000634773C78C6CDED86B6A316283ED9C4FCF
:104C9000BD72940E942D7BAC83CD738B9D31A59604
:104CA000BE7ADEDAFFFBFFDBFFFBFFFBFFFBFFFA59
:104CB000FFDAEF18FF79FF5941E5FFB9FFBADE3699
:104CC000DE77BDB4A4D1524741C5B552AD53840E71
:104CD000840E94B06B6B298310C021631942214369
:104CE00008A1110108A010E108C008A031C508A062
:104CF0003A2608C0088049E3212110C0088008A096
:104D000008C0112108E0190239E510C10060002037
:104D10000060088008C0110053423A6063E65360A7
:104D20004B02214229835AC81921004010C000407B
:104D300008A0004018E30060004010C22142424435
:104D40004243428252C431E142634A8452C552A571
:104D50004A2473678C6C7BC9D677F77AFFBB7324C0
:104D6000836493E873056BA842424A8294AC424044
:104D700063443A424A8429A3212021412140A5517C
:104D8000B5D4948FCE76E6D763084183946F7B8A3F
:104D900073699C6F8C0D942E7BCC73AEB5B7BE3A05
:104DA000BE3ABE17FFDAFFDBFFFBFFFBFFFBFFDABC
:104DB000FFDAEEF7CD92EED7E6B7F779E696B55281
:104DC000B553ACF1ACF2A4B1A51262C96B2A630A67
:104DD00039E43A0519011922212308A100403A06B5
:104DE00010C108A0004019236B8C29850080008029
:104DF00008C008C010E118A01901088021430880EC
:104E0000006010E110E1212129A408A00040004029
:104E10000060002019204B2342C008C019604B02DB
:104E20004B200060086031A331A410A02963192130
:104E3000214219220881006008800020004031A42E
:104E40006B8831C131A1190029804A8431E131A236
:104E50005AC67BA8630752C594AFD6D8F79B52A514
:104E60008B478B666AE463466B84214042625B43F6
:104E700053029D0D4224C6568BCA08C0218029C109
:104E80005B064244AD52DE776AC672E78C0E8C2E0A
:104E90009C8FA511944DA4B183EEBE1AC639BE18DD
:104EA000C639BE39FFFBFFDAFFDBFFDBFFDAFFDAD3
:104EB000FFBAEF18D5F4D636D5F4EED7C5B3B5534F
:104EC000AD33BD94BD74AD13A4D1DE76944E39A438
:104ED0005AC831A342266B8C212373AE39E61903DD
:104EE00010C110C1214308A131E610C208A1192345
:104EF000216308A0110210A0088018E1008008A119
:104F000010E1192218E05287008000400080006004
:104F1000008021431901088042816366112042A666
:104F20005BA518E010A018C031C4296231C221610C
:104F30002121212131E2218410E2218100206367B7
:104F40005B0631A14A852961214039E33A02424496
:104F500031A131A06305AC4B6A84C4EED54FBCEEE1
:104F60008B868B866AC45AC36BC83A2229813A035E
:104F7000214029A16BA77B87944A73E853065AE521
:104F8000A48A9C495A62AC4949A26A646A44940C56
:104F90009C4E8BCD9450940EA46FACB183CC9CB13D
:104FA000C5F79CF3DEB5DE95E6D6F758F799F79985
:104FB000F779E6B6F738CDF4C593E697CDF4BD5250
:104FC000D615B532CDF5AD11A511D615B5327BADDF
:104FD00039E5296310A129A4212339E631C52144EB
:104FE0004AA939E60860088021431902212352A901
:104FF000190210E110E108A008A010C110E110C0D2
:10500000216310E02162006008E108C1008108C14D
:1050100008800080004031E49D694B0253432180A9
:1050200008A010E03A0342022160006018E118E095
:1050300010C0214029A1210031A1212108A0216017
:105040002981296129604A8552E442443A023A02A0
:1050500073C84AA36B877BA87BAAFF9AF7DCDED7CD
:105060009C098B86628442204AA17C47216029A149
:105070004283320231C28C2C63079CEE6B8763261D
:1050800063267386C653E6F64A4441C27B0759E558
:105090006A456A45726583699C4E52677309B5110A
:1050A000B5318C4FFFDAFF79EF38F758F758EF3703
:1050B000EF17E6B6D5F3BD51ACF0C593BD52EE96F1
:1050C000DE34F717E674D5F39CAF9C4EB4F120C0E4
:1050D000842E0880192218E210A14227632B29A5EB
:1050E000190208A1004010E108C110A04A88422717
:1050F000216310E1008008C10880086008A008A0B2
:1051000010C02161192018E110E00060192300602F
:1051100000200080006000605B666C045BA36BE4B1
:1051200019203A431900088031C219003A426BA98C
:105130001100190119023A01084021A1192129A3DE
:10514000192142044223420252844A63420242032A
:105150006327424329A05AC4FFBDCE34CE34A4AE47
:1051600083458B8662A408C03A03216131C33A04A7
:1051700029A019212183428519203204950D7C0B29
:10518000CE746328630773CA524639C36B0A6B69CE
:1051900041E45267526741E5398431848C4E83CCB7
:1051A000940D7B6AFFDAFFFBFFDAFFDAFFDAE6D65F
:1051B000FFDAFF79FF79DE55E676B552BD52FF384A
:1051C000FF79FF99EEF7B4F0A4F1B511E676C5B317
:1051D0004A6729A4112200A008A00060088008A145
:1051E000088108802984004011222122190208A088
:1051F00008C108A0006008A0088008800880088016
:1052000008A0088018E12942210108A110E2428685
:10521000004010E20060006042E16BC85B8284875E
:10522000A56E218129A252C610E029825AE9216186
:1052300010C010E108A019421101218208C01942D2
:1052400010E008C018E039E352C641E263075AA5EE
:1052500031C1422331E25A646287DE56DEB8BD2F87
:10526000A449AC6973054264320232042182110000
:1052700021621942216221624AC808C0426631C3D4
:1052800029813A237C0B4AA64A2541C3842C946D7C
:10529000AC6B7309932893AA9C6F29015A247B094C
:1052A000834A838AFFFCFFDAFFBAFFDAFF99D6133D
:1052B000E676C552EE76D5B3C573B512B532D615BE
:1052C000E676DE35CDF4C5B4B4F1CD93DE14D63533
:1052D00052C718E1008008C00880008000A000A02C
:1052E000006010C108A00880110129A408A0006076
:1052F000006010E108A0088000600860088010A02D
:1053000010C131A339A321014225192321423A04B6
:1053100000200040006019433A4419037C6473C4C0
:10532000636600603A05190108C04246212219212E
:10533000190110C0192208C010E108A008C008A077
:1053400010C111005A444A855A65528463066B287D
:105350005AE64A23A58F51A16AA7CE34B5B3CDD161
:105360009C079C0873053A033A2429C2190010E0EF
:105370008CAF52A773CA5AC92984110231E5296436
:1053800031C542465AE96349524539825AC8634792
:105390005AA73164840C3963ACD039629BA9830766
:1053A000416241A2F7BAFFDAFFDAFFDAFFDAE6D6A6
:1053B000F758FF59F6F77B6B7B8CC594AD12AD1196
:1053C000B532A4F1A4F1ACD193ED9C6D5A85318333
:1053D000194110E108E108A008C108A1110108C1A4
:1053E00010E108C108C108C110E110E1008000808F
:1053F00008A00080008008A008A0088008A018C1AC
:1054000010A018A018E01901192108A110C10880E6
:105410000060008021A51922088108A032014264A1
:10542000004008E010E1006019204A8531C331E4F2
:105430005B09006008A1192211010080192210A146
:105440006B6C53296A064204830A41E25285626604
:1054500062E6734741A242024264948EBDF57B89A5
:10546000B4898B458BC931C2322331C231C221414B
:105470003A026B686B8A190131C531C621834246F5
:10548000528829844A678C8D8B666AC552C6A50DE1
:1054900052858BCB9C4E9C4DCD6F62236A436A2212
:1054A0006A8451C2FFFBFFDBFFDAFFDAFFDAFFBAE3
:1054B000FFDAFF58CDB28BED2943C593B532B51253
:1054C000A4B1B512B532A4B04A67214331C418E182
:1054D00000A008A000A008C108A110E208E108C1CE
:1054E00008C1006008A100A10040006000600060E9
:1054F00008A1006000600060008010C110C110A110
:10550000086010C108A0194108C1294310A000A0DB
:10551000112208A1218432223A05320008C05B48DA
:105520003A2308A00040218208C0192119410880AF
:10553000214210C210A0218308A029A5E73A94B106
:10554000AD9431E4BCB0726872687267E5B4412210
:10555000C511622649832900BDF48C4E634B83EB51
:10556000AC689C07838610E03A027C0B426431A34E
:105570004A843A221940110110E210E029A4632C58
:105580006B4B42058C8E4AA4AC4983874A8752A64E
:10559000738983CB9C4E83ABFF99FF98FFB9F67656
:1055A000F738E6D8DED7F79AFFDAFFDAFFDAFF79C5
:1055B000E695FF38B4CEC5102943AC8EC5B3B511FE
:1055C000BD52A4D09CB0B511C592ACD0BD938C2E69
:1055D000212108C1192308C108A108A008C0008022
:1055E0002143008008A1008000400060006000604E
:1055F00000400060006000600040088008A010C10A
:105600001080008008C108A008E018E1426521630D
:1056100029A321A22A0232020040004010E01921F1
:105620002180190221030881008019211942088074
:105630006B8C94915AE929C48BAB39E4AD32C656D0
:105640007BACA4D0938D832C6A2861E6CCF130A08A
:105650008348A46CDE117306A4F27C0E7C2F3141CA
:10566000B4A99C0783A731C35AE6842C31C14AA54B
:1056700029C13A025B496BAC1102426631C473CB5B
:105680008C8F5B09636A4A64B469836752A98C0D85
:1056900041E48BCB9C6E8C0CFFBAFFD9C634C5326B
:1056A000D655B531D675F799FFDAFFDAFFDAFFB9CB
:1056B000F717AC8D9C0BAC4E0020A48EEEB7C572D4
:1056C000CDB3ACD1AD12BD72B531C5B3C5D49CB0AC
:1056D000B59418E2214300A000800080192208C17F
:1056E0000080004000200040002008810080006011
:1056F0000040004000400060004000600060088002
:105700000880088008A0008000A008A010E000A089
:1057100008C021A1322108A021420060008008A019
:105720005B281902210219021080192210E110C110
:1057300010E0A513DE97AD73DD129C904A278C4EC6
:105740009CCF8C6E6269520759E759A5CCF2308123
:105750008B486A83BD2C94084A054A8973EE734BC3
:10576000ACA993C67B464AA642845B483A032960AB
:1057700094AEB5D47BED634A31A452A831A44A88D3
:105780005B0A842F840F5266AC288347630A83CB5D
:105790007B8A62A78BAB9C8DFFB9FFDAFFFCBCF163
:1057A000FFBBFFBBFFDAFFDAFFDAFFDAFFDAFFB990
:1057B000FF99DE54A46DBCEF6B098BCAD5F4DE35BE
:1057C000BD52BD52ACD1A490ACF19C8F9C6F944F54
:1057D0008C2F5AA908A008C02163112221830080C0
:1057E00008C00080088000600080008000400060E9
:1057F0000060006000400040006000600040006009
:1058000000600860088008C100601101196408A0E8
:10581000322329E11120112110E0004000200880EE
:10582000110018E22103212318E252C9006010E19F
:105830001101634B3A078C0D698518E2290308A012
:1058400008A010E14A074A265164496482EA2060B0
:1058500082E85A42CD4DB4CC62E541E14A874246E6
:10586000B4898B8683A71901636952C873CB8C6C8A
:10587000B570BD91AD5162E852884A677BEC52A881
:105880006B4D73AF52C941E5BCA97B068C0D7B699A
:105890009C4D9C2C940CA46DFFB9FFB9FFDBA4D0E8
:1058A000EF39FFDBFFB9FFDAF7DAFFB9E651FFDACC
:1058B000FFB9FFB9FFB9FF79E674EEB6BD51C55126
:1058C000D5D3D5F3B511ACD0BD52B512942F8C2FD2
:1058D0008C0E6B8C42471101008000600080112209
:1058E000112208A10080006008A100600040008033
:1058F00008C108A000A0216308C108C100600060C1
:10590000002000800060004008C0110329C308A0E7
:1059100032023A81322408A01921194231E408C028
:105920005B435AA862E8948E73889C8BC5B0A48AA6
:1059300083C68BC693E772C4DCAE51A2622320A05B
:10594000294062409368BCF0CC90B40EBC70AC2E81
:105950009369ACCBD58E6A81A48B49E14A246B6BE9
:10596000A427B4CA83A619014A843A044A666AE89D
:10597000F6F8D6346B08DEB7736B73AB73ACA4AFB9
:10598000BD7283EC8C4F62C8C4EC8B6852667B4856
:10599000940B93A99BEA8BA9FF78FF57EF19942EDC
:1059A000E6D8F758FFB9FFDAFFB8FF7ABD2EFF57E8
:1059B000DE54EED7E696CDB3E635C552CDB2EEB69F
:1059C000FF59DE54EEB7A4AFB5529C6F944F944F7D
:1059D0009C90947041C508C008C008C110E1110234
:1059E00008C008E010E100A008C008A00060008026
:1059F00008C1008000A000800080006008C108A1EC
:105A000000400080008008A00080322631E410E1D0
:105A100011014AE7008008A00060006000601101E9
:105A20001100112208E010E01101110119011941C2
:105A300019821961192031E0DD302120C58F82E300
:105A4000BCC98AE37A45C532E5B5BC70DDB5DDB3C6
:105A500028C0EEF652007B037B659C2931404A65E5
:105A6000AC07BCEB9C0842445B2729C2320321608F
:105A70004AA463664AA442643A043A037BCB73693E
:105A80005AC363455B257327B489732742054A448B
:105A900041A3392152046A85E635CD72A5114A47E2
:105AA0009C8FB4F0FF58FFB9FFFACDF48C0CDE13D5
:105AB00093898349BD31C572CDB3C593EEB7DE3549
:105AC000BD51A48FA4909C70944E9C8F944F8C2EAB
:105AD000944F7B8C7BCD08A011011101110108E1CD
