:020000040800F2
:10000000380500200101000871200008091E0008C1
:100010006D20000849010008A92100080000000027
:10002000000000000000000000000000792000082F
:100030004D01000800000000752000087D20000828
:100040001B0100081B0100081B0100081B01000820
:100050001B0100081B0100081B0100081B01000810
:100060001B0100081B0100081B0100081B01000800
:100070001B0100081B0100081B0100081B010008F0
:100080001B0100081B0100081B0100081B010008E0
:100090001B0100081B0100081B0100081B010008D0
:1000A0001B0100081B0100081B0100081B010008C0
:1000B000852000081B0100081B0100081B01000827
:1000C0001B0100081B0100081B0100081B010008A0
:1000D0001B0100081B0100089D2100081B010008EE
:1000E0001B0100081B0100081B010008DFF80CD0F1
:1000F00000F018F800480047CD210008380500201E
:100100000648804706480047FEE7FEE7FEE7FEE7B1
:10011000FEE7FEE7FEE7FEE7FEE7FEE781200008D8
:10012000ED000008064C074D06E0E06840F00103D2
:1001300094E8070098471034AC42F6D3FFF7DAFF93
:10014000D4220008F4220008FEE7000070470000F7
:10015000EFF3108072B600BFFEE70000014690F892
:100160002100022816D10868D1E90FC3026822F0E5
:100170000E020260026822F001020260012000FA11
:1001800003F2CCF8042081F821000020002281F83D
:1001900020207047042088630120002281F820205D
:1001A0007047000080B590F82110022924D1026820
:1001B000116821F00E0111602F211368C4F20201B1
:1001C0008A4240F20401C4F2020123F001031360E9
:1001D00016DD3023C4F202039A421DD04423C4F238
:1001E00002039A421CD05823C4F202039A421DD142
:1001F0004FF4803322E000BF04218163012080BDE1
:100200000823C4F202039A420ED01C23C4F2020354
:100210009A420BD1102311E04FF480730EE000BF1F
:100220004FF480530AE000BF012307E001F1680C9E
:100230004FF08073624508BF4FF480130B600121BB
:1002400080F82110426B002180F820100AB19047FD
:100250000021084680BD0000B0B5044600F02CF92E
:10026000054640F20400C2F200000078611C18BF8D
:10027000044400BF00F020F9401BA042FAD3B0BDF7
:100280002DE9F04F82B00E68002E00F0038141F29C
:100290000042C4F20102042340F2004E904208BF23
:1002A00003234FF6FF7CC4F2010E009300240123C8
:1002B000C1F2100C4FF0000A4FF0000949E000BFF6
:1002C000012704F00C030F229A402BEA020207FADE
:1002D00003F34FEA9A051A4346F82520D1F804B0F3
:1002E00040F20C455FEACB22DEF8082054BF22EA38
:1002F000080242EA0802C4F20105CEF808202A6882
:100300005FEA8B2354BF22EA080242EA08022A600D
:100310005FEA8B33DEF8042054BF22EA080242EA87
:1003200008025FEACB33CEF80420DEF800204FF05D
:10033000010354BF22EA080242EA0802CEF8002074
:100340000E680AF1010A36FA0AF204F1040400F018
:10035000A18003FA0AF816EA080FF1D04E68664544
:1003600012DC122E56D8DFE806F0350B45495555FC
:1003700055555555555555555555554D510000BF79
:10038000D1F80C9046E000BF4FF6FF72C1F2210297
:1003900096420FDC0022C1F2110296421AD00022CE
:1003A000C1F21202964215D00022C1F221029642F9
:1003B00010D02FE00022C1F2220296420AD0002281
:1003C000C1F23102964205D00022C1F232029642B9
:1003D00020D100BF8A684AB1012A14BFC0F8148036
:1003E000C0F810804FF0080914E000BF4FF0040976
:1003F00010E000BFCA6802F108090BE04FF00009E5
:1004000008E000BFCA6802F1040903E0CA6802F10B
:100410000C0900BF22460646BAF1080F24BF203A55
:10042000043637680F25954027EA050509FA02F2D8
:100430002A433260CA79D2067FF582AF41F21803AF
:10044000C4F202031A68AEF57E7642F001021A6029
:100450001A6802F001020192019A2AF0030256F88A
:1004600002B040F60002C4F20102904210D040F601
:100470000042C4F2010290423FF422AF41F2000276
:10048000C4F20102009F904208BF022719E700BF93
:10049000002716E702B0BDE8F08F0000C26802EA4C
:1004A0000103914341EA034101617047002A08BFFB
:1004B000090401617047000040F23010C2F20000F0
:1004C0000068704740F2040040F23011C2F20000B0
:1004D000C2F2000100780A6810440860704700000A
:1004E00080B542F20000C4F20200016841F0100140
:1004F0000160032000F08EF80F2000F005F800F0F6
:1005000027F8002080BD000070B540F20406C2F25A
:10051000000640F20C013278C2F200014FF47A7307
:100520000968B3FBF2F20446B1FBF2F1084600F0B1
:1005300063FB0F2C4FF0010508D838B94FF0FF309E
:1005400021460022002500F039F87460284670BD6D
:1005500082B041F21800C4F202000168022241F0A8
:1005600001010160016801F00101019101994168F7
:1005700041F080514160406800F080500090009848
:100580000420C4F20100016862F31A61016002B044
:1005900070470000002848BF7047C1B200F01F003C
:1005A000012202FA00F04EF20012CEF2000242EAFC
:1005B000D10121F0030108607047000010B54EF62C
:1005C0000C5CCEF2000CDCF80030C3F3022E8EF08F
:1005D0000704042C28BF0424BEF103034FF0FF3EA0
:1005E0000EFA04F438BF0023A14399400EFA03F336
:1005F0009A43114300F00F0200F160430901043AED
:1006000003F564436244002848BF02F10C031970EB
:1006100010BD00004EF60C51CEF200010A684FF6F4
:10062000FF031A4060F30A2242F0806040F0FD7040
:10063000086070472DE9F04381B0002800F0858004
:1006400042F20008C4F202080446D8F800000D4641
:1006500000F0070088420CD2D8F8000020F0070014
:100660002843C8F80000D8F8000000F00700A842AE
:100670006BD1206841F204098107C4F2020917D541
:10068000410705D5D9F8001041F4E061C9F8001020
:10069000010705D5D9F8001041F46051C9F80010E0
:1006A000D9F80010A26821F0F0011143C9F8001038
:1006B000C00741D1D8F8000000F00700A8420CD9CB
:1006C000D8F8000020F007002843C8F80000D8F848
:1006D000000000F00700A84237D12068410707D585
:1006E000D9F80010E26821F4E0611143C9F8001064
:1006F000000708D5D9F80000216920F4605040EACD
:10070000C100C9F80000D9F8002002F00C00082848
:1007100041F20020C0F27A0050D142F2C223C2F36B
:100720008341C0F60003595CD2033BD440F600106D
:10073000C0F23D00484341E0606802280AD0012829
:100740002AD159F8041C890308D4012001B0BDE85E
:10075000F08300BF59F8041C8901F6D5D9F80010C0
:1007600021F003010843C9F80000FFF7A5FE064683
:1007700041F28837D9F80000616800F00C00B0EB56
:10078000810F97D0FFF798FE801BB842F2D9032063
:1007900001B0BDE8F08300BF59F8041C8907D4D527
:1007A000DCE700BFD9F8002042F2C023C2F3404288
:1007B000C0F600039A5C4843B0FBF2F0D9F8001091
:1007C00042F2A822C1F30311C0F60002515C40F2CC
:1007D0000C0220FA01F140F20800C2F200000068A9
:1007E000C2F200021160FFF78FFE002001B0BDE8E9
:1007F000F083000040F20C0041F20401C2F200005C
:10080000C4F202010068096842F2B822C1F3022171
:10081000C0F60002515CC8407047000040F20C0076
:1008200041F20401C2F20000C4F20201006809684A
:1008300042F2B822C1F3C221C0F60002515CC840A6
:10084000704700002DE9F04182B0002868D00446CE
:10085000007841F20006C007C4F2020625D0706895
:1008600000F00C0004281BD0706800F00C00082871
:1008700002D17068C00313D46068002800F068815A
:10088000B0F5A02F00F07C81B0F5803F00F07C81B6
:10089000306820F480303060306820F4802076E1C9
:1008A0003068800301D56068D0B32078800718D500
:1008B000706810F00C0F07D0706800F00C0008286A
:1008C0006ED17068C0036BD43068800702D5206990
:1008D000012825D13068616920F0F80040EAC100A4
:1008E0003060207800071FD42078400732D4E569B3
:1008F00095B1706800F00C00082840F08F80012D41
:100900000ED07068216A00F480328A4208D1616A90
:1009100000F47010884203D1002002B0BDE8F081DD
:10092000012002B0BDE8F081A069002862D000205B
:10093000C4F242200121C0F88014FFF7BDFD054636
:10094000706A800700F18C80FFF7B6FD401B02281B
:10095000F6D92AE1F06910F0805808D1F06940F02A
:100960008050F061F06900F080500090009847F2EC
:100970000007C4F200073868C00529D4386840F47D
:1009800080703860FFF798FD054600BF3868C005E5
:100990001ED4FFF791FD401B6428F7D905E100BF85
:1009A0002069002840F20000C4F2422000F082805A
:1009B00001210160FFF780FD054600BF3068800718
:1009C0003FF588AFFFF778FD401B0228F6D9ECE031
:1009D000E068002800F08080052800F0978001285A
:1009E00000F09880306A20F001003062306A20F018
:1009F000040092E00020C4F242200021C0F88014DC
:100A0000FFF75AFD054600BF706A80077FF56CAF9F
:100A1000FFF752FD401B0228F6D9C6E00027C4F2BA
:100A2000422700203866FFF747FD022D05460BD10F
:100A30003068800140F1BE80FFF73EFD401B022878
:100A40004FF00300F4D968E7306880017FF564AFA8
:100A5000FFF732FD401B02284FF00300F4D95CE79A
:100A600040F20C00C2F20000006844F6D351C1F21B
:100A70006201A0FB0101480A019000BF00BF01987C
:100A8000411E002801913FF42FAF00BF0198411E85
:100A9000002801913FF428AF00BF0198411E0028B3
:100AA00001913FF421AF00BF0198411E0028019140
:100AB000E4D119E700210160FFF7FEFC054600BF05
:100AC000306880077FF50DAFFFF7F6FC401B02286A
:100AD0004FF00300F4D920E7306A20F001003062C3
:100AE000306A20F004003062FFF7E6FC054641F270
:100AF000883700BF306A800720D5FFF7DDFC401B38
:100B0000B8424FF00300F5D907E700BF306A40F064
:100B100004003062306A40F001003062FFF7CCFC24
:100B2000054641F2883700BF306A800706D4FFF7D8
:100B3000C3FC401BB842F7D937E000BFB8F1000F43
:100B40007FF4D5AEF06920F08050F061CFE600BFB1
:100B5000306820F480303060306820F480203060CD
:100B6000FFF7AAFC054600BF306880037FF59DAE05
:100B7000FFF7A2FC401B64284FF00300F4D9CCE639
:100B8000306840F480203060306840F4803030605D
:100B9000FFF792FC054600BF306880033FF585AE45
:100BA000FFF78AFC401B6428F6D9032002B0BDE899
:100BB000F08100BF206AB0F5803F05D17168A2685E
:100BC00021F40031114371607168626A21F474117B
:100BD00011430843706001203866FFF76DFC04463E
:100BE000306880013FF598AEFFF766FC001B0228D5
:100BF0004FF00300F4D990E6411E0020B0EB116FD6
:100C00001CBF012070474EF21002CEF2000251606C
:100C10004EF62351CEF20001F0230B7007219060B5
:100C200011607047704700007047000010B590F8E1
:100C30003C20012A4FF0020233D080F83D200268A8
:100C4000D2F804E0D2F808C00C682EF070032343F9
:100C500040F2FF74C4F20004A24253600ADCB2F115
:100C6000804F13D040F20043C4F200039A420DD0EB
:100C700011E000BF42F60043C4F201039A4205D0DE
:100C800040F60003C4F200039A4204D149682CF0F4
:100C90008003194391600121002280F83D1080F803
:100CA0003C20104610BD0000002804BF0120704702
:100CB00010B5044690F83D0028B9002084F83C00A7
:100CC000204600F067F8022084F83D00206840F2DA
:100CD000FF730268C4F2000342F6004C9842C4F26B
:100CE000010C15DCB0F1804F1AD040F20041C4F283
:100CF0000001884214D0984218DCB0F1804F1DD01A
:100D000040F20041C4F20001884217D01AE000BF4F
:100D1000604505D040F60001C4F200018842EAD1E6
:100D2000A16822F070020A439842E6DD604505D0D2
:100D300040F60001C4F20001884203D1216922F487
:100D400040720A43A36922F08001D4F804E0E2680B
:100D5000194360450160C262C0F828E002D16169B0
:100D6000CCF8301001214161002084F8461084F84D
:100D70003E1084F83F1084F8401084F8411084F845
:100D8000421084F8431084F8441084F8451084F825
:100D90003D1010BD80B582B00068B0F1804F1CBF1F
:100DA00002B080BD41F21C00C4F2020001680022C2
:100DB00041F0010101600068002100F00100019094
:100DC00001981C20FFF7FAFB1C2002B0BDE8804010
:100DD000FFF7E0BB80B590F83C20012A4FF00202FB
:100DE00000F0C28080F83D20D0F800C04FF6777246
:100DF000DCF8083023EA0202CCF808200B684F2BFD
:100E000028DC1F2B44DD202B45D0302B43D0402B3A
:100E100040F0AC80D1F804E0C968DCF82030DCF8A0
:100E2000202022F00102CCF82020DCF8182022F04B
:100E3000F00242EA011123F00A0242EA0E02CCF863
:100E40001810CCF82020DCF8081041F0470121F000
:100E5000300180E06F2B27DDB3F5005F48D0B3F59C
:100E6000805F7AD0702B40F08180D1E901E3C968BE
:100E7000DCF8082043EA0E0322F47F4243EA012112
:100E80001143CCF80810DCF8081041F0770162E05B
:100E90000BB1102B6AD1DCF8081021F07001194356
:100EA00041F0070157E000BF502B35D0602B5DD1DA
:100EB000D1F804E0C968DCF82030DCF8202022F00A
:100EC0001002CCF82020DCF8182022F4704242EA0C
:100ED000013123F0A00242EA0E12CCF81810CCF82F
:100EE0002020DCF8081041F0670121F0100132E009
:100EF000D1E901E3C968DCF8082043EA0E0322F4D3
:100F00007F4243EA01211143CCF80810DCF80810B5
:100F100041F480411FE000BFD1F804E0C968DCF86B
:100F20002030DCF8202022F00102CCF82020DCF870
:100F3000182022F0F00242EA011123F00A0242EAEC
:100F40000E02CCF81810CCF82020DCF8081041F084
:100F5000570121F02001CCF808100022012180F86F
:100F60003D10002180F83C10104680BD0122F5E7BD
:100F70007047000010B5016804460869800744BF47
:100F8000C8685FEA807039D40869400744BFC86800
:100F90005FEA40703ED40869000744BFC8685FEA52
:100FA000007045D40869C00644BFC8685FEAC060E5
:100FB0004AD40869C0071CBFC8685FEAC07051D135
:100FC0000869000644BFC8685FEA006052D4086937
:100FD000400644BFC8685FEA406053D40869800691
:100FE00046BFC8685FEA806010BD6FF020022046EF
:100FF0000A61BDE81040FFF717BE00BF6FF00200A6
:101000000861012020778869800743D02046FFF7D8
:10101000AFFF45E06FF00400086102202077886987
:1010200010F4407F40D02046FFF7A2FF42E000BF0F
:101030006FF00800086104202077C86980073DD060
:101040002046FFF795FF3FE06FF010000861082091
:101050002077C86910F4407F3AD02046FFF788FF18
:101060003CE000BF6FF001000861204600F0D4F9B9
:101070002168A5E76FF0800008612046FFF7D2FDE8
:101080002168A4E76FF040000861204600F0D6F91F
:101090002168A3E7204600F025F8204600F0BAF9C1
:1010A0002168002020776FE7204600F01BF82046DB
:1010B00000F0B0F92168002020776CE7204600F0AE
:1010C00011F8204600F0A6F921680020207769E792
:1010D000204600F007F8204600F09CF92168002027
:1010E000207766E7704700002DE9F04390F83C3028
:1010F000012B04BF0220BDE8F0834FEAB202032AAD
:101100003CD8DFE802F0034381BD00BF036842F62C
:1011100000461D6A1A6AC4F2010622F001021A6230
:101120001A465C6852F818CFB3428E68D1F800E0D6
:1011300025F0020545EA06050CD1CE68D1E905780F
:1011400024F4407425F00C0526F004063C43354396
:1011500044EA08042CF0730747EA0E075C609F61BD
:101160004F6809695F631D629F6947F008079F61C7
:101170009F6927F004079F61B2E000BF01210022B0
:1011800080F83C200846BDE8F08300BF036842F6C3
:1011900000461D6A1A6AC4F2010622F010021A62A1
:1011A0001A46D3F804C052F8184FB3428E68D1F8EB
:1011B00000E025F0200545EA061510D1CE68D1E9FA
:1011C000058725F0C0096FF0400505EA06152CF4E7
:1011D000406647EA080745EA090546EA870C24F411
:1011E000E64444EA0E27C3F804C09F614F680969CA
:1011F0009F631D629F6947F400679F619F6927F4A1
:1012000080679F616BE000BF036842F600461D6A7D
:101210001A6AC4F2010622F480721A621A46D3F8DE
:1012200004C052F81CEFB3428E680C6825F40075B8
:1012300045EA062511D1CE68D1E9058725F4406934
:10124000360240F2FF4526EA05052CF4405647EAEF
:10125000080745EA090546EA071C2EF073072743ED
:10126000C3F804C0DF614F680969DF631D62DF698D
:1012700047F00807DF61DF6927F00407DF612FE02F
:10128000036842F60047D3F820C01A6AC4F2010787
:1012900022F480521A621A465C6852F81C5FD1F838
:1012A00000E08E68BB4204D14F6924F4804444EAD4
:1012B00087142CF4005747EA063725F4E64646EA39
:1012C0000E265C60DE614E6809691E641F62DF697C
:1012D00047F40067DF61DF6927F48067DF61090297
:1012E0001368194311600021002280F83C20084651
:1012F000BDE8F083002804BF0120704710B5044604
:1013000090F83D0028B9002084F83C00204600F009
:1013100067F8022084F83D00206840F2FF730268FD
:10132000C4F2000342F6004C9842C4F2010C15DCF2
:10133000B0F1804F1AD040F20041C4F2000188425F
:1013400014D0984218DCB0F1804F1DD040F200411B
:10135000C4F20001884217D01AE000BF604505D0F2
:1013600040F60001C4F200018842EAD1A16822F0EF
:1013700070020A439842E6DD604505D040F6000160
:10138000C4F20001884203D1216922F440720A4369
:10139000A36922F08001D4F804E0E26819436045B3
:1013A0000160C262C0F828E002D16169CCF8301057
:1013B00001214161002084F8461084F83E1084F831
:1013C0003F1084F8401084F8411084F8421084F8EB
:1013D000431084F8441084F8451084F83D1010BD83
:1013E00081B0006840F60001C4F20001884201D0DB
:1013F00001B0704741F21C00C4F20200016841F0E4
:1014000004010160006800F004000090009801B041
:10141000704700007047000040F21001C2F2000166
:1014200000680968884218BF704741F20000C4F2A2
:1014300001004FF40051FFF731B800007047000081
:101440007047000070470000B0B582B004460068E5
:101450000168C368426901F02F05202D03F02005C3
:1014600006D12DB1204602B0BDE8B04000F016BE56
:101470005FEA017C1EBF02F0010E03F4907212EBD2
:101480000E0253D1226B012A05D111F0100218BFB0
:1014900013F0100236D10A0622D513F080021FD0B5
:1014A00094F8411021293FD1A168B1F5805F03D1A3
:1014B0002169002900F07082216A4A1C22620978A1
:1014C0004160E18C01390A04E1842DD1C16821F029
:1014D0008001C160C16841F04001C16002B0B0BD8F
:1014E000490621D513F040011ED0C16821F040010A
:1014F000C1602021204684F8411002B0BDE8B04010
:1015000000F080BC002101910168019141680191C6
:1015100001994069400613D4A08DE18DE28D002A27
:1015200018BF884240F0BA8102B0B0BDCA0718BFE8
:1015300013F4807240F0B6804A0700F1B980BEE033
:10154000E06B016849688AB2002AEDD0A38D9A4207
:10155000EAD2E1858069202800F09C80206850E86C
:10156000030F216820F4807041E80302DAB120689B
:1015700050E8030F216820F4807041E8030292B123
:10158000206850E8030F216820F4807041E80302CE
:101590004AB1206850E8030F216820F4807041E8C8
:1015A0000302002ADAD1206850E8050F216820F0F4
:1015B000010041E80502DAB1206850E8050F216812
:1015C00020F0010041E8050292B1206850E8050FC3
:1015D000216820F0010041E805024AB1206850E886
:1015E000050F216820F0010041E80502002ADAD148
:1015F000206850E8050F216820F0400041E805020E
:10160000DAB1206850E8050F216820F0400041E879
:10161000050292B1206850E8050F216820F04000D3
:1016200041E805024AB1206850E8050F216820F022
:10163000400041E80502002ADAD1202084F8420067
:1016400000202063206850E8030F216820F010007C
:1016500041E80302DAB1206850E8030F216820F066
:10166000100041E8030292B1206850E8030F21689E
:1016700020F0100041E803024AB1206850E8030F4F
:10168000216820F0100041E80302002ADAD1E06B63
:10169000FEF764FD02206063A08DE18D401A81B2E7
:1016A000204674E1626C42F0010262644A0706D58A
:1016B000BEF1000F03D0626C42F0020262648A073E
:1016C00006D5BEF1000F03D0626C42F004026264E2
:1016D000BCF1000F09D545EA0E02B2FA82F25209B6
:1016E00003D1626C42F008026264626C002A3FF42B
:1016F0001BAF11F0200118BF002D03D0204600F0D1
:10170000CDFC20684069616C00F0400001F00801E8
:10171000401800F0B58000BF206850E8030F216832
:1017200020F4907041E80302BAB3206850E8030F38
:10173000216820F4907041E8030272B3206850E8F9
:10174000030F216820F4907041E803022AB3206857
:1017500050E8030F216820F4907041E80302002A4A
:10176000DAD11AE0206850E8050F216820F0010066
:1017700041E80502DAB1206850E8050F216820F041
:10178000010041E8050292B1206850E8050F216888
:1017900020F0010041E805024AB1206850E8050F39
:1017A000216820F0010041E80502002ADAD1206B0F
:1017B000012824D1206850E8030F216820F0100090
:1017C00041E80302DAB1206850E8030F216820F0F5
:1017D000100041E8030292B1206850E8030F21682D
:1017E00020F0100041E803024AB1206850E8030FDE
:1017F000216820F0100041E80302002ADAD12020FD
:1018000084F84200002020632068406940063FD5EC
:10181000206850E8050F216820F0400041E80502EB
:10182000DAB1206850E8050F216820F0400041E857
:10183000050292B1206850E8050F216820F04000B1
:1018400041E805024AB1206850E8050F216820F000
:10185000400041E80502002ADAD1E06BC0B142F253
:101860009101C0F600014163FEF79CFC00283FF4A3
:101870005BAEE06B416B02B0BDE8B040084700BF13
:101880002046FFF7DFFD0020606402B0B0BD00BF5E
:10189000204602B0BDE8B040FFF7D4BD401A216831
:1018A00051E8031F226821F4907142E80313DBB171
:1018B000216851E8031F226821F4907142E8031364
:1018C00093B1216851E8031F226821F4907142E826
:1018D00003134BB1216851E8031F226821F4907172
:1018E00042E80313002BDAD1216851E8051F226872
:1018F00021F0010142E80513DBB1216851E8051F21
:10190000226821F0010142E8051393B1216851E8F2
:10191000051F226821F0010142E805134BB121683F
:1019200051E8051F226821F0010142E80513002B50
:10193000DAD1202184F8421000212163216851E886
:10194000031F226821F0100142E80313DBB1216874
:1019500051E8031F226821F0100142E8031393B1FC
:10196000216851E8031F226821F0100142E80313A7
:101970004BB1216851E8031F226821F0100142E8B1
:101980000313002BDAD1022281B22046626302B037
:10199000BDE8B040FFF754BD216A31F8022B6FF368
:1019A0005F22426021628CE5002804BF012070475D
:1019B00010B5044690F8410028B9002084F8400092
:1019C000204600F063F8242084F841002068D4E920
:1019D0000212C36823F40053C360036923F4405325
:1019E0001A430261D4E904231143C268194341F246
:1019F0000C639A431143C1604169A26921F44071AB
:101A0000114343F60002C4F201029042416103D047
:101A1000FEF7F0FE02E000BFFEF700FF626819214A
:101A200048439100B0FBF1F048F21F51C5F2EB11B1
:101A3000A0FB01235A094FF69C73C0F6FF7302FB0B
:101A40000300322303EB0010A0FB0101F02303EAA3
:101A50005113206803EB0212C1F34311114481605A
:101A6000016921F490410161416921F02A0141613C
:101A7000C16841F40051C16000202021606484F8F5
:101A8000411084F84210606310BD000070B586B04C
:101A9000006844F20041C4F2000100268842059625
:101AA000CDE90366029637D043F60001C4F2010186
:101AB000884266D141F21800C4F20200016840F683
:101AC000000441F4804101600168C4F2010401F4A2
:101AD000804101910199016802AD41F0040101606A
:101AE0000068294600F00400019001984FF400704E
:101AF000029002200390032005902046FEF7C0FBD1
:101B00004FF4806002900020CDE903002046294672
:101B1000FEF7B6FB06B070BD41F21800C4F2020039
:101B2000416840F6000441F4003141604168C4F26C
:101B3000010401F4003101910199016802AD41F005
:101B4000040101600068294600F00400019001983A
:101B50000420029002200390032005902046FEF707
:101B60008FFB0820CDE90206204629460496FEF7A1
:101B700087FB262000210022FEF720FD2620FEF70D
:101B800009FD06B070BD0000704700002DE9F0436C
:101B900081B0044690F84100202840F0B18088468A
:101BA00000294FF0010000F0D6801646002A00F010
:101BB000D2800020606421201D4684F84100FEF799
:101BC0007BFCA684E684A1680646B1F5805F03D15C
:101BD0002069002800F0988047464FF00008E18C0B
:101BE0002068002900F0968005F101090BE000BF94
:101BF00047B317F8011B4160E18C0139E184E18CA6
:101C0000002900F0878001680906F1D4B9F1000FBE
:101C10000AD0EDB1FEF750FC801BA84218D820680E
:101C200001680906F6D5E3E701680906E0D4016812
:101C300009065CBF01685FEA0161D9D40168090641
:101C4000F2D5D5E738F8021B00276FF35F21D2E702
:101C5000206850E8030F216820F4D07041E80302A7
:101C6000BAB3206850E8030F216820F4D07041E82F
:101C7000030272B3206850E8030F216820F4D0708B
:101C800041E803022AB3206850E8030F216820F4DA
:101C9000D07041E80302002ADAD11AE0206850E847
:101CA000050F216820F0010041E80502DAB1206843
:101CB00050E8050F216820F0010041E8050292B1CB
:101CC000206850E8050F216820F0010041E8050276
:101CD0004AB1206850E8050F216820F0010041E872
:101CE0000502002ADAD1202084F8410084F842005D
:101CF000002084F84000032001B0BDE8F08300BF5D
:101D0000022001B0BDE8F0830027E18C20680029A3
:101D10007FF46AAF0168490619D4FDB1691C0DD181
:101D20000168490613D4016849065CBF01685FEA8F
:101D300041610CD401684906F2D508E0FEF7BCFB0E
:101D4000801BA8420AD8206800684006F6D52020EB
:101D500084F84100002001B0BDE8F083206850E81D
:101D6000030F216820F4D07041E80302002A3ED01E
:101D7000206850E8030F216820F4D07041E8030286
:101D8000AAB3206850E8030F216820F4D07041E81E
:101D9000030262B3206850E8030F216820F4D0707A
:101DA00041E80302002AD9D121E000BF206850E8B1
:101DB000050F216820F0010041E80502002A3FF4E8
:101DC00092AF206850E8050F216820F0010041E83B
:101DD0000502002A3FF487AF206850E8050F21680C
:101DE00020F0010041E80502002A3FF47CAF2068A2
:101DF00050E8050F216820F0010041E80502002AA3
:101E0000D4D170E770470000FEE700002DE9F047ED
:101E100084B041F21800C4F20200016840F6004AA2
:101E200041F0100101600168C4F2010A01F01001E3
:101E30000091009901680AF5806541F02001016078
:101E40000168002201F020010091009901684FF41F
:101E5000005641F00401016001684FF0000901F0F3
:101E6000040100910099016841F0080101600068D7
:101E70004FF4005100F00800009000982846FEF74B
:101E800015FB50464FF4004100224FF40048FEF786
:101E90000DFB00966E460127022428463146CDE907
:101EA00001790394FEF7ECF950463146CDE90087FD
:101EB000CDE90294FEF7E4F904B0BDE8F087000034
:101EC00080B586B040F210000021C2F200004FF051
:101ED000804241F61F434FF0640C0591CDE9031198
:101EE000CDE90011C0E90023C0E9021C0161816154
:101EF000FEF7DAFE002818BFFEF72AF94FF48050EB
:101F0000029040F21000C2F2000002A9FEF762FF48
:101F1000002818BFFEF71CF940F21000C2F20000C2
:101F20006946FEF783FE002818BFFEF711F906B0D8
:101F300080BD000070B590B040F6000540F258003A
:101F4000C4F200050021C2F2000040F2E73240F284
:101F5000CF73CDE90811CDE90611CDE90411C0E92F
:101F60000052C0E9021301618161FFF7C3F9002843
:101F700018BFFEF7EDF840F25800C2F2000008A9C1
:101F8000FEF754FE002818BFFEF7E2F840F25804AE
:101F90006020C2F200040190002601A920460C2214
:101FA000CDE902660596FFF79FF8002818BFFEF7F7
:101FB000CFF820680E96A84202D010B070BD00BFC6
:101FC00041F21800C4F20200016841F0080101600A
:101FD00000680CA900F008000B900B984FF40070FB
:101FE0000C9002200D900F9005F58230FEF748F915
:101FF00010B070BD80B540F2A00043F60001C2F2FF
:102000000000C4F2010100234FF00C0C4FF4E13248
:1020100080E80E00C0E90333C0E905C3C361FFF7E0
:10202000C3FC002808BF80BDBDE88040FEF790B823
:1020300080B540F2E80044F20041C2F20000C4F270
:10204000000100234FF00C0C4FF4E13280E80E0049
:10205000C0E90333C0E905C3C361FFF7A5FC00284D
:1020600008BF80BDBDE88040FEF772B8FEE7000003
:10207000FEE700007047000070470000FEF722BA3C
:102080007047000040F21000C2F20000FEF772BF7D
:10209000406A0021C185C184FFF7D4B981B090F8AE
:1020A0004210222921D183680246B3F5805F09D10D
:1020B00052F8281F52F8183C002B63D003685B6865
:1020C0000AE000BF52F8281F13B90369002BF5D0AE
:1020D00003685B6803F07F030B70116801311160C6
:1020E000C18D01390A04C18502D001B0704700BF1B
:1020F0000168CA6822F02002CA60CA6822F48072AD
:10210000CA604A6922F001024A61202180F8421027
:1021100000214163026B012A3CD10163016851E84F
:10212000031F026821F0100142E80313DBB10168CC
:1021300051E8031F026821F0100142E8031393B134
:10214000016851E8031F026821F0100142E80313FF
:102150004BB1016851E8031F026821F0100142E809
:102160000313002BDAD101680A68D20606D50022D3
:1021700000920A680092496800910099818D01B02F
:10218000FFF75EB9026852686FF35F2221F8022BF5
:102190008162A5E701B0FFF7F7BC000040F2E8005C
:1021A000C2F20000FFF750B9FEE7000080B582B030
:1021B000019040F2A000C2F2000001A901224FF0FC
:1021C000FF33FFF7E3FC019802B080BD90B0FEF74B
:1021D00087F900240120CDE90B44CDE9094406909C
:1021E0000A904FF4E0104FF4803102250F9006A8BA
:1021F000CDE90714CDE90D51FEF724FB20B1EFF333
:10220000108072B6FEE700BF0F20CDE901054FF444
:102210008060CDE9040401A802210394FEF70AFAC4
:1022200020B1EFF3108072B6FEE700BFFFF7EEFDBE
:10223000FFF746FEFFF77EFEFFF7DCFEFFF7F8FE36
:1022400004A400BF204600F01DF84FF47A70FEF79A
:1022500003F8F7E768656C6C6F2C776F726C640D30
:102260000000000002E008C8121F08C1002AFAD1CD
:1022700070477047002001E001C1121F002AFBD106
:102280007047000010B5044601E0FFF78FFF14F817
:10229000010B04490028F8D1BDE810400A20FFF7DF
:1022A00085BF0000000000200000000000000000CA
:1022B00001020304060708090000000001020304EC
:1022C000010202030405060708090A0B0C0D0E0F94
:1022D00010100000F822000800000020100000008C
:1022E00064220008082300081000002028050000D0
:1022F000742200080000000000000000010000003F
:08230000100000000024F400AD
:04000005080000ED02
:00000001FF
