:020000040800F2
:10000000F805002005010008272600088B1C0008C1
:1000100025260008050A0008B9290008000000008C
:100020000000000000000000000000006926000839
:10003000070A000800000000292600086B260008B7
:100040001F0100081F0100081F0100081F01000810
:100050001F0100081F0100081F0100081F01000800
:100060001F0100081F0100081F0100081F010008F0
:100070001F0100081F0100081F0100081F010008E0
:100080001F0100081F0100081F0100081F010008D0
:100090001F0100081F0100081F0100081F010008C0
:1000A0001F0100081F0100081F0100081F010008B0
:1000B0001F0100081F0100081F0100081F010008A0
:1000C0001F0100081F0100081F0100081F01000890
:1000D0001F0100081F0100081F0100081F01000880
:1000E0001F0100081F0100081F010008DFF810D0E1
:1000F00000F076FC0048004775370008AFF3008039
:10010000F80500200648804706480047FEE7FEE75E
:10011000FEE7FEE7FEE7FEE7FEE7FEE7FEE7FEE7B7
:10012000CD260008ED000008202A04DB203A21FA41
:1001300002F00021704721FA02F3D040C2F1200200
:100140009140084319467047D2B201E000F8012BF4
:10015000491EFBD270470022F6E710B513460A4647
:1001600004461946FFF7F0FF204610BDF0B480EAC0
:100170000102D40F4200B2EB410F02D20246084600
:1001800011464A0042D0C30DDDB2C1F3C752AD1AC9
:10019000202D35DAC1F3160141F4000204B15242B8
:1001A000C5F1200602FA06F12A411044B3EBD05FF4
:1001B00023D0C4B1012DA0EBC35009DCF0BC4FF03B
:1001C000004202EAC352DBB200F5000000F013BBAC
:1001D000400000F1807000EBC350A0F1807040EA55
:1001E000D170490009E0490841EAC071A0EBC35051
:1001F00000F50000400800EBC350F0BC00F0F2BA7C
:100200006142012202EB4101001BF6E7F0BC70479E
:1002100081F00041AAE780F00040A7E730B480EA0F
:10022000010202F0004530F0004221F0004013D0FE
:1002300090B1C30DD40DC2F31601C0F31600E41A39
:1002400041F4000140F400027D34914201D3641C6A
:1002500000E04900002C02DA30BC002070474FF467
:1002600000000023914201D3891A034340084FEA5A
:100270004101F7D151B1914202D14FF0004105E067
:1002800002D24FF0010101E06FF0010103EBC45015
:10029000284430BC00F0A6BA2DE9FE4F804681EA22
:1002A0000300C00F0C46009021F0004123F00045F0
:1002B000B8EB0200A94105D24046214690461C46B3
:1002C0000B46024623F00040104347D0270DC7F3EA
:1002D0000A00C3F30A510290401A019040286BDAD9
:1002E000C3F3130040F4801B0098924620B1002312
:1002F000D2EB030A63EB0B0B01985946C0F14002A5
:10030000504600F04EFA06460D4650465946019AB0
:1003100000F056FA10EB08006141002487EA115200
:1003200084EAE7731A4340D0009A62B3019A012A23
:100330004FEA075215DC001B61EB02014FF000424F
:1003400002EA0752CDE90042001C41F58011324615
:100350002B4600F08DFA03B0BDE8F08F40462146F1
:10036000F9E7001B61EB0201001C41F58013001846
:100370005B412018A2F5001747EB030140EAD57056
:10038000B6196D4111E06D084FEA360645EAC075B1
:100390004FEA0752001B61EB0201001C41F580117E
:1003A00049084FEA30000019514132462B4603B04C
:1003B000BDE8F04F00F04DBA009801224000002344
:1003C000D0EB020263EBE073009821464FEAE07441
:1003D000B8EB000061EB0401E9E783F000435BE761
:1003E00081F0004158E72DE9FE4F81EA030404F053
:1003F000004421F0004100944FF0000B23F0004333
:1004000050EA01045ED052EA03045BD0C3F30A54FD
:10041000C1F30A552C44A4F2F3340194A0FB025416
:10042000C1F3130141F48011C3F3130343F48013A8
:1004300001FB024400FB034E840A970A44EA8154FC
:1004400047EA8357A4FB076802958D0A05FB0785D9
:100450004FEA932C04FB0C542705029D4FEA0658E3
:1004600047EA1637B5EB08056EEB070C870E920EC0
:1004700047EA811742EA8312A7FB0201B6EB0B01A0
:1004800064EB00042B0D43EA0C335E1844EB1C5064
:10049000DA465146E7FB0201C5F313044FEA0B337A
:1004A00043EA14534FEA0432019C43EA0603A4F1E1
:1004B0000C040294009CCDE900B400F0D9F903B01B
:1004C000BDE8F08F00200146F9E72DE9F04D81EA03
:1004D000030404F0004B21F0004514464FF0000ADD
:1004E00023F0004150EA050220D054EA01021DD059
:1004F000C5F30A570246C5F31303C1F31300C1F352
:100500000A5640F4801543F48013A7EB0608101B2D
:10051000D64608F2FD3873EB050002D308F1010856
:1005200001E092185B41B8F1000F03DA00200146A8
:10053000BDE8F08D00204FF48011064684460EE0A1
:10054000171B73EB050705D3121B63EB050306436B
:100550004CEA010C49084FEA300092185B4150EA1E
:100560000107EDD152EA030012D082EA040083EAC7
:100570000501084305D0101BAB4106D20122002320
:1005800006E000224FF0004302E06FF0010253103A
:100590001AEB06004CEB085110EB0A0041EB0B0183
:1005A000BDE8F04D00F055B970B521F000430343AC
:1005B0000CD0C1F30A550024D5EB040564EB040309
:1005C000D617AD1AB34102DB0020014670BD2018DA
:1005D00041EB025170BDC10F80EAE0700844CA07C8
:1005E0009623002100F007B90EB5C10F80EAE07034
:1005F0000844CA07002140F233438DE80E000A4642
:100600000B4600F035F903B000BD0EB540F23341A2
:1006100002910021CDE900110A460B4600F028F9AD
:1006200003B000BDC1F30A5210B5C1F3130140F28B
:10063000FF3341F480119A4201DA002010BD40F2EC
:1006400033439A42A2F2334203DC5242FFF76CFD7D
:1006500010BD904010BD00F0004230F000400AD0C4
:10066000C10D01F56071C0F3160042EA0151C208E4
:1006700040071143704700200146704730B5041E03
:1006800071F1000404DB4FF00044404264EB0101CF
:10069000141E73F1000405DB1C464FF00043524268
:1006A00063EB04038B4208BF824230BD30B5041EA9
:1006B00071F1000404DB4FF00044404264EB01019F
:1006C000141E73F1000405DB1C464FF00043524238
:1006D00063EB0403994208BF904230BD01F0004330
:1006E00030B421F0004150EA010206D00A0DA2F513
:1006F0006072C1F31301002A02DC30BC0020704795
:10070000440F44EAC104C100E01830BC00EBC25001
:1007100000F068B830B50B460146002020220124C5
:1007200009E021FA02F59D4205D303FA02F5491BBF
:1007300004FA02F52844151EA2F10102F1DC30BDD5
:100740002DE9F05F0546002092469B468846064606
:10075000814640241BE02846414647462246FFF793
:10076000E3FC53465A46C01A914110D3114618462D
:10077000224600F016F82D1A67EB01084F46224674
:100780000120002100F00DF817EB00094E41201E5A
:10079000A4F10104DFDC484631462A464346BDE861
:1007A000F09F202A04DB203A00FA02F10020704773
:1007B0009140C2F1200320FA03F31943904070479F
:1007C000202A06DBCB17203A41FA02F043EAE07315
:1007D00006E041FA02F3D040C2F120029140084302
:1007E000194670470029A8BF7047401C490008BF40
:1007F00020F00100704710B4B0FA80FC00FA0CF051
:1008000050EA010404BF10BC704749B1CCF1200488
:1008100021FA04F411FA0CF118BF01212143084315
:10082000A3EB0C01CB1D4FEA00614FEA102042BF41
:10083000002010BC704700EBC35010440029A4BF37
:1008400010BC7047401C490008BF20F0010010BCDC
:10085000704710B5141E73F1000408DA401C41F112
:10086000000192185B411A4301D120F0010010BD34
:100870002DE9F04D92469B4611B1B1FA81F202E0AA
:10088000B0FA80F220329046FFF78BFF04460F4605
:1008900040EA0A0041EA0B0153465A46084313D086
:1008A000114653EA010019D0C8F140025046FFF743
:1008B0003BFC05460E46504659464246FFF771FF3F
:1008C000084305D0012004E020463946BDE8F08DFC
:1008D0000020054346EAE0762C4337430A98630537
:1008E000E40AA0EB08000022FD0A44EA47540A305B
:1008F00002D500200146E9E7010510196941DDE94B
:10090000084500196941BDE8F04DA2E72DE9F04D19
:1009100000231A461B1A8A4103DB00200146BDE86A
:10092000F08DC1F30A52C1F3130141F480154FF069
:10093000000BD10702D100186D41521E002704465A
:1009400040F2FF11384601EB620A3E4680460246FD
:1009500000204FF48011FFF7E7FBC2197141BB186B
:1009600046EB0100B4EB030C75EB000C04D3E41A66
:1009700065EB000517460E46241908F101006D418C
:1009800080463428E3DDF91946EB0600091BA8412F
:1009900003D24FF0FF32134601E0002213461BEB57
:1009A000070046EB0A51BDE8F04DFFF752BFC1F317
:1009B0000A52C1F3130140F2FF3341F480119A420D
:1009C00002DA00200146704740F233439A42A2F215
:1009D000334202DC5242FFF7A7BBFFF7E2BE000042
:1009E000064C074D06E0E06840F0010394E807007C
:1009F00098471034AC42F6D3FFF77CFB98390008D7
:100A0000B8390008FEE7704772B6FEE72DE9F74FE8
:100A10004FF000088B468246474646462249234807
:100A200001F02CFC204D00244FF47A791E491F4818
:100A300001F024FC4046FFF70EFED5E90A23FFF73C
:100A40002BFCFFF74BFE80463846FFF704FED5E946
:100A50000C23FFF721FCFFF741FE07463046FFF766
:100A6000FAFDD5E90E23FFF717FCFFF737FE064620
:100A7000012000F01FF8641C4C45D7DB0C4C4046AD
:100A80002146FFF7CBFBCAF8000021463846FFF7A6
:100A9000C5FBCBF8000021463046FFF7BFFB0299AB
:100AA0000860BDE8FE8F0000C00000201801002093
:100AB00000007A4470B5044600F004F90546601C55
:100AC00002D004480078044400F0FCF8401BA04227
:100AD000FAD370BDA80000202DE9F84FDFF8B891D7
:100AE000002409F1040A0AF1040B23460F270BF135
:100AF000040EC9E00125A5402A40AA427DD1674ED7
:100B0000D1F804C0ACEB0608B44532D014DCBCF11B
:100B1000030F3AD009DCBCF1000F2AD0BCF1010F61
:100B20001CD0BCF1020F31D11DE0BCF1110F17D068
:100B3000BCF1120F2AD119E0B8F5881F19D006DCD4
:100B4000B8F5803F15D0B8F5801F1FD111E0B8F57A
:100B5000001F0ED0B8F5041F18D10AE0CB6815E0CD
:100B6000CB681B1D12E0CB6808330FE0CB680C3359
:100B70000CE08B682BB1012B4FF0080303D04561CB
:100B800004E0042302E0056100E00023FF2A01D80D
:100B9000064601E000F104064FEA840501D9A5F1FB
:100BA0002005D6F8008007FA05FC28EA0C0803FAAD
:100BB00005F548EA0508C6F800804D68ED0062D5E5
:100BC000374DAE6946F00106AE61AD6924F003060B
:100BD00005F001050095334D06EB050CDCF80850D7
:100BE000A607360F07FA06F825EA0805DFF8B880E9
:100BF000404503D14FF0000817E044E0DFF8AC8037
:100C0000404502D14FF001080FE0DFF8A4804045D5
:100C100002D14FF0020808E0DFF89880404502D189
:100C20004FF0030801E04FF0040808FA06F848EA1C
:100C30000508CCF808804D68D9F80060ED034D46F2
:100C400001D5164300E096432E604D68DAF8006047
:100C5000AD03554601D5164300E096432E604D681E
:100C6000DBF80060ED025D4601D5164300E09643D7
:100C70002E604D68DEF80060AD02754601D5164362
:100C800000E096432E60641C0D682A46E5407FF420
:100C900031AFBDE8F88F00000004014000001110E2
:100CA000001002400000014000080140000C01401B
:100CB00000100140001401400AB1016170470904AD
:100CC000FBE700000148806870470000A800002092
:100CD00070B5040025D094F83D00002520B984F8B3
:100CE0003C50204600F078FA242084F83D0020682B
:100CF000016821F0010101602068016841F40041B0
:100D000001602068016821F40041016000F0B4FB3B
:100D10004D4A6168914201D84C4900E04C498842F3
:100D200001D2012070BD4B492368B0FBF1F15E6830
:100D300026F03F060E435E606368934206D94FF487
:100D4000967359434FF47A73B1FBF3F12368491C4E
:100D50001E6A26F03F06314319626168914210D83D
:100D60004900401EB0FBF1F2521CC2F30B02042AF0
:100D700001D2042022E0B0FBF1F0401CC0F30B00D4
:100D80001CE0A268F2B301EBC10303EB0116431EA2
:100D9000B3FBF6F35B1C43F480431B0549D092B3CD
:100DA00001EBC10202EB0111401EB0FBF1F0401C4F
:100DB000C0F30B0040F4804040F400402168CA6951
:100DC0004CF6FF739A431043C861D4E907100143FE
:100DD0002068026822F0C00211430160D4E90301D7
:100DE00001432068826848F2FF339A4311438160CF
:100DF000D4E9050108432168CA6822F0FF021043C4
:100E0000C86001E00EE016E02068016841F00101D1
:100E100001602564202084F83D00256384F83E505D
:100E2000002070BD01EB4106431EB3FBF6F35B1CD3
:100E3000B3E70120C2E701EB4101401EB0FBF1F036
:100E4000401CC0F30B00B7E7A086010080841E00A1
:100E500000093D0040420F002DE9FF4F83B00025FF
:100E6000DDE910799A4693460446DDF848800095FE
:100E7000FFF728FF064694F83D0020287CD119236F
:100E8000012285492046009601F010F80028F5D18E
:100E900094F83C0001286FD0012084F83C002068C1
:100EA0000168C90703D1016841F0010101602068B0
:100EB000016821F400610160222084F83D00402097
:100EC00084F83E0025646762A4F82A90608D20852E
:100ED0007248E062CDE9008653465A46204604999E
:100EE00000F0ECFE00287DD1208DDFF8B4912027A2
:100EF00068B1012814D00228206801681ED041F48E
:100F0000806101602068416980690090B6E02068D6
:100F1000416981690091016841F400710160ADE0AF
:100F20002068016821F48061016072B6206841691F
:100F300081690091016841F400710AE041F40061A7
:100F4000016072B62068416981690091016821F4ED
:100F50008061016062B691E0032868D801280CD056
:100F6000022843464FF000024946204600960FD023
:100F700000F09CFFB0BB10E08BE0324641462046BB
:100F800001F013F870BB20680069616A08706CE0BA
:100F900000F08CFF30BB72B634E02068016821F4A9
:100FA0008061016072B620680069616A0870606AD9
:100FB000401C6062208D401E2085608D401E608533
:100FC000384846F2A8110068B0FBF1F0C0EBC00051
:100FD00000EB80000090401E009008D0206840691F
:100FE000C04300E029E040070CD50098F3E744F83F
:100FF000305F6773A573206940F02000206162B6FE
:1010000025731AE02068016841F4007101602068CE
:101010000069616A0870606A401C6062218D491E27
:101020002185618D491E618562B621681BE03246CB
:101030004146204600F0B9FF18B1012007B0BDE8D5
:10104000F08F20680069616A0870606A401C606205
:10105000218D491E2185618D491E618521684A695E
:10106000D24352070AD409690170606A401C606269
:10107000208D401E2085608D401E6085208D0028BB
:101080007FF46AAF84F83D7084F83E5084F83C5099
:10109000D4E70220D2E70000020010000000FFFFAA
:1010A00004000100B40000202DE9FF4F83B09A46F0
:1010B000DDE9119793460446DDF84080FFF702FE14
:1010C000054694F83D0020287FD11923012240498C
:1010D0002046009500F0EAFE002876D194F83C0006
:1010E000012872D0012084F83C0020680168C907FB
:1010F00003D1016841F0010101602068016821F419
:1011000000610160212084F83D00402084F83E0009
:1011100000262664C4F82480A4F82A90608D2085D7
:101120002C48E062CDE9007553465A4620460499A2
:1011300000F042FE70B930E02A463946204600F001
:1011400067FF58B1206C042804D12068016841F47D
:1011500000710160012007B0BDE8F08F606A21686E
:1011600000780861606A401C6062218D491E89B266
:101170002185628D521E628522685369DB435B07BD
:101180000BD469B100781061606A401C6062208DE8
:10119000401E2085608D401E6085208D0028CBD1AB
:1011A0002A463946204600F05BFE0028CAD154F892
:1011B0003D0B016841F400710160202004F81E0914
:1011C000E67766770020C6E7FFE70220C3E7000066
:1011D000020010000000FFFF10B586B00021009152
:1011E0000191029103910068104988421BD1104C73
:1011F000A06940F00800A061A069694600F00800FD
:1012000004904FF44060009012200190032003905E
:101210000848FFF761FCE06940F48000E061E069A4
:1012200000F48000049006B010BD0000005800409B
:1012300000100240000C014002488168027811440D
:1012400081607047A8000020074810B5016841F090
:1012500010010160032000F067F80F2000F006F88D
:1012600000F024F8002010BD0020024070B50D4DA4
:1012700004464FF47A712878B1FBF0F00A49096806
:10128000B1FBF0F000F0DEFA48B9102C07D20022D2
:101290002146501E00F028F800206C6070BD01202F
:1012A00070BD0000A8000020B40000200C4808B564
:1012B000816941F001018161816901F001010091C1
:1012C000C16941F08051C161C06900F08050009057
:1012D0000448416821F0E06141F00071416008BDBF
:1012E0000010024000000140F0B40E4B1B680C4699
:1012F000C3F30223C3F10705042D00D90425191DEA
:10130000072901D2002300E0DB1E012606FA05F1C1
:10131000491E214099409E40761E16403143F0BC44
:1013200001F070BB0CED00E0064900F00702086810
:101330004FF6FF03184040EA0220034A10430860BA
:10134000704700000CED00E00000FA052DE9F047C1
:101350000F46050061D0434E306800F00700B842E8
:1013600009D2306820F0070038433060306800F060
:101370000700B84251D128683B4C810712D540077D
:1013800003D5606840F4E06060602878000703D50A
:10139000606840F4605060606068A96820F0F00008
:1013A000084360602878C00728D06868012810D0FA
:1013B0002168022810D0890700292EDA616821F0FF
:1013C000030101436160FFF77DFC804641F28839EB
:1013D0000DE021688903EFE78901EDE7FFF772FC73
:1013E000A0EB0801494502D90320BDE8F0876068F9
:1013F000696800F00C00B0EB810FEFD1306800F0AD
:101400000700B8420BD9306820F00700384330603D
:10141000306800F00700B84201D00120E5E72878E5
:10142000400705D56068E96820F4E0600843606023
:101430002878000706D56068296920F4605040EAE2
:10144000C100606000F038F86168084AC1F3031118
:10145000515CC8400649086006480068FFF706FF6F
:101460000020C2E70020024000100240E0380008DF
:10147000B4000020AC000020044805490068496819
:10148000044AC1F30221515CC8407047B4000020F7
:1014900000100240F0380008044805490068496817
:1014A000044AC1F3C221515CC8407047B400002017
:1014B00000100240F038000812A185B00FC98DE875
:1014C0000F0014A0144A006804905168134801F0FA
:1014D0000C03042B10D0082B0ED1C1F38343C90396
:1014E0001DF803000AD5516804AAC1F34041515CBC
:1014F0000A4A5043B0FBF1F005B070470849484331
:10150000FAE7000002030405060708090A0B0C0DA0
:101510000E0F1010010200000010024000127A00AD
:1015200000093D002DE9F84F040070D02078C04D2F
:10153000C00749D06868C0F38100012807D06868F7
:10154000C0F38100022809D16868C00306D5286865
:10155000800339D560680028E7D035E06068B0F5D1
:10156000803F0BD010B1B0F5A02F11D0286820F427
:1015700080302860286820F4802002E0286840F449
:1015800080302860606890B1FFF79CFB06460AE057
:10159000286840F480202860F0E700BFFFF792FB46
:1015A000801B642873D828688003F7D50CE0FFF708
:1015B00089FB064605E000BFFFF784FB801B64281B
:1015C000F0D828688003F7D420789A4E80074FF02F
:1015D00001094FF0000839D5686810F00C0F07D0EA
:1015E0006868C0F38100022809D16868C00306D486
:1015F0002868800714D52069012808D110E02069E7
:10160000B0B1C6F80090FFF75DFB074605E00AE1C0
:10161000FFF758FBC01B0228C4D828688007F7D5FD
:101620002868616920F0F80040EAC10028600DE0F8
:10163000C6F80080FFF746FB074604E0FFF742FBD1
:10164000C01B022823D828688007F7D42078000719
:101650002CD57948A169D9B1C0F80090FFF732FBC9
:10166000074604E0FFF72EFBC01B02280FD8686A6C
:101670008007F7D571484FF4FA510068B0FBF1F0DC
:10168000009000BF0098411E0091FAD20EE080E069
:10169000C0F80080FFF716FB074604E0FFF712FBD7
:1016A000C01B022875D8686A8007F7D420784007E5
:1016B00060D5E8690027C00008D4E86940F0805090
:1016C000E861E869012700F0805000905C480168FB
:1016D000C90513D40168834641F480710160FFF7A6
:1016E000F1FA824606E000BFFFF7ECFAA0EB0A0031
:1016F00064284ED8DBF80000C005F5D5E068012865
:101700000AD008B1052813D0286A20F00100286209
:10171000286A20F0040002E0286A40F001002862F4
:10172000E06841F2883B98B1FFF7CCFA82460BE0C3
:10173000286A40F004002862EEE700BFFFF7C2FA13
:10174000A0EB0A0159455AD8286A8007F6D50CE063
:10175000FFF7B8FA824605E0FFF7B4FAA0EB0A01FA
:1017600059454CD8286A8007F6D41FB1E86920F0A3
:101770008050E861E06988B36968C1F3810102299A
:1017800044D00228C6F8608004D0FFF79BFA0446D4
:1017900038E034E0FFF796FA074604E0FFF792FAE4
:1017A000C01B02282BD828688001F7D4206AB0F526
:1017B000803F05D16868A16820F400300843686064
:1017C000D4E908010843696821F47411084368608A
:1017D000C6F86090FFF776FA044606E025E000BF01
:1017E000FFF770FA001B022809D828688001F7D596
:1017F0001BE000BFFFF766FA001B022802D9032096
:10180000BDE8F88F28688001F4D40EE00128F7D0F5
:101810006868226A00F48031914204D1616A00F460
:101820007010884201D00120EAE70020E8E70000BC
:10183000001002400000424280044242B4000020F6
:101840000070004010B5401EB0F1807F01D3012030
:1018500010BD4FF0E02460610F21601701F0D2F855
:101860000020A06107202061002010BD70B590F815
:101870003C20012A26D0012480F83C40022280F836
:101880003D2003685A689D6822F070060A6832435A
:101890005A600D4B02689A4208D0B2F1804F05D0D1
:1018A0000A4B9A4202D00A4B9A4204D1496825F069
:1018B00080031943916080F83D40002180F83C107E
:1018C000084670BD022070BD002C0140000400409D
:1018D0000008004000B585B00021009101910291FF
:1018E000039100680B49884212D10B48816941F08D
:1018F000080181618069694600F0080004904FF496
:10190000007000900220019003900448FFF7E4F873
:1019100005B000BD0008004000100240000C01406E
:1019200070B5044690F83C000D4601280AD001200D
:1019300084F83C0042B1042A18D0082A2AD00C2A84
:101940004DD139E0022070BD206800F005FF20680D
:10195000816941F0080181612068816921F00401F9
:101960008161206881692A69114311E0206800F0D3
:101970001BFF2068816941F40061816120688169F1
:1019800021F480618161206881692A6941EA02212C
:10199000816124E0206800F033FF2068C16941F0D4
:1019A0000801C1612068C16921F00401C16120689A
:1019B000C1692A69114311E0206800F04DFF2068D9
:1019C000C16941F40061C1612068C16921F480618D
:1019D000C1612068C1692A6941EA0221C161002010
:1019E00084F83C0070BD10B5040003D094F83D00AD
:1019F00010B107E0012010BD002084F83C00204613
:101A000000F01EF8022084F83D00211D206800F03F
:101A10005FFE012084F8460084F83E0084F83F0011
:101A200084F8400084F8410084F8420084F84300C0
:101A300084F8440084F8450084F83D00002010BD7F
:101A400008B500680649884208D10648C16941F0D6
:101A50000401C161C06900F00400009008BD0000ED
:101A6000000800400010024010B50446022249B1AF
:101A700004290ED0082913D094F84100012816D06B
:101A8000012010BD94F83E000128F9D184F83E20D1
:101A90000FE094F83F000128F2D184F83F2008E0DD
:101AA00094F840000128EBD184F8402001E084F84C
:101AB00041200122206800F041FE0F492068884241
:101AC00003D1426C42F4004242642068884208D04C
:101AD000B0F1804F05D00949884202D008498842B8
:101AE00004D1816801F00701062903D0016841F0A3
:101AF00001010160002010BD002C014000040040E5
:101B00000008004070B5040004D094F83D000025A2
:101B100010B106E0012070BD84F83C50204600F072
:101B200023F8242084F83D002068C16821F4005186
:101B3000C160204600F0B2FE2068016921F49041A6
:101B400001612068416921F02A0141612068C16872
:101B500041F40051C1602564202084F83D0084F8E0
:101B60003E00002070BD000030B585B00024009418
:101B700001940294039400681449884224D11448C3
:101B8000816941F480418161816901F4804104915E
:101B9000816941F00401816180690E4D00F004000B
:101BA00004904FF4007000900220019003200390F5
:101BB00069462846FEF790FF2815CDE900046946DE
:101BC00028460294FEF788FF05B030BD003801407A
:101BD00000100240000801402DE9F843044690F847
:101BE0003D001F4616460D4620284CD1C5B1BEB15A
:101BF00094F83C00012846D0012084F83C004FF0C6
:101C00000008C4F84080212084F83D00FFF75AF80E
:101C1000A6848146E684A068B0F5805F03D004E026
:101C20000120BDE8F883206928B12E465FF0000549
:101C300084F83C800EE00026FAE78021204600F080
:101C400089FEA0B9AEB116F8010B21684860E08C9E
:101C5000401EE084E08C4B464FF0000200970028C5
:101C6000EBD14FF04001204600F074FE30B103206C
:101C7000D7E735F8020BC0F30800E6E7202084F828
:101C80003D000020CDE70220CBE7FEE701684A696E
:101C9000D24352050FD46FF480624A61002140F8AC
:101CA000301F202242738173026942F004020261F4
:101CB0000173012070470020704700002DE9F84FA4
:101CC0000446006889460B9D01689846174641F412
:101CD000806101602068016841F4807101600095B5
:101CE0004FF0011B0022594620460A9B00F0DEF807
:101CF0004FF4007A40B120680068C00501D5C4F8EF
:101D000040A00320BDE8F88F216809F0FE000861BB
:101D10002B46284920460A9A00F0FCF8F0BB2068C0
:101D20004169806900902A4620460A9900F070F9BE
:101D300040B1206C04283AD12068016841F4007158
:101D4000016034E0FEB2B8F1010F09D02168380A11
:101D500008612A4620460A9900F05AF90028E8D17D
:101D6000206806612A4620460A9900F051F90028A9
:101D7000DFD12068016841F4807101600095002284
:101D8000594620460A9B00F091F80028B3D12168FB
:101D900009F0FF0040F00100086100E007E02B4679
:101DA000044920460A9A00F0B5F80028AAD001207C
:101DB000A8E70000020001002DE9F843044600688E
:101DC0000D46DDE9089701689846164641F4807192
:101DD00001604B4600224FF001112046009700F0B1
:101DE00065F848B120680068C00502D54FF400705E
:101DF00020640320BDE8F883216805F0FE00086137
:101E00003B464A461549204600F084F888B92068C8
:101E10004169806900903A464946204600F0F8F84A
:101E200048B1206C042804D12068016841F4007195
:101E300001600120DEE7F5B2B8F1010F09D0216899
:101E4000300A08613A464946204600F0E1F8002889
:101E5000E7D1206805610020CCE700000200010006
:101E600070B516460D4604460DE02046FFF70EFFFE
:101E700008B1012070BD681C05D0FEF723FF801B50
:101E8000A84207D835B120684069C0434007ECD468
:101E9000002070BD002044F8300F20216173A07332
:101EA000216941F0200121612073E2E72DE9F0472B
:101EB0001E4690460D460446C1F30747DDF82090C4
:101EC00008E0701C06D0FEF7FDFEA0EB0900B04252
:101ED0000FD876B12068012F18D0806925EA00005C
:101EE0000004000C14D000214145EAD00020BDE8D8
:101EF000F087002044F8300F20216173A07321691E
:101F000041F02001216120730120F0E74069E5E7FD
:101F10000121E9E72DE9F0479A4691460E4604462D
:101F200000254FF02008C1F3074725E020684069ED
:101F3000C043400514D42068016841F40071016079
:101F400021686FF480604861256384F83D8084F8DF
:101F50003E50206C40F00400206484F83C501FE0A8
:101F6000B9F1FF3F08D0FEF7ADFEA0EB0A014945ED
:101F70000CD8B9F1000F09D02068012F13D0806967
:101F800026EA00000004000C0BD0CFE744F8305FD5
:101F900084F80D80A573206940F02000206125732E
:101FA0000120BDE8F0874069EAE72DE9F04100250E
:101FB00090460E460446202717E04069C043C006FD
:101FC0000CD454F8301B6FF01000486144F81059DD
:101FD0006777A577206A2062257717E0FEF772FE03
:101FE000A0EB0800B04208D83EB120684169C9435F
:101FF0004906E2D40020BDE8F08144F8305F677301
:10200000A573206940F02000206125730120F2E7CC
:1020100070B516460D4604460DE02046FFF736FE25
:1020200008B1012070BD681C05D0FEF74BFE801B77
:10203000A84207D835B120684069C0430006ECD4F7
:10204000002070BD002044F8300F20216173A07380
:10205000216941F0200121612073E2E72DE9FF5F52
:1020600096B024AD044695E88301D4E9082308938B
:102070000692FEF7B2F93A464346FEF7B4F9D4E9C0
:102080000623FEF709F907911290D4E910A35246EE
:10209000384641460993FEF7A6F9CDE90001D4E997
:1020A0000C939B464A46FEF798F9D4E90E23CDE9F6
:1020B0000B32FEF792F9D4E90023FEF7EDF83A4629
:1020C0004346FEF790F9D4E90A23FEF7E5F8054602
:1020D0000E46DDE900014A465B46FEF781F98B4674
:1020E0000490DDE90001DDE90B32FEF779F90D918D
:1020F0000090D4E902013A464346FEF774F952468D
:10210000099BFEF7C9F8CDE90E01D4E9042328465E
:102110003146FEF7C1F880468A4602460B462846FD
:102120003146FEF7D2F981460F46424653460D9995
:102130000098FEF7CAF980468A46DDE91801079B38
:10214000129AFEF74AF90B914A463B461090FEF769
:102150004AF9079B129AFEF79FF8C4E90601079116
:102160001290404651460B9B109AFEF73CF9089B93
:10217000069AFEF791F8C4E90801049806902A46E9
:10218000334648463946FEF72EF92A463346FEF7CF
:1021900027F9C4E90A015B4648463946069AFEF724
:1021A00022F95B46049AFEF71BF9C4E90C012A46A2
:1021B000334640465146FEF716F90D9B009AFEF74E
:1021C0000FF9C4E90E015B4640465146069AFEF7F8
:1021D0000AF9DDE90E23FEF703F9C4E910010799B6
:1021E00012981AB0BDE8F09F2DE9F04186B0804604
:1021F000012504A8CDE9000564242B467522D021D1
:1022000002944046FEF728FE9DF81000682803D08F
:10221000012006B0BDE8F081002703AE8DF80C70F8
:102220000096CDE9015401236B22D0214046FEF7F0
:102230003BFF07208DF80C000096CDE901540123E7
:102240001922D0214046FEF72FFF8DF80C70009622
:10225000CDE9015401231C22D0214046FEF724FF82
:102260008DF80C700096CDE9015401231B22D0217A
:102270004046FEF719FF0020CBE700002DE9F04FA4
:1022800089B00C4664230E2204A98DE80E000123B8
:102290003B22D021FEF7E0FDBDF8100040BA00B2AD
:1022A0002080BDF8121049BA09B261808946BDF894
:1022B000141049BA09B2A1808846BDF8161049BA6F
:1022C0000FFA81FABDF8181049BA0FB22784BDF889
:1022D0001A1049BA0EB26684BDF81C1049BA0DB284
:1022E000A584FEF781F96FF00D0B5A46FEF75CF9F5
:1022F000C4E902014846FEF777F95A46FEF754F959
:10230000C4E904014046FEF76FF90022624BFEF774
:10231000DCF8C4E906015046FEF75DF95F49FDF7B8
:102320007DFF5F49FDF722FF20643846FEF75CF928
:102330005C4F00223B46FEF7C8F8C4E90A0130466C
:10234000FEF752F900223B46FEF7BFF8C4E90C0144
:102350002846FEF749F900223B46FEF7B6F8C4E9E5
:102360000E01FEF7AFFC504D2968401AFEF74DF9FB
:1023700000224E4BFEF7A9F881468A46FEF7A2FCE2
:102380002860B4F90010B4F90400494300FB0010C0
:10239000FEF72AF901F07EFA002205460E461346A2
:1023A000FEF76CF911D0B4F90200FEF71DF92A46C8
:1023B0003346FEF78AF800F0F3FF4FF066323C4BED
:1023C000FEF711F80746884601E00027B846B4F941
:1023D0000400FEF709F90646B4F900000D46404234
:1023E000FEF702F932462B4601F0EAF84FF066326A
:1023F0002F4BFDF7F8FFDFF8BCB005460E46002274
:102400005B46FEF73BF906D2D4E9140100222A4BC1
:10241000FEF74CF90DD30022274B28463146FEF734
:1024200045F90DD2D4E9140100225B46FEF726F9E6
:1024300006D21D485030C0E90656C4E914560DE0D6
:10244000CDE9029AD4E90C01CDE9000116482A46EB
:1024500033465030FFF702FEC4E91401D4E91401F9
:1024600021F000410022144BFEF720F903D2E16A6B
:1024700081F00041E162CDE9029AD4E90A01CDE997
:10248000000109483A4643460830FFF7E7FDC4E932
:10249000120109B0BDE8F08F0029CC400000AA432A
:1024A000B81E1242006060400000002000408F40D3
:1024B00066A64C40008056C00080564070B586B07D
:1024C00000241C480094019402940394816941F013
:1024D00010018161816901F010010491816941F06D
:1024E00020018161816901F020010491816941F03D
:1024F00008018161816901F008010491816941F05D
:10250000040181618069012200F004000A4E550334
:10251000049029463046FEF7CFFB01200095CDE917
:1025200001040220039069463046FEF7D5FA06B052
:1025300070BD000000100240001001400D4810B5B1
:102540000B4901600C49416000214FF480428160D9
:10255000C0E9031241618161C1610162FEF7B8FB0C
:10256000002803D0BDE81040FEF74EBA10BD0000B1
:102570000058004018010020801A060010B58AB0EB
:10258000002407941C2168460894FDF7E4FD1648D2
:10259000144901604721C0E9011444F61F61C0E9F4
:1025A00003148461FFF71FFA08B1FEF72DFA0794B0
:1025B00007A90D480894FFF759F908B1FEF724FA66
:1025C0006020CDE9000402940C2269460648049478
:1025D000FFF7A6F908B1FEF717FA0348FFF77AF9F3
:1025E0000AB010BD000800406C0100200C4810B576
:1025F0000A4901604FF4E1314160002181600C2201
:10260000C160C0E904128161C161FFF77BFA002853
:1026100003D0BDE81040FEF7F7B910BD0038014007
:10262000B4010020FEE7FEE77047000010B500226D
:10263000084BFDF731FE084A084BFDF7D4FE002297
:10264000074BFDF729FEFDF7EDFF06490968086411
:1026500010BD0000008066408EE3388EE3381640DF
:1026600000407F406C0100207047FEF7E5BD30B5AB
:102670008FB028216846FDF76EFD14210AA8FDF7EA
:102680006AFD01210804CDE900100024029402250E
:102690000491CDE907504FF4E01009906846FEF729
:1026A00041FF08B172B6FEE70F20CDE90A054FF4ED
:1026B0008060CDE90C4002210AA80E94FEF746FE88
:1026C000002801D072B6FEE70FB030BD70470000A1
:1026D000F0B50268164B174C174D4FF080479842E3
:1026E00005D0B84203D0A04201D0A84203D122F0C5
:1026F00070064A683243984205D0B84203D0A042DF
:1027000001D0A84203D122F44074CA6822434C6924
:1027100022F08002224302608A68C2620A688262F2
:10272000984201D10969016301214161F0BD0000B6
:10273000002C0140000400400008004010B501F0EA
:102740001F030121046A99408C430462016A9A4084
:102750001143016210BD000030B5026A22F001028F
:102760000262026A4368846924F073050C682C4392
:1027700022F002058A682A430A4DA8420BD122F0B2
:102780000805CA6823F440732A434D6922F0040205
:102790001D438B692B434360846149684163026236
:1027A00030BD0000002C014030B5026A22F010025A
:1027B0000262026A436884690D6824F4E64444EACC
:1027C00005248D6822F0200242EA05120B4DA84232
:1027D0000ED1CD6822F0800242EA05124D6923F441
:1027E000406343EA85038D6922F0400243EA850392
:1027F0004360846149688163026230BD002C0140FE
:1028000030B5026A22F480720262036A4268C469C7
:1028100023F4007324F073050C682C438D6843EA9D
:1028200005230C4DA8420ED1CD6823F4006343EA82
:1028300005234D6922F4405242EA05128D6923F4C2
:10284000806342EA05124260C4614968C163036261
:1028500030BD0000002C014030B5026A22F48052E5
:102860000262046A4268C3690D6823F4E64343EADE
:1028700005238D6824F4005444EA0534064DA8422B
:1028800004D14D6922F4804242EA85124260C3615C
:1028900049680164046230BD002C014070B50446F3
:1028A00000680169E26821F4405111430161216926
:1028B000A0680843616908432168CA6841F20C6353
:1028C0009A430243CA6020684169A26921F44071B9
:1028D000114341611E492068884202D1FEF7DCFDA8
:1028E00001E0FEF7C9FD00EBC00101EB00126068DA
:1028F00064218000B2FBF0F3B3FBF1F36FF0180634
:102900007343B2FBF0F5B2FBF0F605EB830532231F
:1029100003EB0515B5FBF1F5B6FBF1F605F0F00597
:1029200005EB0615B2FBF0F6B2FBF0F0B0FBF1F0F0
:102930006FF01802504306EB800003EB0010B0FB71
:10294000F1F0216800F00F002844886070BD00009D
:10295000003801402DE9F041984617460E460446DE
:10296000069D1DE0681C1BD02DB1FEF7ABF9A0EB56
:102970000800A84214D92068C16821F4D071C16050
:102980002068416921F001014161202084F83D0067
:1029900084F83E00002084F83C000320BDE8F0816C
:1029A0002068006836EA000004D00020B842D9D080
:1029B0000020F3E70120F9E7FEE700000FB4054B24
:1029C00010B503A9044A029800F066F910BC5DF83E
:1029D00014FB00005D370008B8000020490050EAF1
:1029E000C12018BF04204A0D18BF40F0010040F27A
:1029F000FF72B2EB515F08BF40F00200012808BF30
:102A0000052070470907090E002804DB00F1E020CB
:102A100080F80014704700F00F0000F1E02080F80B
:102A2000141D70472DE9F0414F1E00EBC70104460D
:102A3000D1E9000115461E4637F006020DD02A46A0
:102A40003346FDF7D0FC7F1E04EBC703D3E9002318
:102A5000FDF722FC37F00602F1D1022F25D0042F1A
:102A600013D0062F18BFBDE8F0812A463346FDF784
:102A7000BAFCD4E90A23FDF70FFC2A463346FDF7DA
:102A8000B2FCD4E90823FDF707FC2A463346FDF7DC
:102A9000AAFCD4E90623FDF7FFFB2A463346FDF7DF
:102AA000A2FCD4E90423FDF7F7FB2A463346FDF7E1
:102AB0009AFCD4E90223FDF7EFFB2A463346FDF7E3
:102AC00092FCD4E90023BDE8F041FDF7E5BB01220B
:102AD000FDF76ABDFDF7E0BB024A00201107FDF7D4
:102AE00063BD000001FDFFFF02E008C8121F08C11E
:102AF000002AFAD170477047002001E001C1121F7F
:102B0000002AFBD1704700000149086070470000AF
:102B1000BC0000202DE9FF5F82B00021DDE9043018
:102B2000020DDDF840B0034318D044F61050A2F275
:102B3000FF3242431514119801281FD0A5EB0B005A
:102B4000401C5FEA000A4FF000064E4FDFF8389154
:102B5000B046504615D5CAF1000413E0119801247F
:102B60004AA3012801D16FEA0B010298119AC0E92A
:102B70000031C0E9024206B0BDE8F09FCBF1000091
:102B8000DFE704460021404A491842EB0450CDE9F2
:102B9000001012E0E00707D032463B464046494667
:102BA000FDF721FC8046894632463B4610461946D1
:102BB000FDF719FC06460F466410002CEAD1DDE94A
:102BC0000401DDE90023BAF1000F06DAFDF70BFC82
:102BD00042464B46FDF707FC05E0FDF776FC424612
:102BE0004B46FDF772FC04460E460022284BFDF7CB
:102BF0005DFD03D84FF0FF30014607E00022254B72
:102C000020463146FDF748FBFDF7D1FE102409E0D0
:102C1000002C0ADB0A220023FDF792FD039B3032D1
:102C20001A55641E50EA0102F2D1641C039AC4F1E1
:102C300011031444119A012A03D0012208430DD133
:102C40000AE0084304D000204FF0110B119072E706
:102C5000A3EB0B056D1E0DE05B4504DD4FF000029C
:102C600005F1010504E003DA4FF00002A5F10105CA
:102C7000002AECD002981199C0E90231C0E9004560
:102C800079E70000000014400000F03F3000000031
:102C90000000F0430000E03F2DE9FF4F95B09A4659
:102CA000884606460025EEE1252877D100242746F0
:102CB000F94A0121039400E0044316F8013F203B48
:102CC00001FA03F01042F7D130782A2811D06FF0C2
:102CD0002F033078A0F13002092A16D8039A44F065
:102CE000020402EB820203EB42021044761C0390C2
:102CF000EFE758F8042B0392002A03DA504244F419
:102D00000054039044F00204761C30782E2816D12B
:102D100016F8010F44F004042A280DD06FF02F029A
:102D20003078A0F13003092B09D807EB870302EBB9
:102D30004303C718761CF3E758F8047B761C3078F9
:102D40006C280FD006DC4C2817D068280DD06A28D4
:102D500014D104E0742810D07A280FD10DE044F487
:102D600000140AE044F4801401E044F44014727842
:102D7000824202D104F58014761C761C30786628D5
:102D80000BD013DC582877D009DC002875D04528F3
:102D9000F6D04628F4D047281AD193E118E06328EA
:102DA00035D0642879D0652812D18BE1702873D092
:102DB00008DC6728F1D069286FD06E280DD06F2805
:102DC00006D1ACE073282CD0752874D0782853D065
:102DD0005246179990476D1C54E1C4F302500228E3
:102DE00009D003280DD0D8F8001004280DD00D60AC
:102DF00008F1040846E1D8F80010EA17C1E90052CA
:102E0000F6E7D8F800100D80F2E70D70F0E718F83B
:102E1000041B8DF8001000208DF80100EB46012006
:102E200003E058F804BB4FF0FF3061074FF000019A
:102E300002D40DE009F101018946B9420FDA81455A
:102E4000F8DB1BF809100029F4D108E009F10101B1
:102E500089468142FADB1BF809100029F6D1039854
:102E60005346A0EB090721463846179A00F080FA2E
:102E7000284400EB090507E044E008E10DE01BF8F9
:102E8000010B524617999047B9F10109F7D2534601
:102E900021463846179AF2E039E00A21C4F302527B
:102EA0004FF0000B0091022A06D058F8040BC1170E
:102EB000032A09D00AE023E008F1070020F0070206
:102EC000F2E80201904605E000B2C117042A01D1E0
:102ED00040B2C117002906DA0A460021404261EBE0
:102EE00002012D2202E0220504D52B228DF80420B8
:102EF000012203E0E20701D02022F7E7914657E0E4
:102F00000A2100E010214FF0000B00910BE010218E
:102F10004FF0000B44F004040827009103E0082060
:102F20004FF0000B0090C4F30252022A05D058F86B
:102F3000040B0021032A08D008E008F1070020F064
:102F40000702F2E80201904603E080B2042A00D1B1
:102F5000C0B24FF0000922072AD53278702A07D074
:102F6000DDF800C08CF0100C5CEA0B0C05D00EE014
:102F700040228DF80420012208E050EA010306D027
:102F800030238DF804308DF8052002229146009BF5
:102F900083F0080353EA0B030AD150EA010201D17E
:102FA000620705D530228DF804204FF001097F1EFD
:102FB0003278582A04D039A20C920CAA02920BE063
:102FC0003BA2F9E75B46009AFDF7BAFB0C9B9B5CC2
:102FD000029A521E0292137050EA0102F2D1029834
:102FE00004A9081A00F1200B600702D524F48034EC
:102FF00000E001275F4502DDA7EB0B0000E00020A9
:1030000000EB0B01009003984944401A0390E00341
:1030100006D453462146179A039800F0A9F90544AF
:10302000002706E001A85246C05D179990476D1C25
:103030007F1C4F45F6DBE0030CD553462146179A1B
:10304000039800F095F9054404E0302052461799A2
:1030500090476D1C0099481E00900029F5DC08E09F
:103060000298029952460078491C0291179990479C
:103070006D1CBBF10001ABF1010BF1DC5BE100F079
:1030800065F90544761C307800287FF40DAE19B040
:103090002846BDE8F08F00000928010030313233A6
:1030A0003435363738396162636465660000000084
:1030B000303132333435363738394142434445466E
:1030C00000000000600700D4062708F1070020F088
:1030D0000700F0E80223804603F0004C5FEA0C0092
:1030E00001D097A009E0200501D596A005E0E007F2
:1030F00001D095A001E0AFF24C001390307823F09E
:10310000004365280CD006DC452809D046281DD090
:1031100047287FD13BE0662818D067287AD136E06F
:103120000021112F01DB112000E0781CCDE9000106
:1031300004A90CA8FFF7EEFCDDE90D010C9A4FF095
:10314000000B07F10109109200914EE04FF0004092
:103150000097CDE9011004A90CA8FFF7DBFCDDE91D
:103160000D020C9B0F994FF0000B914610930092AB
:1031700011B9791C00EB0109B7EB090003D4C0F1C8
:10318000FF3B07F10109A9EB0700019042E0012F85
:1031900000DA01270021112F01DD112000E038465F
:1031A000CDE9000104A90CA8FFF7B4FCDDE90D018D
:1031B0000C9A00914FF0000BB946109221070FD4E2
:1031C000009A4A4503DA914601E0A9F10109B9F1F3
:1031D000010F05DD109AA9F10101515C3029F4D0ED
:1031E000B84202DA10F1040F03DA0121CDE901102F
:1031F00010E0002803DC8344A9EB000102E0411C3D
:10320000494500DD8946A0EB0B00401C01904FF0C2
:1032100000400290200705D40198484502DB4FF09A
:10322000FF30019000208DF84B0002980DF14B0704
:10323000B0F1004F25D002200C902B200D90029869
:1032400000280CDA404202902D200D9007E00A2160
:103250000298FDF75FFA3031029007F8011D0C99D2
:10326000481E0C900029F2DC02980028EFD1791E4C
:103270000D980870307800F0200040F0450007F805
:10328000020D11A8C01BC01D02901398007800B158
:10329000012000EB0901019801EBE0710298014463
:1032A0000398401A401E0390E00306D4534621467B
:1032B000179A039800F05CF805441398007818B149
:1032C0005246179990476D1CE00323D5534621467B
:1032D000179A039800F04CF805441BE0BBF1000F6F
:1032E00007DB0098584504DD1098179910F80B007B
:1032F00001E0179930205246904701980BF1010BDD
:10330000401E05F10105019004D12E205246179967
:1033100090476D1CB9F10001A9F10109DEDC05E05F
:1033200017F8010B5246179990476D1C0299481ED9
:1033300002900029F4DC53462146179A03989EE632
:103340002D0000002B000000200000002DE9F041BE
:10335000044600251E461746880404D405E0394675
:103360002020B0476D1C641EF9D52846BDE8F081C9
:103370002DE9F041044600251E469046C80301D5BC
:10338000302700E02027880404D505E04146384670
:10339000B0476D1C641EF9D52846BDE8F0810000D9
:1033A0002DE9F84F04460D4621F000400091734985
:1033B000814211DC7249884201DC06D12CB12046E1
:1033C0002946BDE8F84FFFF782BB6E48002DCCBF01
:1033D0006D496E49BDE8F88F6D49814211DD6D4937
:1033E0008142D8BF4FF0FF366DDD20462946FFF7FA
:1033F000F5FA042808BFFFF76FFB20462946BDE811
:10340000F88F6549654F25F00045814233DD6449F9
:10341000814219DD002632464FF08043204629467E
:10342000FCF73AFF80468A46012220462946FDF7EE
:10343000BBF800223B46FCF7D0FF42465346FDF75F
:1034400044F804460D463EE001260022BA463B46BB
:1034500020462946FCF720FF80460F4600225346AF
:1034600020462946FCF7B9FF42463B46FDF72DF8BA
:1034700004460D4627E04B4981421BDDDFF828A1B9
:1034800002260022534620462946FCF7ACFF0022C4
:103490003B46FCF701FF80460F460022534620467C
:1034A0002946FCF79AFF42463B46FDF70EF80446D4
:1034B0000D4608E0032622462B4600203B49FDF737
:1034C00004F804460D4622462B4610461946FCF7E2
:1034D0008AFF8B46824602460B46FCF784FF07466E
:1034E0000246334888460B4606217844FFF79AFA8D
:1034F00052465B46FCF777FF82462E488B463A469B
:10350000434605217844FFF78DFA3A464346FCF7D7
:103510006AFF02460B46002E504659460CDAFCF76D
:10352000BBFE22462B46FCF75EFF01B022462B462F
:10353000BDE8F04FFCF754BFFCF7AEFE22462B4629
:10354000FCF751FF1C4A7A4402EBC603D3E900237F
:10355000FCF743FF22462B46FCF73FFF174A7A440D
:1035600002EBC603D3E90023FCF73AFF009A002AD6
:10357000B8BF81F00041BDE8F88F000000001044A2
:103580000000F07F182D4454FB21F93FFB21F9BFC7
:103590000000DC3F0000203E0000F33F0000F03F51
:1035A0000000E63F008003400000F83F0000F0BF4D
:1035B0007204000030040000CE03000096030000F7
:1035C0002DE9F04D9446CCF1000423F000464CEA7E
:1035D0000404594F46EAD4749A46884621F00042C2
:1035E000BC4206D8454240EA050442EAD474BC42D3
:1035F00004D9BDE8F04D6246FFF76CBAAAF1405518
:10360000A5F17F6555EA0C040BD0022404EAAA74E4
:103610004A4DDFF82CE144EAD87452EA000B04D09A
:103620000CE0BDE8F04DFFF7BBBE002C14BF012C31
:10363000BDE8F08D022C30D0032C32D056EA0C0BB2
:103640000AD0BE4220D1BA4209D126F0804622F0EB
:1036500080423346114617E000291ADB25E0DFF8E7
:10366000E4B0FB44002C04BFDBE90001BDE8F08DB1
:10367000012C02BFDBE9000181F00041BDE8F08DC3
:10368000022C0AD0032C0CD0BA4212D1B8F1000F90
:103690000BDA2A482C49BDE8F08D28462B49BDE8B5
:1036A000F08D28467146BDE8F08D24482849BDE8D4
:1036B000F08D921B12153C2AC4BF204F244E10DC03
:1036C000BAF1000FBEBF12F13C0F00273E4608DBE7
:1036D0006246FCF7FAFE21F00041FFF761FE074663
:1036E0000E4694B1012C08BF86F000460DD0194A51
:1036F000194B022C3846314615D0FCF76EFE2A468F
:10370000BDE8F04D114BFCF768BE00221346384669
:103710003146FCF7B3FF04BF0220FFF7F5F9384646
:103720003146BDE8F08DFCF758FE2A46BDE8F04D65
:10373000064BFCF755BE00000000F07F182D4454E6
:10374000FB2109C02A030000FB21F9BFFB2109402E
:10375000FB21F93F075C143326A6A13C13B54FF6B5
:10376000FF73012269460248FEF736FA00981CBD35
:10377000B401002088B00020049005900690FDF769
:1037800063FDFEF774FFFEF799FEFEF7F7FEFEF706
:10379000D5FEFEF72BFF0C212F48FEF765F92F48C9
:1037A000FEF722FD06AA05A904A8FDF72FF90022BD
:1037B0004FF400512A48FDF77FFA2A4C2A4DDFF8D2
:1037C000AC80DFF8AC9027492448FEF757FD0498F9
:1037D000FCF741FFD4E90A23FCF702FEC4E90A0121
:1037E0000598FCF738FFD4E90C23FCF7F9FDC4E990
:1037F0000C0106460F460698FCF72DFFD4E90E2370
:10380000FCF7EEFDC4E90E0119481849CDE9021094
:10381000CDE90067D4E904231648FEF71FFCC5E98B
:10382000000106460F46D4E90C0142464B46FCF720
:10383000DAFDD5E90223FCF72FFDC5E90201CDE948
:10384000000132463B460CA0FFF7B8F8D5E900016D
:10385000FEF7ECFEB7E700006C0100201801002025
:1038600000100140C0000020980000207B14AE47EB
:10387000E17A943F500000204B616C6D616E2059DD
:1038800020616E676C65203A20256C662C256C667D
:103890000D0A00002DE9F04106460F46FDF736F807
:1038A000041E0D4618BF0120284320F00040C0F13F
:1038B0007F6000F1E040C00F0ED0301C18BF012027
:1038C000384320F00040C0F17F6000F1E040C00FBD
:1038D00004BF0120FFF718F920462946BDE8F08112
:1038E00000000000000000000102030406070809B0
:1038F00000000000010203044FBB610567ACDD3F1F
:10390000182D4454FB21E93F9BF681D20B73EF3F06
:10391000182D4454FB21F93FE2652F227F2B7A3C7E
:10392000075C143326A6813CBDCBF07A8807703C37
:10393000075C143326A6913CC4EB98999999C9BFAA
:10394000711623FEC671BCBF6D9A74AFF2B0B3BFDF
:103950009AFDDE522DDEADBF2F6C6A2C44B4A2BF9F
:103960000D5555555555D53FFF8300922449C23F0B
:103970006E204CC5CD45B73F513DD0A0660DB13F3F
:10398000EB0D76244B7BA93F11DA22E33AAD903F51
:103990000000000000000000B8390008000000200E
:1039A000C0000000E82A0008783A0008C0000020A3
:1039B00038050000F82A00080000000000000000A0
:1039C000000000E04D62503F000000C07493683F6B
:1039D000000000E051B89E3F000000000000000021
:1039E00000000000000000000000000000000000D7
:1039F00000000000000000000000000000000000C7
:103A00000000000000000000000000E04D62503F98
:103A1000000000C07493683F00000040E17A943FCA
:103A20000000000000000000000000000000000096
:103A30000000000000000000000000000000000086
:103A40000000000000000000000000000000000076
:103A50000000000000000000000000000000000066
:103A60000100000010000000000000000024F4002D
:083A700000000000000000004E
:04000005080000ED02
:00000001FF
