:020000040800F2
:10000000380500200101000851260008A51300084A
:100010004D2600084901000849270008000000009B
:100020000000000000000000000000003D27000864
:10003000650100080000000055260008412700085F
:100040001B0100081B0100081B0100081B01000820
:100050001B0100081B0100081B0100081B01000810
:100060001B0100081B0100081B0100081B01000800
:100070004D010008590100081B0100081B01000880
:100080001B0100081B0100081B0100081B010008E0
:100090001B0100081B0100081B0100081B010008D0
:1000A0001B0100081B0100081B0100081B010008C0
:1000B0001B0100081B0100081B0100081B010008B0
:1000C0001B0100081B0100081B0100081B010008A0
:1000D0001B0100081B0100081B0100081B01000890
:1000E0001B0100081B0100081B010008DFF80CD0F1
:1000F00000F018F800480047712700083805002074
:100100000648804706480047FEE7FEE7FEE7FEE7B1
:10011000FEE7FEE7FEE7FEE7FEE7FEE7452700080D
:10012000ED000008064C074D06E0E06840F00103D2
:1001300094E8070098471034AC42F6D3FFF7DAFF93
:1001400038C7000858C70008FEE7000040F210005A
:10015000C2F2000000F00EB840F25400C2F20000FB
:1001600000F008B870470000EFF3108072B600BFCF
:10017000FEE7000010B5D0E90FCE0168DCF80030D2
:100180000A6823FA0EF35C072AD512F0040427D07C
:100190000A68920603D40A6822F004020A602F2239
:1001A000C4F20202914240F20402C4F2020259DD9A
:1001B0003023C4F20203994270D04423C4F20203F4
:1001C000994271D05823C4F20203994278D14FF476
:1001D00080231360C16A002940F097806EE000BF61
:1001E0009C0727D512F0020424D00A68920606D490
:1001F0000A6822F00A020A60012280F821202F22D8
:10020000C4F20202914240F20402C4F2020239DD59
:100210003023C4F2020399425ED04423C4F20203A5
:1002200099425DD05823C4F2020399425ED14FF443
:10023000003363E01B0741D512F0080208BF10BD70
:100240000A6822F00E020A60012101FA0EF2CCF8CF
:1002500004208163016B4FF480720029028454D121
:100260002CE000BF0823C4F20203994222D01C23D1
:10027000C4F20203994223D140231360C16A0029CA
:1002800043D11BE00823C4F2020399422CD01C2363
:10029000C4F20203994229D120232FE04FF4806356
:1002A0001360C16A89BB09E04FF480431360C16ADF
:1002B00059BB03E004231360C16A31BB10BD00BF0A
:1002C00002F168044FF08063A14208BF4FF480033D
:1002D0001360C16AC9B9F1E74FF400730EE000BFC3
:1002E0004FF400530AE000BF022307E002F1680464
:1002F0004FF00073A14208BF4FF400131360816AEE
:100300000022002980F82020D8D0BDE810400847FE
:10031000002804BF012070472DE9F04101684FF625
:10032000F872CBF6FD724CF6CD430A44CCF6CC43C2
:10033000A2FB03236FF0030707EA93030027C4F22D
:10034000020700F1040E00F11008C0E90F739EE8E7
:10035000045098E870010B6843F6F077BB431A43EA
:1003600042EA0C0242EA0E0222432A43324342EAA4
:1003700008020A6000214FF4807281630284BDE8A4
:10038000F041084670470000B0B5044600F024F97B
:10039000054640F20400C2F200000078611C18BF5C
:1003A000044400BF00F018F9401BA042FAD3B0BDCE
:1003B0002DE9F04F82B00E68002E00F0038140F26C
:1003C0000C4C41F200424FF6FF7EC4F2010CC4F225
:1003D0000102042700240123C1F2100E4FF0000A8D
:1003E0004FF00009904208BF0327009745E000BF87
:1003F000012704F00C030F229A402BEA020207FAAD
:1004000003F34FEA9A051A4346F82520D1F804B0C1
:1004100040F20045C4F201055FEACB322A6854BFBE
:1004200022EA080242EA08022A606A685FEA8B331D
:1004300054BF22EA080242EA08026A605FEACB235C
:10044000AA6854BF22EA080242EA08025FEA8B2344
:10045000AA60DCF800204FF0010354BF22EA080232
:1004600042EA0802CCF800200E680AF1010A36FAC6
:100470000AF204F1040400F0A58003FA0AF816EA6F
:10048000080FF1D04E68764512DC122E56D8DFE800
:1004900006F0350B45495555555555555555555546
:1004A0005555554D510000BFD1F80C9046E000BFA6
:1004B0004FF6FF72C1F2210296420FDC0022C1F218
:1004C000110296421AD00022C1F21202964215D0B1
:1004D0000022C1F22102964210D02FE00022C1F288
:1004E000220296420AD00022C1F23102964205D081
:1004F0000022C1F23202964220D100BF8A684AB17E
:10050000012A14BFC0F81480C0F810804FF0080909
:1005100014E000BF4FF0040910E000BFCA6802F108
:1005200008090BE04FF0000908E000BFCA6802F1BB
:10053000040903E0CA6802F10C0900BF224606461E
:10054000BAF1080F24BF203A043637680F259540CA
:1005500027EA050509FA02F22A433260CA79D2066F
:100560007FF582AF41F21803C4F202031A6842F029
:1005700001021A601A6802F001020192019A40F227
:100580000042C4F20102A2F57E762AF0030256F878
:1005900002B040F60002C4F20102904210D040F6D0
:1005A0000042C4F2010290423FF422AF41F2000245
:1005B000C4F20102009F904208BF022719E700BF62
:1005C000002716E702B0BDE8F08F0000002A08BF40
:1005D000090401617047000040F23410C2F20000CB
:1005E0000068704740F2040040F23411C2F200008B
:1005F000C2F2000100780A681044086070470000E9
:1006000080B542F20000C4F20200016841F010011E
:100610000160032000F08EF80F2000F005F800F0D4
:1006200027F8002080BD000070B540F20406C2F239
:10063000000640F20C013278C2F200014FF47A73E6
:100640000968B3FBF2F20446B1FBF2F1084600F090
:1006500013FD0F2C4FF0010508D838B94FF0FF30CB
:1006600021460022002500F039F87460284670BD4C
:1006700082B041F21800C4F202000168022241F087
:1006800001010160016801F00101019101994168D6
:1006900041F080514160406800F080500090009827
:1006A0000420C4F20100016862F31A61016002B023
:1006B00070470000002848BF7047C1B200F01F001B
:1006C000012202FA00F04EF20012CEF2000242EADB
:1006D000D10121F0030108607047000010B54EF60B
:1006E0000C5CCEF2000CDCF80030C3F3022E8EF06E
:1006F0000704042C28BF0424BEF103034FF0FF3E7F
:100700000EFA04F438BF0023A14399400EFA03F314
:100710009A43114300F00F0200F160430901043ACB
:1007200003F564436244002848BF02F10C031970CA
:1007300010BD00004EF60C51CEF200010A684FF6D3
:10074000FF031A4060F30A2242F0806040F0FD701F
:10075000086070472DE9F04381B0002800F08580E3
:1007600042F20008C4F202080446D8F800000D4620
:1007700000F0070088420CD2D8F8000020F00700F3
:100780002843C8F80000D8F8000000F00700A8428D
:100790006BD1206841F204098107C4F2020917D520
:1007A000410705D5D9F8001041F4E061C9F80010FF
:1007B000010705D5D9F8001041F46051C9F80010BF
:1007C000D9F80010A26821F0F0011143C9F8001017
:1007D000C00741D1D8F8000000F00700A8420CD9AA
:1007E000D8F8000020F007002843C8F80000D8F827
:1007F000000000F00700A84237D12068410707D564
:10080000D9F80010E26821F4E0611143C9F8001042
:10081000000708D5D9F80000216920F4605040EAAB
:10082000C100C9F80000D9F8002002F00C00082827
:1008300041F20020C0F27A0050D142F65613C2F3C2
:100840008341C0F60003595CD2033BD440F600104C
:10085000C0F23D00484341E0606802280AD0012808
:100860002AD159F8041C890308D4012001B0BDE83D
:10087000F08300BF59F8041C8901F6D5D9F800109F
:1008800021F003010843C9F80000FFF7A5FE064662
:1008900041F28837D9F80000616800F00C00B0EB35
:1008A000810F97D0FFF798FE801BB842F2D9032042
:1008B00001B0BDE8F08300BF59F8041C8907D4D506
:1008C000DCE700BFD9F8002042F63C13C2F34042F7
:1008D000C0F600039A5C4843B0FBF2F0D9F8001070
:1008E00042F63E12C1F30311C0F60002515C40F221
:1008F0000C0220FA01F140F20800C2F20000006888
:10090000C2F200021160FFF78FFE002001B0BDE8C7
:10091000F083000040F20C0041F20401C2F200003A
:10092000C4F202010068096842F64E12C1F30221C6
:10093000C0F60002515CC8407047000040F20C0055
:1009400041F20401C2F20000C4F202010068096829
:1009500042F64E12C1F3C221C0F60002515CC840FB
:10096000704700002DE9F04182B0002868D00446AD
:10097000007841F20006C007C4F2020625D0706874
:1009800000F00C0004281BD0706800F00C00082850
:1009900002D17068C00313D46068002800F0688139
:1009A000B0F5A02F00F07C81B0F5803F00F07C8195
:1009B000306820F480303060306820F4802076E1A8
:1009C0003068800301D56068D0B32078800718D5DF
:1009D000706810F00C0F07D0706800F00C00082849
:1009E0006ED17068C0036BD43068800702D520696F
:1009F000012825D13068616920F0F80040EAC10083
:100A00003060207800071FD42078400732D4E56991
:100A100095B1706800F00C00082840F08F80012D1F
:100A20000ED07068216A00F480328A4208D1616A6F
:100A300000F47010884203D1002002B0BDE8F081BC
:100A4000012002B0BDE8F081A069002862D000203A
:100A5000C4F242200121C0F88014FFF7BDFD054615
:100A6000706A800700F18C80FFF7B6FD401B0228FA
:100A7000F6D92AE1F06910F0805808D1F06940F009
:100A80008050F061F06900F080500090009847F2CB
:100A90000007C4F200073868C00529D4386840F45C
:100AA00080703860FFF798FD054600BF3868C005C4
:100AB0001ED4FFF791FD401B6428F7D905E100BF64
:100AC0002069002840F20000C4F2422000F0828039
:100AD00001210160FFF780FD054600BF30688007F7
:100AE0003FF588AFFFF778FD401B0228F6D9ECE010
:100AF000E068002800F08080052800F09780012839
:100B000000F09880306A20F001003062306A20F0F6
:100B1000040092E00020C4F242200021C0F88014BA
:100B2000FFF75AFD054600BF706A80077FF56CAF7E
:100B3000FFF752FD401B0228F6D9C6E00027C4F299
:100B4000422700203866FFF747FD022D05460BD1EE
:100B50003068800140F1BE80FFF73EFD401B022857
:100B60004FF00300F4D968E7306880017FF564AF87
:100B7000FFF732FD401B02284FF00300F4D95CE779
:100B800040F20C00C2F20000006844F6D351C1F2FA
:100B90006201A0FB0101480A019000BF00BF01985B
:100BA000411E002801913FF42FAF00BF0198411E64
:100BB000002801913FF428AF00BF0198411E002892
:100BC00001913FF421AF00BF0198411E002801911F
:100BD000E4D119E700210160FFF7FEFC054600BFE4
:100BE000306880077FF50DAFFFF7F6FC401B022849
:100BF0004FF00300F4D920E7306A20F001003062A2
:100C0000306A20F004003062FFF7E6FC054641F24E
:100C1000883700BF306A800720D5FFF7DDFC401B16
:100C2000B8424FF00300F5D907E700BF306A40F043
:100C300004003062306A40F001003062FFF7CCFC03
:100C4000054641F2883700BF306A800706D4FFF7B7
:100C5000C3FC401BB842F7D937E000BFB8F1000F22
:100C60007FF4D5AEF06920F08050F061CFE600BF90
:100C7000306820F480303060306820F480203060AC
:100C8000FFF7AAFC054600BF306880037FF59DAEE4
:100C9000FFF7A2FC401B64284FF00300F4D9CCE618
:100CA000306840F480203060306840F4803030603C
:100CB000FFF792FC054600BF306880033FF585AE24
:100CC000FFF78AFC401B6428F6D9032002B0BDE878
:100CD000F08100BF206AB0F5803F05D17168A2683D
:100CE00021F40031114371607168626A21F474115A
:100CF00011430843706001203866FFF76DFC04461D
:100D0000306880013FF598AEFFF766FC001B0228B3
:100D10004FF00300F4D990E670B538B10446406A4C
:100D200030B10020206104F1140007E0012070BD03
:100D30006068B0F5827F03D004F11C0000210160DF
:100D40000026A66294F8510020B9204684F850602D
:100D500000F038F8022084F8510094E8071001F4FC
:100D60008271036802F4044223F0400303602369A4
:100D700011440CF40062114403F00202636911444F
:100D800003F00102A369E569114403F40072114400
:100D900005F03802256A114405F08002A56A114366
:100DA00005F4005211430160042101EA134141603E
:100DB000C16921F40061C1610120666584F85100B8
:100DC000304670BD2DE9F04186B040F6000504467E
:100DD000C4F20105006805F52051002788420497F8
:100DE00002D006B0BDE8F08141F21800C4F2020062
:100DF000016802AE41F480510160016840F21C08B4
:100E000001F48051019101990168C4F2020841F096
:100E1000040101600068314600F00400019001986F
:100E2000A020029002200390032005902846FFF79F
:100E3000BFFA4020CDE90207284631460497FFF764
:100E4000B7FA40F21005C2F2000580262846C5E92F
:100E50000087C5E90276C5E90477C5E90677FFF79B
:100E600057FA002818BFFFF77FF9E5646C6240F27B
:100E7000540508F11400C2F200051021002285E893
:100E800047002846C5E90422C5E90622FFF740FAD3
:100E9000002818BFFFF768F9A5646C6206B0BDE8CA
:100EA000F08100002DE9F04381B0044690F8500035
:100EB000012803D1022001B0BDE8F0834FF0010901
:100EC0001D4616460F4684F85090FFF785FB94F8B0
:100ED0005110012944D18046002F4FF0010018BF66
:100EE000002E00F0C0800320002184F851006165CD
:100EF0002763A686E686A163A187E187A0682164AF
:100F0000B0F5004F2068616407D1016821F040010D
:100F10000160016841F4804101600168490603D421
:100F2000016841F0400101606168731EE268B1FA36
:100F300081F1B3FA83F349095B09B2F5006F41EA25
:100F400003013BD131B137F8021BC1602763E08E4A
:100F50000138E086E08E00286AD0681C0DD11CE0C4
:100F6000022080E0216B31F8022BC2602163E08E09
:100F70000138E086E08E00285AD020688168890711
:100F8000F0D4FFF729FBA0EB0800A842F2D338E029
:100F9000FFF722FBE08E00284AD02068816889078D
:100FA000F6D5216B31F8022BC2602163E08E013847
:100FB000E086E08E0028F0D13AE000BF39B1397800
:100FC0000173206B01302063E08E0138E086E08EF3
:100FD00070B3681C0BD11BE0216B09780173206B87
:100FE00001302063E08E0138E086E08E00B3206897
:100FF00081688907F0D4FFF7EFFAA0EB0800A84258
:10100000F3D303202FE000BFFFF7E6FAE08E78B1BC
:10101000206881688907F7D5216B09780173206BF7
:1010200001302063E08E0138E086E08E0028EFD1A9
:10103000204680212A46434601F00EFB28B1606D10
:1010400040F02000606520206065A06838B900206D
:1010500000902068C1680091806800900098606DE1
:10106000002818BF0120002184F8519084F8501006
:1010700001B0BDE8F0830000411E0020B0EB116F0D
:101080001CBF012070474EF21002CEF200025160E8
:101090004EF62351CEF20001F0230B700721906031
:1010A00011607047002804BF0120704710B5044646
:1010B00090F83D0028B9002084F83C00204600F05C
:1010C00061F8242084F83D002068D4E90212C36846
:1010D00023F40053C360036923F440531A430261AD
:1010E000D4E904231143C268194341F20C639A43C3
:1010F0001143C1604169A26921F44071114343F673
:101100000002C4F201029042416103D0FFF702FCE9
:1011100002E000BFFFF712FC62681921484391000A
:10112000B0FBF1F048F21F51C5F2EB11A0FB012317
:101130005A094FF69C73C0F6FF7302FB030032237B
:1011400003EB0010A0FB0101F02303EA5113206818
:1011500003EB0212C1F3431111448160016921F4D0
:1011600090410161416921F02A014161C16841F466
:101170000051C16000202021206484F83D1084F8D3
:101180003E1010BD70B586B040F60004C4F20104F4
:10119000006804F5405100268842049602D006B04B
:1011A00070BD00BF41F21800C4F20200016802AD38
:1011B00041F480410160016801F48041019101998D
:1011C000016841F0040101600068294600F0040054
:1011D000019001984FF400700290022003900320C8
:1011E00005902046FFF7E4F84FF48060CDE9020651
:1011F000204629460496FFF7DBF806B070BD0000D4
:101200002DE9F041044690F83D0020280ED10D460E
:1012100000294FF0010000F08E801646002A08BF1A
:10122000BDE8F08194F83C00012803D10220BDE81C
:10123000F08100BF012084F83C00002020642120C0
:10124000984684F83D00FFF7C7F9A684E684A168B4
:101250000646B1F5805F03D12069002800F0A08028
:101260002F460025002084F83C00E08CE0B118F106
:1012700001001BD0B8F1000F60D120680BE000BF67
:1012800035F8021B00276FF35F214160E18C0139C3
:10129000E184E18C51B3016809066DD5002FEFD0D0
:1012A00017F8011BF1E700BF20681FE0206802E08B
:1012B0000168090609D40168090606D4016809060F
:1012C0005CBF01685FEA0161F2D51FB117F8011B2D
:1012D00005E000BF35F8021B00276FF35F21416076
:1012E000E18C0139E184E18C0029E4D101684906EF
:1012F0001DD4B8F1000F3FD018F101010ED10168E3
:10130000490614D4016849065CBF01685FEA41617F
:101310000DD401684906F2D509E000BFFFF75CF97A
:10132000811B2068414527D800684006F6D520205B
:1013300084F83D000020BDE8F08100BF206800BFB8
:101340000168090606D4FFF747F9811B206841456B
:10135000F6D911E017B117F8011B04E035F8021BAC
:1013600000276FF35F214160E18C0139E184E18C5A
:101370000029E5D1BAE700BFC16821F4D071C1608E
:10138000416921F001014161202084F83D0084F889
:101390003E00002084F83C000320BDE8F08100BF3F
:1013A00000275FE7FEE700002DE9F04383B040F639
:1013B0000004C4F201041646894607462046082167
:1013C00000229846FFF702F92A208DF801002046F6
:1013D00010210022FFF7FAF840F29805C2F200054A
:1013E0000DF10101284601224FF47A73FFF75AFDEF
:1013F000204610210122FFF7E9F8204608210122AA
:10140000FFF7E4F80237380A8DF802002046102171
:101410000022FFF7DBF80DF10201284601224FF40C
:101420007A73FFF73FFD204610210122FFF7CEF827
:101430002046102100228DF80370FFF7C7F80DF148
:101440000301284601224FF47A73FFF72BFD204653
:1014500010210122FFF7BAF80236300A8DF8040095
:10146000204610210022FFF7B1F801A928460122E9
:101470004FF47A73FFF716FD204610210122FFF783
:10148000A5F82046102100228DF80560FFF79EF890
:101490000DF10501284601224FF47A73FFF702FD92
:1014A000204610210122FFF791F820460821002252
:1014B000FFF78CF82B208DF8060020461021002223
:1014C000FFF784F80DF10601284601224FF47A73E4
:1014D000FFF7E8FC204610210122FFF777F82046AD
:1014E00008210122FFF772F809F10306300A8DF88E
:1014F0000700204610210022FFF768F80DF10701D0
:10150000284601224FF47A73FFF7CCFC20461021C5
:101510000122FFF75BF82046102100228DF80860B9
:10152000FFF754F802A9284601224FF47A73FFF717
:10153000B9FC204610210122FFF748F808F1030604
:10154000300A8DF80900204610210022FFF73EF8EE
:101550000DF10901284601224FF47A73FFF7A2FC2E
:10156000204610210122FFF731F8204610210022E9
:101570008DF80A60FFF72AF80DF10A0128460122CA
:101580004FF47A73FFF78EFC204610210122FFF7FB
:101590001DF8204608210022FFF718F82C208DF8AE
:1015A0000B00204610210022FFF710F80DF10B016F
:1015B000284601224FF47A73FFF774FC204610216D
:1015C0000122FFF703F8204608210122FEF7FEFF63
:1015D00003B0BDE8F08300002DE9F04381B00E4672
:1015E0008146501E591E9846154682B28BB2484617
:1015F0003146FFF7D9FE464538BFA9450DD2089CB4
:101600004F4600BF204600F037FF0137B8B2A8426E
:10161000F8D30136B0B24045F2D301B0BDE8F08353
:101620002DE9F04F81B040F60004C4F201042046D9
:10163000042100224FF0000AFEF7C8FF6420FEF7E5
:10164000A3FE204604210122FEF7C0FF6420FEF71E
:101650009BFE2046022101220227FEF7B7FF6420ED
:10166000FEF792FE204608210022FEF7AFFF112070
:101670008DF803002046102100224FF01009FEF7DC
:10168000A5FF40F29805C2F200050DF103012846BE
:1016900001224FF47A73FFF705FC20461021012246
:1016A000FEF794FF204608210122FEF78FFF7820E5
:1016B000FEF76AFE204608210022FEF787FFB120D0
:1016C0008DF80300204610210022FEF77FFF0DF168
:1016D0000301284601224FF47A73FFF7E3FB20460B
:1016E00010210122FEF772FF204608210122FEF799
:1016F0006DFF2046102100228DF80370FEF766FF73
:101700000DF10301284601224FF47A73FFF7CAFB5B
:10171000204610210122FEF759FF352620461021D0
:1017200000228DF80360FEF751FF0DF103012846FA
:1017300001224FF47A73FFF7B5FB204610210122F6
:10174000FEF744FF4FF036082046102100228DF8A6
:101750000380FEF73BFF0DF10301284601224FF401
:101760007A73FFF79FFB204610210122FEF72EFF20
:10177000204608210022FEF729FFB2208DF8030041
:10178000204610210022FEF721FF0DF1030128461B
:1017900001224FF47A73FFF785FB204610210122C6
:1017A000FEF714FF204608210122FEF70FFF204616
:1017B000102100228DF80370FEF708FF0DF10301E0
:1017C000284601224FF47A73FFF76CFB2046102164
:1017D0000122FEF7FBFE2046102100228DF8036057
:1017E000FEF7F4FE0DF10301284601224FF47A734F
:1017F000FFF758FB204610210122FEF7E7FE2046A6
:10180000102100228DF80380FEF7E0FE0DF10301A8
:10181000284601224FF47A73FFF744FB204610213B
:101820000122FEF7D3FE204608210022FEF7CEFE5D
:10183000B3208DF80300204610210022FEF7C6FEDB
:101840000DF10301284601224FF47A73FFF72AFBBA
:10185000204610210122FEF7B9FE20460821012270
:10186000FEF7B4FE2046102100228DF80370FEF72B
:10187000ADFE0DF10301284601224FF47A73FFF704
:1018800011FB204610210122FEF7A0FE2046102168
:1018900000228DF80360FEF799FE0DF10301284642
:1018A00001224FF47A73FFF7FDFA2046102101223E
:1018B000FEF78CFE2046102100228DF80380FEF7F3
:1018C00085FE0DF10301284601224FF47A73FFF7DC
:1018D000E9FA204610210122FEF778FE2046102169
:1018E00000228DF80370FEF771FE0DF1030128460A
:1018F00001224FF47A73FFF7D5FA20461021012216
:10190000FEF764FE2046102100228DF80360FEF7EA
:101910005DFE0DF10301284601224FF47A73FFF7B3
:10192000C1FA204610210122FEF750FE2046102168
:1019300000228DF80380FEF749FE0DF103012846D1
:1019400001224FF47A73FFF7ADFA204610210122ED
:10195000FEF73CFE204608210022FEF737FEB420A9
:101960008DF80300204610210022FEF72FFE0DF116
:101970000301284601224FF47A73FFF793FA2046B9
:1019800010210122FEF722FE204608210122FEF747
:101990001DFE03208DF80300204610210022FEF7D3
:1019A00015FE0DF10301284601224FF47A73FFF76B
:1019B00079FA204610210122FEF708FE2046082170
:1019C0000022FEF703FEC0208DF803002046102100
:1019D0000022FEF7FBFD0DF10301284601224FF422
:1019E0007A73FFF75FFA204610210122FEF7EEFD21
:1019F000204608210122FEF7E9FDA2208DF8030010
:101A0000204610210022FEF7E1FD0DF103012846DA
:101A100001224FF47A73FFF745FA20461021012284
:101A2000FEF7D4FD2046102100228DF80370FEF74A
:101A3000CDFD0DF10301284601224FF47A73FFF723
:101A400031FA204610210122FEF7C0FD84208DF8D6
:101A50000300204610210022FEF7B8FD0DF103011E
:101A6000284601224FF47A73FFF71CFA2046102112
:101A70000122FEF7ABFD204608210022FEF7A6FD5D
:101A8000C1208DF80300204610210022FEF79EFDA4
:101A90000DF10301284601224FF47A73FFF702FA91
:101AA000204610210122FEF791FD20460821012247
:101AB000FEF78CFDC5272046102100228DF803700B
:101AC000FEF784FD0DF10301284601224FF47A73DD
:101AD000FFF7E8F9204610210122FEF777FD2046A6
:101AE00008210022FEF772FDC2208DF80300204677
:101AF00010210022FEF76AFD0DF1030128460122A4
:101B00004FF47A73FFF7CEF9204610210122FEF739
:101B10005DFD204608210122FEF758FD0D208DF8BD
:101B20000300204610210022FEF750FD0DF10301B5
:101B3000284601224FF47A73FFF7B4F920461021AA
:101B40000122FEF743FD2046102100228DF803A05C
:101B50004FF0000AFEF73AFD0DF10301284601227D
:101B60004FF47A73FFF79EF9204610210122FEF709
:101B70002DFD204608210022FEF728FDC3208DF808
:101B80000300204610210022FEF720FD0DF1030185
:101B9000284601224FF47A73FFF784F9204610217A
:101BA0000122FEF713FD204608210122FEF70EFD5B
:101BB0008D262046102100228DF80360FEF706FDD9
:101BC0000DF10301284601224FF47A73FFF76AF9F9
:101BD000204610210122FEF7F9FC2A208DF803008F
:101BE000204610210022FEF7F1FC0DF103012846EA
:101BF00001224FF47A73FFF755F920461021012294
:101C0000FEF7E4FC204608210022FEF7DFFCC4209A
:101C10008DF80300204610210022FEF7D7FC0DF1BD
:101C20000301284601224FF47A73FFF73BF920465F
:101C300010210122FEF7CAFC204608210122FEF7EE
:101C4000C5FC2046102100228DF80360FEF7BEFC83
:101C50000DF10301284601224FF47A73FFF722F9B0
:101C6000204610210122FEF7B1FCEE208DF8030082
:101C7000204610210022FEF7A9FC0DF103012846A1
:101C800001224FF47A73FFF70DF92046102101224B
:101C9000FEF79CFC204608210022FEF797FC204618
:101CA000102100228DF80370FEF790FC0DF1030166
:101CB000284601224FF47A73FFF7F4F820461021EA
:101CC0000122FEF783FC204608210122FEF77EFC5C
:101CD0000A208DF80300204610210022FEF776FC32
:101CE0000DF10301284601224FF47A73FFF7DAF869
:101CF000204610210122FEF769FC2046082100221F
:101D0000FEF764FC2046102100228DF80380FEF7C8
:101D10005DFC0DF10301284601224FF47A73FFF7B1
:101D2000C1F8204610210122FEF750FC2046082170
:101D30000122FEF74BFCC8208DF80300204610213D
:101D40000022FEF743FC0DF10301284601224FF467
:101D50007A73FFF7A7F8204610210122FEF736FC20
:101D6000204608210022FEF731FCE0208DF8030018
:101D7000204610210022FEF729FC0DF10301284620
:101D800001224FF47A73FFF78DF8204610210122CB
:101D9000FEF71CFC204608210122FEF717FC12204A
:101DA0008DF80300204610210022FEF70FFC0DF1F4
:101DB0000301284601224FF47A73FFF773F8204697
:101DC00010210122FEF702FC1C208DF803002046A2
:101DD00010210022FEF7FAFB0DF103012846012233
:101DE0004FF47A73FFF75EF8204610210122FEF7C8
:101DF000EDFB2046102100228DF80390FEF7E6FB54
:101E00000DF10301284601224FF47A73FFF74AF8D7
:101E1000204610210122FEF7D9FB4FF0180820467A
:101E2000102100228DF80380FEF7D0FB0DF1030195
:101E3000284601224FF47A73FFF734F82046102128
:101E40000122FEF7C3FB33208DF80300204610214A
:101E50000022FEF7BBFB0DF10301284601224FF4DF
:101E60007A73FFF71FF8204610210122FEF7AEFB20
:101E70002C208DF80300204610210022FEF7A6FB3F
:101E80000DF10301284601224FF47A73FFF70AF897
:101E9000204610210122FEF799FB25208DF8030032
:101EA000204610210022FEF791FB0DF10301284688
:101EB00001224FF47A73FEF7F5FF2046102101222C
:101EC000FEF784FB28262046102100228DF80360AF
:101ED000FEF77CFB0DF10301284601224FF47A73D3
:101EE000FEF7E0FF204610210122FEF76FFB20469F
:101EF000102100228DF80360FEF768FB0DF103014D
:101F0000284601224FF47A73FEF7CCFF20461021B9
:101F10000122FEF75BFB27208DF8030020461021ED
:101F20000022FEF753FB0DF10301284601224FF476
:101F30007A73FEF7B7FF204610210122FEF746FB19
:101F40004FF02F092046102100228DF80390FEF754
:101F50003DFB0DF10301284601224FF47A73FEF791
:101F6000A1FF204610210122FEF730FB3C208DF816
:101F70000300204610210022FEF728FB0DF103018B
:101F8000284601224FF47A73FEF78CFF2046102179
:101F90000122FEF71BFB2046102100228DF803A032
:101FA000FEF714FB0DF10301284601224FF47A736A
:101FB000FEF778FF204610210122FEF707FB0327DA
:101FC0002046102100228DF80370FEF7FFFA0DF174
:101FD0000301284601224FF47A73FEF763FF20467F
:101FE00010210122FEF7F2FA2046102100228DF87E
:101FF00003704FF0030BFEF7E9FA0DF103012846D9
:1020000001224FF47A73FEF74DFF20461021012282
:10201000FEF7DCFA4FF0100A2046102100228DF85E
:1020200003A0FEF7D3FA0DF10301284601224FF475
:102030007A73FEF737FF204610210122FEF7C6FA19
:10204000204608210022FEF7C1FAE1208DF80300A6
:10205000204610210022FEF7B9FA0DF103012846AF
:1020600001224FF47A73FEF71DFF20461021012252
:10207000FEF7ACFA204608210122FEF7A7FA12204B
:102080008DF80300204610210022FEF79FFA0DF183
:102090000301284601224FF47A73FEF703FF20461E
:1020A00010210122FEF792FA1C208DF80300204631
:1020B00010210022FEF78AFA0DF1030128460122C1
:1020C0004FF47A73FEF7EEFE204610210122FEF750
:1020D0007DFA2046102100228DF803A01027FEF77C
:1020E00075FA0DF10301284601224FF47A73FEF7C9
:1020F000D9FE204610210122FEF768FA2046102161
:1021000000228DF80380FEF761FA0DF103012846E5
:1021100001224FF47A73FEF7C5FE204610210122FA
:10212000FEF754FA2D208DF80300204610210022DE
:10213000FEF74CFA0DF10301284601224FF47A73A1
:10214000FEF7B0FE204610210122FEF73FFA20469E
:10215000102100228DF80360FEF738FA0DF103011B
:10216000284601224FF47A73FEF79CFE2046102188
:102170000122FEF72BFA23208DF8030020461021C0
:102180000022FEF723FA0DF10301284601224FF445
:102190007A73FEF787FE204610210122FEF716FA19
:1021A0002046102100228DF80360FEF70FFA0DF192
:1021B0000301284601224FF47A73FEF773FE20468E
:1021C00010210122FEF702FA2046102100228DF88C
:1021D0000360FEF7FBF90DF10301284601224FF4DD
:1021E0007A73FEF75FFE204610210122FEF7EEF91A
:1021F00026208DF80300204610210022FEF7E6F984
:102200000DF10301284601224FF47A73FEF74AFECE
:10221000204610210122FEF7D9F920461021002284
:102220008DF80390FEF7D2F90DF103012846012243
:102230004FF47A73FEF736FE204610210122FEF796
:10224000C5F93B208DF80300204610210022FEF73F
:10225000BDF90DF10301284601224FF47A73FEF710
:1022600021FE204610210122FEF7B0F900208DF852
:102270000300204610210022FEF7A8F90DF103010A
:10228000284601224FF47A73FEF70CFE20461021F7
:102290000122FEF79BF92046102100228DF803B0A1
:1022A000FEF794F90DF10301284601224FF47A73E9
:1022B000FEF7F8FD204610210122FEF787F920469F
:1022C000102100228DF803B0FEF780F90DF1030113
:1022D000284601224FF47A73FEF7E4FD20461021D0
:1022E0000122FEF773F92046102100228DF80370B9
:1022F000FEF76CF90DF10301284601224FF47A73C1
:10230000FEF7D0FD204610210122FEF75FF920469E
:1023100008210022FEF75AF93A208DF803002046E2
:1023200010210022FEF752F90DF103012846012287
:102330004FF47A73FEF7B6FD204610210122FEF716
:1023400045F9204608210122FEF740F905208DF8C5
:102350000300204610210022FEF738F90DF1030199
:10236000284601224FF47A73FEF79CFD2046102187
:102370000122FEF72BF9204608210022FEF726F95C
:1023800029208DF80300204610210022FEF71EF9B7
:102390000DF10301284601224FF47A73FEF782FD06
:1023A000204610210122FEF711F9204608210122C2
:1023B000FEF70CF901B0BDE8F08F00002DE9F04FF9
:1023C00081B08020A0EB420192464910A0EB43006F
:1023D0001C46421001EB4A00431E02EB4400471E1C
:1023E00088B291B29AB2BBB2FEF7DEFF002C009425
:1023F00018BFBAF1000F3CD0DDF828B000254FF02F
:10240000000900BF00242F46BEB21BF816000BEBDC
:10241000460800F067F898F8010000F063F81BF830
:10242000160000F05FF898F8010000F05BF8013446
:10243000544507F10107E7D3002400BFAFB21BF8F2
:1024400017000BEB470600F04DF8707800F04AF8E3
:102450001BF8170000F046F8707800F043F80134DC
:10246000544505F10105E9D3009809F101098145B9
:10247000C8D301B0BDE8F08F70B582B040F600045B
:102480000546000AC4F201048DF80600204610211A
:102490000022FEF79BF840F29806C2F200060DF10A
:1024A0000601304601224FF47A73FEF7FBFC20460A
:1024B00010210122FEF78AF82046102100228DF813
:1024C0000750FEF783F80DF10701304601224FF463
:1024D0007A73FEF7E7FC204610210122FEF776F81A
:1024E00002B070BD10B582B040F60004C4F2010421
:1024F0008DF80700204610210022FEF767F840F211
:102500009800C2F200000DF1070101224FF47A7326
:10251000FEF7C8FC204610210122FEF757F802B052
:1025200010BD000080B582B041F21400C4F2020078
:102530000168002241F0010101600068002100F003
:102540000100019001980C20FEF7C8F80C20FEF75E
:10255000B1F80D2000210022FEF7C0F80D2002B0D6
:10256000BDE88040FEF7A6B870B584B041F218000F
:10257000C4F20200016840F6000441F0200101604D
:102580000168C4F2010401F0200100910099016882
:10259000012241F00401016000681E2100F00400E6
:1025A0000090009820461E250126FEF70FF8032014
:1025B000039069462046CDE900560296FDF7F8FEE5
:1025C00004B070BD80B540F2980043F20001C2F241
:1025D0000000C4F201014FF48272002380E80E0073
:1025E00000F114014FF4007C4FF0080E81E8085010
:1025F0000A21C0E90333C0E90833C0E90A31FEF714
:102600008BFB002808BF80BDBDE88040FDF7ACBD56
:1026100080B540F2F00043F60001C2F20000C4F2BF
:10262000010100234FF00C0C4FF4E13280E80E0062
:10263000C0E90333C0E905C3C361FEF733FD0028D9
:1026400008BF80BDBDE88040FDF78EBDFEE70000FD
:10265000FEE70000704700002DE9F04182B01E4601
:1026600090460D460446FDF7B7FF301A00EB080709
:10267000FDF7B2FF40F20C01C2F200010968C1F39C
:10268000CB317943019121688A682A40AA4227D137
:10269000064618F101001FD0FDF79EFF801BB842CF
:1026A00022D2019801990028A1F10101019121682C
:1026B000896808BF074601EA0500A842ECD00FE090
:1026C00088682840A8420BD188682840A84207D1D2
:1026D00088682840A84203D188682840A842EFD0E3
:1026E000002002B0BDE8F081D4E900014268B1F5F4
:1026F000827F22F0E00242600AD1A168B1F5004F6A
:1027000002D0B1F5806F03D1016821F04001016072
:10271000A16AB1F5005F07D1016821F400510160A1
:10272000016841F400510160012084F8510000204B
:1027300084F85000032002B0BDE8F081704700002B
:10274000FDF750BF70470000FEE7000010B582B0F3
:1027500004468DF8070040F2F000C2F200000DF1CF
:10276000070101220223FEF74BFD204602B010BDF7
:1027700090B0FDF745FF00240120CDE90B44CDE9E1
:10278000094406900A904FF4E0104FF4803102257E
:102790000F9006A8CDE90714CDE90D51FEF7E2F838
:1027A00020B1EFF3108072B6FEE700BF0F20CDE935
:1027B00001054FF48060CDE9040401A802210394CF
:1027C000FDF7C8FF20B1EFF3108072B6FEE700BF3F
:1027D000FFF7CAFEFFF7A6FEFFF7F4FEFFF718FFAC
:1027E000FEF71EFF4FF6FF77002000218022802396
:1027F0000097FEF7F1FE46F6860B47F64E0448F6C4
:10280000160649F2DE774AF2A6784BF26E7943F665
:102810002E1AC0F6000BC0F60004C0F60006C0F683
:102820000007C0F60008C0F60009C0F6000A00BFA5
:102830002CA000F05BF842F66615202030213F22E4
:102840002023C0F600050095FFF7B8FD44F6F60515
:10285000202030213F222023C0F600050095FFF7FD
:10286000ADFD45F6BE05202030213F222023C0F6D5
:1028700000050095FFF7A2FD202030213F222023F4
:10288000CDF800B0FFF79AFD202030213F22202311
:102890000094FFF793FD202030213F222023009653
:1028A000FFF78CFD202030213F2220230097FFF7E7
:1028B00085FD202030213F222023CDF80080FFF726
:1028C0007DFD202030213F222023CDF80090FFF70E
:1028D00075FD202030213F222023CDF800A0FFF7F6
:1028E0006DFDA5E77374617274000000014A02492E
:1028F00000F013B84D2700080000002002E008C8CF
:10290000121F08C1002AFAD170477047002001E069
:1029100001C1121F002AFBD170472DE9F041164674
:102920000F460446002503E03946B047641C6D1C81
:1029300020780028F8D12846BDE8F0810102000087
:10294000000000000000010203040607080900005F
:1029500000000102030402030405060708090A0B2C
:102960000C0D0E0F10101010003F0020011B000076
:102970000000000000000000000000000000000057
:102980000000000000000000000000000000000047
:102990000000000000000000000000000000000037
:1029A0000000000000000000000000000000000027
:1029B0000000000000000000000000000000000017
:1029C0000000000000000000000000000000000007
:1029D00000000000000000000000000000000000F7
:1029E00000000000000000000000000000000000E7
:1029F00000000000000000000000000000000000D7
:102A000000000000000000000000000000000000C6
:102A100000000000000000000000000000000000B6
:102A200000000000000000000000000000000000A6
:102A30000000000000000000000000000000000096
:102A40000000000000000000000000000000000086
:102A50000000000000000000000000000000000076
:102A60000000000000000000000000000000000066
:102A70000000000000000000000000000000000056
:102A80000000000000000000000000000000000046
:102A90000000000000000000000000000000000036
:102AA0000000000000000000000000000000000026
:102AB0000000000000000000000000000000000016
:102AC0000000000000000000000000000000000006
:102AD00000000000000000000000000000000000F6
:102AE00000000000000000000000000000000000E6
:102AF00000000000000000000000000000000000D6
:102B000000000000000000000000000000000000C5
:102B10000000000000000000841084108410841065
:102B200000000000000000000000000000000000A5
:102B30000000000000000000000000000000000095
:102B40000000000000000000000000000000000085
:102B50000000000000000000000000000000000075
:102B60000000000000000000000000000000000065
:102B70000000000000000000000000000000000055
:102B80000000000000000000000000000000000045
:102B9000000039E7C618841084108410FFFFC6189F
:102BA0000000000000000000000000000000000025
:102BB0000000000000000000000000000000000015
:102BC0000000000000000000000000000000000005
:102BD00000000000000000000000000000000000F5
:102BE00000000000000000000000000000000000E5
:102BF00000000000000000000000000000000000D5
:102C000000000000000000000000000000000000C4
:102C100084100000BDF7FFFF8410420839E78410DC
:102C2000000000000000000000000000000039E784
:102C30007BEF00000000000000000000000000002A
:102C40000000000000000000000000000000000084
:102C50000000000000000000000000000000000074
:102C60000000000000000000000000000000000064
:102C70000000000000000000000000000000000054
:102C800000000000000000000000000039E7841090
:102C90007BEFFFFFFFFFFFFFFFFF4208FFFF00008A
:102CA000000000000000000000000000BDF7FFFF72
:102CB0000000000000000000000000000000000014
:102CC0000000000000000000000000000000000004
:102CD00000000000000000000000000000000000F4
:102CE00000000000000000000000000000000000E4
:102CF00000000000000000000000000000000000D4
:102D0000000000000000000000007BEF84107BEF5B
:102D1000FFFFFFFFFFFFFFFF8410FFFF0000000029
:102D200000000000000000000000000000000000A3
:102D30000000000000000000000000000000000093
:102D40000000000000000000000000000000000083
:102D50000000000000000000000000000000000073
:102D60000000000000000000000000000000000063
:102D70000000000000000000000000000000000053
:102D8000000000000000000039E784107BEFFFFF27
:102D9000FFFFFFFFFFFFC618C6180000000000007D
:102DA0000000000000000000000000000000000023
:102DB0000000000000000000000000000000000013
:102DC0000000000000000000000000000000000003
:102DD00000000000000000000000000000000000F3
:102DE00000000000000000000000000000000000E3
:102DF00000000000000000000000000000000000D3
:102E00000000000000000000BDF70000FFFFFFFF12
:102E1000FFFFFFFFFFFFC618841000000000000046
:102E200000000000000000000000000000000000A2
:102E30000000000000000000000000000000000092
:102E40000000000000000000000000000000000082
:102E50000000000000000000000000000000000072
:102E60000000000000000000000000000000000062
:102E70000000000000000000000000000000000052
:102E80000000000000000000BDF784108410FFFF68
:102E90004208BDF7FFFFC618BDF74208000000005A
:102EA0000000000000000000000000000000000022
:102EB0000000000000000000000000000000000012
:102EC0000000000000000000000000000000000002
:102ED00000000000000000000000000000000000F2
:102EE00000000000000000000000000000000000E2
:102EF00000000000000000000000000000000000D2
:102F000000000000000000008410BDF7C618C618BD
:102F100042080000BDF74208BDF74208000000006B
:102F200000000000000000000000000000000000A1
:102F30000000000000000000000000000000000091
:102F40000000000000000000000000000000000081
:102F50000000000000000000000000000000000071
:102F60000000000000000000000000000000000061
:102F70000000000000000000000000000000000051
:102F80000000000000000000BDF7C61800000000AF
:102F900000000000BDF70000BDF74208000000007F
:102FA0000000000000000000000000000000000021
:102FB0000000000000000000000000000000000011
:102FC0000000000000000000000000000000000001
:102FD00000000000000000000000000000000000F1
:102FE00000000000000000000000000000000000E1
:102FF00000000000000000000000000000000000D1
:1030000000007BEF4208FFFFC61800000000000030
:10301000000039E7BDF70000841000000000000048
:103020000000000039E70000000000000000000080
:103030000000000000000000000000000000000090
:103040000000000000000000000000000000000080
:103050000000000000000000000000000000000070
:103060000000000000000000000000000000000060
:103070000000000000000000000000000000000050
:103080000000C618BDF77BEF4208000000000000FA
:1030900042087BEF4208BDF7C618000000000000A0
:1030A00000007BEF4208000000000000000000006C
:1030B0000000000000000000000000000000000010
:1030C0000000000000000000000000000000000000
:1030D00000000000000000000000000000000000F0
:1030E00000000000000000000000000000000000E0
:1030F00000000000000000000000000000000000D0
:10310000BDF77BEF4208BDF7000039E7C61842085B
:10311000BDF7FFFF4208BDF74208000000000000B5
:10312000000000000000000000000000000000009F
:10313000000000000000000000000000000000008F
:10314000000000000000000000000000000000007F
:10315000000000000000000000000000000000006F
:10316000000000000000000000000000000000005F
:1031700000000000000000000000000000007BEFE5
:10318000C618C61839E7C618000039E7BDF7420867
:103190007BEF84100000C618000000000000000053
:1031A000000000000000000000000000000000001F
:1031B000000000000000000000000000000000000F
:1031C00000000000000000000000000000000000FF
:1031D00000000000000000000000000000000000EF
:1031E00000000000000000000000000000000000DF
:1031F0000000000000000000000000000000C618F1
:103200007BEF4208BDF7FFFFC6180000000000007A
:10321000841000007BEF00000000000000000000B0
:10322000FFFF84100000000000000000000000000C
:10323000000000000000000000000000000000008E
:10324000000000000000000000000000000000007E
:10325000000000000000000000000000000000006E
:10326000000000000000000000000000000000005E
:10327000000000000000000000000000BDF7420850
:10328000FFFF42087BEF42087BEFFFFF000039E7BA
:10329000FFFFC61839E7000000000000000039E712
:1032A000000000000000000000000000000000001E
:1032B000000000000000000000000000000000000E
:1032C00000000000000000000000000000000000FE
:1032D00000000000000000000000000000000000EE
:1032E00000000000000000000000000000000000DE
:1032F0000000000000000000000039E7C61839E7B0
:10330000C6180000BDF7000039E78410000039E757
:10331000C6180000000000000000000000000000CF
:10332000000000000000000000000000000000009D
:10333000000000000000000000000000000000008D
:10334000000000000000000000000000000000007D
:10335000000000000000000000000000000000006D
:10336000000000000000000000000000000000005D
:10337000000000000000000000007BEF420839E779
:10338000C61839E7C6180000BDF74208000039E743
:103390004208000039E7841000000000000000002F
:1033A000000000000000000000000000000000001D
:1033B000000000000000000000000000000000000D
:1033C00000000000000000000000000000000000FD
:1033D00000000000000000000000000000000000ED
:1033E00000000000000000000000000000000000DD
:1033F00000000000BDF742080000BDF7000039E7FB
:103400008410BDF742080000C61800000000BDF798
:1034100042080000BDF74208000000000000000064
:10342000000000000000000000000000000000009C
:10343000000000000000000000000000000000008C
:10344000000000000000000000000000000000007C
:10345000000000000000000000000000000000006C
:10346000000000000000000000000000000000005C
:103470000000BDF74208000000000000000000004E
:103480000000BDF7420839E7841000007BEFC61842
:1034900000000000C618000000000000000000004E
:1034A000000000000000000000000000000000001C
:1034B000000000000000000000000000000000000C
:1034C00000000000000000000000000000000000FC
:1034D00000000000000000000000000000000000EC
:1034E00000000000000000000000000000000000DC
:1034F0000000000000000000000000000000841038
:103500000000C6180000FFFF8410C6188410841045
:1035100000007BEF841000000000000000000000AD
:10352000000000000000000000000000000000009B
:10353000000000000000000000000000000000008B
:10354000000000000000000000000000000000007B
:10355000000000000000000000000000000000006B
:10356000000000000000000000000000000000005B
:103570000000000000000000000000007BEF420897
:103580007BEFFFFF8410BDF700000000BDF742088D
:1035900000004208000000000000000000000000E1
:1035A000000000000000000000000000000000001B
:1035B000000000000000000000000000000000000B
:1035C00000000000000000000000000000000000FB
:1035D00000000000000000000000000000000000EB
:1035E00000000000000000000000000000000000DB
:1035F000000000000000000000000000BDF7000017
:10360000BDF7000039E7C61800000000FFFF00000A
:1036100000000000000000000000000000000000AA
:10362000000000000000000000000000000000009A
:10363000000000000000000000000000000000008A
:10364000000000000000000000000000000000007A
:10365000000000000000000000000000000000006A
:10366000000000000000000000000000000000005A
:103670000000000000000000000039E742080000E0
:10368000C61800007BEF4208000039E784100000F4
:10369000000000000000000000000000000000002A
:1036A000000000000000000000000000000000001A
:1036B000000000000000000000000000000000000A
:1036C00000000000000000000000000000000000FA
:1036D00000000000000000000000000000000000EA
:1036E00000000000000000000000000000000000DA
:1036F000000039E7000000000000000000007BEF40
:1037000042080000C61839E70000FFFF0000000073
:1037100000000000000000000000000000000000A9
:103720000000000000000000000000000000000099
:103730000000000000000000000000000000000089
:103740000000000000000000000000000000000079
:103750000000000000000000000000000000000069
:103760000000000000000000000000000000000059
:1037700039E7420800000000000000000000FFFFE1
:103780007BEF8410FFFF8410BDF7000000004208AB
:103790000000000000000000000000000000000029
:1037A0000000000000000000000000000000000019
:1037B0000000000000000000000000000000000009
:1037C00000000000000000000000000000000000F9
:1037D00000000000000000000000000000000000E9
:1037E00000000000000000000000000000000000D9
:1037F00000000000000000000000000039E7FFFFAB
:103800008410FFFFC618C61800000000000000006A
:1038100000000000000000000000000000000000A8
:103820000000000000000000000000000000000098
:103830000000000000000000000000000000000088
:103840000000000000000000000000000000000078
:103850000000000000000000000000000000000068
:103860000000000000000000000000000000000058
:103870000000000000000000000000008410841020
:1038800084100000000000000000000000000000A4
:103890000000000000000000000000000000000028
:1038A0000000000000000000000000000000000018
:1038B0000000000000000000000000000000000008
:1038C00000000000000000000000000000000000F8
:1038D00000000000000000000000000000000000E8
:1038E00000000000000000000000000000000000D8
:1038F0000000000000000000000000000000841034
:1039000000000000000000000000000000000000B7
:1039100000000000000000000000000000000000A7
:103920000000000000000000000000000000101077
:10393000003F0020011B000000000000000000000C
:103940000000000000000000000000000000000077
:103950000000000000000000000000000000000067
:103960000000000000000000000000000000000057
:103970000000000000000000000000000000000047
:103980000000000000000000000000000000000037
:103990000000000000000000000000000000000027
:1039A0000000000000000000000000000000000017
:1039B0000000000000000000000000000000000007
:1039C00000000000000000000000000000000000F7
:1039D00000000000000000000000000000000000E7
:1039E00000000000000000000000000000000000D7
:1039F00000000000000000000000000000000000C7
:103A000000000000000000000000000000000000B6
:103A100000000000000000000000000000000000A6
:103A20000000000000000000000000000000000096
:103A30000000000000000000000000000000000086
:103A40000000000000000000000000000000000076
:103A50000000000000000000000000000000000066
:103A60000000000000000000000000000000000056
:103A70000000000000000000000000000000000046
:103A80000000000000000000000000000000000036
:103A90000000000000000000000000000000000026
:103AA0000000000000000000000000000000000016
:103AB0000000000000000000000000000000000006
:103AC00000000000000000000000000000000000F6
:103AD00000000000000000000000000039E7BDF712
:103AE000C6188410841084100000420800000000F2
:103AF0007BEFFFFF0000000000000000000000005E
:103B000000000000000000000000000000000000B5
:103B100000000000000000000000000000000000A5
:103B20000000000000000000000000000000000095
:103B30000000000000000000000000000000000085
:103B40000000000000000000000000000000000075
:103B500000000000000000000000FFFFC618000089
:103B60000000000039E7C618FFFF00000000000059
:103B70000000000000000000000000000000000045
:103B80000000000000000000000000000000000035
:103B90000000000000000000000000000000000025
:103BA0000000000000000000000000000000000015
:103BB0000000000000000000000000000000000005
:103BC00000000000000000000000000000000000F5
:103BD0000000000000007BEFFFFFBDF7FFFF841037
:103BE000BDF742087BEF39E7C6180000000000006F
:103BF00000000000000000000000000000000000C5
:103C000000000000000000000000000000000000B4
:103C100000000000000000000000000000000000A4
:103C20000000000000000000000000000000000094
:103C30000000000000000000000000000000000084
:103C40000000000000000000000000000000000074
:103C500000000000FFFFFFFFFFFFC618000000008C
:103C6000BDF739E784107BEF420800000000000038
:103C70000000000000000000000000000000000044
:103C80000000000000000000000000000000000034
:103C90000000000000000000000000000000000024
:103CA0000000000000000000000000000000000014
:103CB0000000000000000000000000000000000004
:103CC00000000000000000000000000000000000F4
:103CD0000000FFFF8410FFFFFFFFC61800007BEF0E
:103CE0007BEF84100000FFFF0000000000000000D8
:103CF000000000004208000000000000000000007A
:103D000000000000000000000000000000000000B3
:103D100000000000000000000000000000000000A3
:103D20000000000000000000000000000000000093
:103D30000000000000000000000000000000000083
:103D40000000000000000000000000000000000073
:103D50007BEF4208BDF7FFFFFFFF0000BDF7BDF797
:103D60000000000039E7BDF700000000000000007F
:103D70000000FFFF00000000000000000000000045
:103D80000000000000000000000000000000000033
:103D90000000000000000000000000000000000023
:103DA0000000000000000000000000000000000013
:103DB0000000000000000000000000000000000003
:103DC00000000000000000000000000000000000F3
:103DD00084108410BDF7FFFFBDF78410FFFF420879
:103DE000000000007BEF420800000000000000001F
:103DF00000000000000000000000000000000000C3
:103E000000000000000000000000000000000000B2
:103E100000000000000000000000000000000000A2
:103E20000000000000000000000000000000000092
:103E30000000000000000000000000000000000082
:103E40000000000000000000000000000000000072
:103E50008410C618FFFF420800000000BDF74208AA
:103E60000000000042080000000000000000000008
:103E70000000000000000000000000000000000042
:103E80000000000000000000000000000000000032
:103E90000000000000000000000000000000000022
:103EA0000000000000000000000000000000000012
:103EB0000000000000000000000000000000000002
:103EC00000000000000000000000000000000000F2
:103ED00000007BEF8410000000000000BDF74208E6
:103EE00000000000000000000000000000000000D2
:103EF00000000000000000000000000000000000C2
:103F000000000000000000000000000000000000B1
:103F100000000000000000000000000000000000A1
:103F20000000000000000000000000000000000091
:103F30000000000000000000000000000000000081
:103F4000000000000000000000000000000039E751
:103F5000C618C61800007BEF42080000C618000013
:103F60000000000000000000000000000000000051
:103F70000000000000000000000000000000000041
:103F80000000000000000000000000000000000031
:103F90000000000000000000000000000000000021
:103FA0000000000000000000000000000000000011
:103FB0000000000000000000000000000000000001
:103FC000000000004208000000000000C6180000C9
:103FD0007BEF420800008410000039E7420800002F
:103FE00000000000000000000000000000000000D1
:103FF00039E7FFFF000000000000000000000000A3
:1040000000000000000000000000000000000000B0
:1040100000000000000000000000000000000000A0
:104020000000000000000000000000000000000090
:104030000000000000000000000000000000000080
:104040000000420800000000000084100000000092
:104050008410000039E7C6180000BDF7000000001A
:104060000000000000000000000000000000420806
:10407000FFFF000000000000000000000000000042
:104080000000000000000000000000000000000030
:104090000000000000000000000000000000000020
:1040A0000000000000000000000000000000000010
:1040B0000000000000000000000000000000000000
:1040C000000000000000000039E78410000039E71C
:1040D000C61800007BEF42087BEF4208000000009A
:1040E00000000000000000000000000000000000D0
:1040F00000000000000000000000000000000000C0
:1041000000000000000000000000000000000000AF
:10411000000000000000000000000000000000009F
:10412000000000000000000000000000000000008F
:10413000000000000000000000000000000000007F
:104140000000000000000000BDF7420800007BEF07
:1041500084108410BDF7BDF7C618000000000000F1
:10416000000000000000000000000000000000004F
:10417000000000000000000000000000000000003F
:10418000000000000000000000000000000000002F
:10419000000000000000000000000000000000001F
:1041A000000000000000000000000000000000000F
:1041B00000000000000000000000000000000000FF
:1041C00000000000000000008410420839E7FFFFF3
:1041D00000000000BDF7FFFF4208000000000000E3
:1041E00000000000000000000000000000000000CF
:1041F00000000000000000000000000000000000BF
:1042000000000000000000000000000000000000AE
:10421000000000000000000000000000000000009E
:10422000000000000000000000000000000000008E
:10423000000000000000000000000000000000007E
:104240000000000000000000841042080000C618B2
:1042500000007BEFFFFFFFFF0000000000000000F8
:10426000000000000000000000000000000000004E
:10427000000000000000000000000000000000003E
:10428000000000000000000000000000000000002E
:10429000000000000000000000000000000000001E
:1042A000000000000000000000000000000000000E
:1042B0000000000000000000000039E700000000DE
:1042C00000000000000000000000000039E7C618F0
:1042D000BDF74208FFFFC61800000000C618000026
:1042E00000000000000000000000000000000000CE
:1042F00000000000000000000000000000000000BE
:1043000000000000000000000000000000000000AD
:10431000000000000000000000000000000000009D
:10432000000000000000000000000000000000008D
:10433000000000000000000000000000000000007D
:104340000000000000000000000000007BEF4208B9
:104350000000FFFFFFFF420800007BEF4208000063
:10436000000000000000000000000000000000004D
:10437000000000000000000000000000000000003D
:10438000000000000000000000000000000000002D
:10439000000000000000000000000000000000001D
:1043A000000000000000000000000000000000000D
:1043B00000000000000000000000000000000000FD
:1043C000000000000000000000000000BDF7000039
:1043D0008410BDF7FFFF42080000841000000000B9
:1043E0000000000000000000420800000000000083
:1043F00000000000000000000000000000000000BD
:1044000000000000000000000000000000000000AC
:10441000000000000000000000000000000000009C
:10442000000000000000000000000000000000008C
:10443000000000000000000000000000000000007C
:104440000000000000000000000039E7C61800006E
:104450000000FFFFC618000039E7841000000000CC
:104460000000000000004208000000000000000002
:10447000000000000000000000000000000000003C
:10448000000000000000000000000000000000002C
:10449000000000000000000000000000000000001C
:1044A000000000000000000000000000000000000C
:1044B00000000000000000000000000042080000B2
:1044C000BDF7420800000000000039E78410C6185C
:1044D0008410FFFF42080000000000000000000000
:1044E00000000000000000000000000000000000CC
:1044F00000000000000000000000000000000000BC
:1045000000000000000000000000000000000000AB
:10451000000000000000000000000000000000009B
:10452000000000000000000000000000000000008B
:1045300039E700000000000000000000000000005B
:10454000C6180000000000000000BDF78410000045
:1045500039E7FFFF420800000000000000000000F3
:10456000000000000000000000000000000000004B
:10457000000000000000000000000000000000003B
:10458000000000000000000000000000000000002B
:10459000000000000000000000000000000000001B
:1045A0000000000000000000000000000000841077
:1045B000000000000000000000000000000039E7DB
:1045C000C6180000000000000000C618000000002F
:1045D000BDF7FFFF420800000000000000000000DF
:1045E00000000000000000000000000000000000CB
:1045F00000000000000000000000000000000000BB
:1046000000000000000000000000000000000000AA
:10461000000000000000000000000000000000009A
:10462000000000000000000000000000000000008A
:104630000000000000000000000000000000BDF7C6
:10464000420800000000000039E78410000000006C
:10465000BDF7FFFF000000000000000000000000A8
:10466000000000000000000000000000000000004A
:10467000000000000000000000000000000000003A
:10468000000000000000000000000000000000002A
:10469000000000000000000000000000000000001A
:1046A000000000000000000000000000000000000A
:1046B0000000000000000000000000000000C6181C
:1046C00000007BEF420800007BEF42080000000082
:1046D000BDF7841000000000000000000000000092
:1046E00000000000000000000000000000000000CA
:1046F00000000000000000000000000000000000BA
:1047000000000000000000000000000000000000A9
:104710000000000000000000000000000000000099
:104720000000000000000000000000000000000089
:1047300000000000000000000000420839E7C61831
:104740000000BDF700000000BDF700000000BDF74D
:10475000420800000000000000000000000000000F
:104760000000000000000000000000000000000049
:104770000000000000000000000000000000000039
:104780000000000000000000000000000000000029
:104790000000000000000000000000000000000019
:1047A0000000000000000000000000000000000009
:1047B000000000000000BDF7C61800000000000067
:1047C00039E78410000000008410841042080000C3
:1047D00000000000000000000000000000000000D9
:1047E00000000000000000000000000000000000C9
:1047F00000000000000000000000000000000000B9
:1048000000000000000000000000000000000000A8
:104810000000000000000000000000000000000098
:104820000000000000000000000000000000000088
:104830000000000039E7420800000000000000000E
:1048400039E7000000000000000000000000000048
:104850000000000000000000000000000000000058
:104860000000000000000000000000000000000048
:104870000000000000000000000000000000000038
:104880000000000000000000000000000000000028
:104890000000000000000000000000000000000018
:1048A0000000000000000000000000000000000008
:1048B00000000000000000000000000000000000F8
:1048C00000000000000000000000000000000000E8
:1048D00000000000000000000000000000000000D8
:1048E00000000000000000000000000000000000C8
:1048F0000000000000001010003F0020011B00001D
:1049000000000000000000000000000000000000A7
:104910000000000000000000000000000000000097
:104920000000000000000000000000000000000087
:104930000000000000000000000000000000000077
:104940000000000000000000000000000000000067
:104950000000000000000000000000000000000057
:104960000000000000000000000000000000000047
:104970000000000000000000000000000000000037
:104980000000000000000000000000000000000027
:104990000000000000000000000000000000000017
:1049A0000000000000000000000000000000000007
:1049B00000000000000000000000000000000000F7
:1049C00000000000000000000000000000000000E7
:1049D00000000000000000000000000000000000D7
:1049E00000000000000000000000000000000000C7
:1049F00000000000000000000000000000000000B7
:104A000000000000000000000000000000000000A6
:104A10000000000000000000000000000000000096
:104A20000000000000000000000000000000000086
:104A30000000000000000000000000000000000076
:104A40000000000000000000000000000000000066
:104A50000000000000000000000000000000000056
:104A60000000000000000000000000000000000046
:104A70000000000000000000000000000000000036
:104A80000000000000000000000000000000000026
:104A90000000000000000000000000000000000016
:104AA00000000000000039E78410841084104208E0
:104AB00000000000000000000000000000000000F6
:104AC00000000000000000000000000000000000E6
:104AD00000000000000000000000000000000000D6
:104AE00000000000000000000000000000000000C6
:104AF00000000000000000000000000000000000B6
:104B000000000000000000000000000000000000A5
:104B10000000000000000000000000000000000095
:104B20000000BDF7FFFF841084108410BDF7420819
:104B30000000000000000000000000000000000075
:104B40000000000000000000000000000000000065
:104B50000000000000000000000000000000000055
:104B60000000000000000000000000000000000045
:104B70000000000000000000000000000000000035
:104B80000000000000000000000000000000000025
:104B9000000000000000000000000000000039E7F5
:104BA000420839E78410841084100000BDF700002B
:104BB0000000000000000000BDF700000000000041
:104BC00000000000000000000000000000000000E5
:104BD00000000000000000000000000000000000D5
:104BE00000000000000000000000000000000000C5
:104BF00000000000000000000000000000000000B5
:104C000000000000000000000000000000000000A4
:104C1000000000000000000000000000BDF70000E0
:104C2000FFFFFFFFFFFFFFFFC6187BEF84100000B0
:104C300000000000000084100000000000000000E0
:104C4000000039E700000000000000000000000044
:104C50000000000000000000000000000000000054
:104C60000000000000000000000000000000000044
:104C70000000000000000000000000000000000034
:104C80000000000000000000000000000000000024
:104C900000000000000000000000FFFF0000FFFF18
:104CA000FFFFFFFFFFFFFFFF39E784100000000058
:104CB00000000000000000000000000000000000F4
:104CC00000000000000000000000000000000000E4
:104CD00000000000000000000000000000000000D4
:104CE00000000000000000000000000000000000C4
:104CF00000000000000000000000000000000000B4
:104D000000000000000000000000000000000000A3
:104D10000000000000000000BDF70000FFFFFFFFE3
:104D2000FFFFFFFFFFFFBDF7841000000000000041
:104D30000000000000000000000000000000000073
:104D40000000000000000000000000000000000063
:104D50000000000000000000000000000000000053
:104D60000000000000000000000000000000000043
:104D70000000000000000000000000000000000033
:104D80000000000000000000000000000000000023
:104D900000000000000039E784107BEFFFFFFFFFF9
:104DA000FFFFFFFFFFFF8410000000000000000075
:104DB00000000000000000000000000000000000F3
:104DC00000000000000000000000000000000000E3
:104DD00000000000000000000000000000000000D3
:104DE00000000000000000000000000000000000C3
:104DF00000000000000000000000000000000000B3
:104E000000000000000000000000000000000000A2
:104E100000000000841039E7C6188410BDF7C618DA
:104E200039E784108410BDF742080000000000003C
:104E30000000000000000000BDF742080000000074
:104E40000000000000000000000000000000000062
:104E50000000000000000000000000000000000052
:104E60000000000000000000000000000000000042
:104E70000000000000000000000000000000000032
:104E80000000000000000000000000000000000022
:104E9000000039E7C61800008410BDF784108410A4
:104EA000841084100000BDF74208000000000000DC
:104EB00000000000000039E70000000000000000D2
:104EC00000000000000000000000000000000000E2
:104ED00000000000000000000000000000000000D2
:104EE00000000000000000000000000000000000C2
:104EF00000000000000000000000000000000000B2
:104F000000000000000000000000000000000000A1
:104F10000000BDF742080000BDF742080000000095
:104F200039E742080000BDF7000000000000000063
:104F30000000000000000000000000000000000071
:104F40000000000000000000000000000000000061
:104F50000000000000000000000000000000000051
:104F60000000000000000000000000000000000041
:104F70000000000000000000000000000000000031
:104F80000000000000000000000000000000000021
:104F90000000C6180000841000000000000000009F
:104FA000BDF742080000C618000000000000000025
:104FB00000000000000000000000000000000000F1
:104FC00000000000000000000000000000000000E1
:104FD00000000000000000000000000000000000D1
:104FE00000000000000000000000000000000000C1
:104FF00000000000000000000000000000000000B1
:1050000000000000000000000000000000000000A0
:105010007BEF4208BDF70000000000000000000028
:10502000C61800007BEF84100000000000000000A4
:105030000000000000000000000000000000000070
:105040000000000000000000000000000000000060
:105050000000000000000000000000000000000050
:105060000000000000000000000000000000000040
:105070000000000000000000000000000000000030
:10508000000000000000000000000000000039E700
:1050900084107BEFC6180000000084100000FFFFA2
:1050A000BDF7C618BDF74208000000000000000070
:1050B00000000000000000007BEF4208000000003C
:1050C00000000000000000000000000000000000E0
:1050D00000000000000000000000000000000000D0
:1050E00000000000000000000000000000000000C0
:1050F00000000000000000000000000000000000B0
:105100000000000000000000841000000000C6182D
:105110000000FFFF4208C618420884108410BDF743
:1051200042080000C6180000000000000000000057
:10513000000000000000FFFF8410000000000000DD
:10514000000000000000000000000000000000005F
:10515000000000000000000000000000000000004F
:10516000000000000000000000000000000000003F
:10517000000000000000000000000000000000002F
:1051800000000000000000000000000039E70000FF
:105190007BEFFFFF8410BDF7420800000000841081
:1051A00000007BEF00007BEF4208000000000000E1
:1051B00000000000000000000000000000000000EF
:1051C00000000000000000000000000000000000DF
:1051D00000000000000000000000000000000000CF
:1051E00000000000000000000000000000000000BF
:1051F00000000000000000000000000000000000AF
:10520000000000000000000000000000000000009E
:10521000BDF7C618BDF70000FFFF0000BDF7841002
:10522000C61800000000C6180000000000000000C2
:10523000000000000000000000000000000000006E
:10524000000000000000000000000000000000005E
:10525000000000000000000000000000000000004E
:10526000000000000000000000000000000000003E
:10527000000000000000000000000000000000002E
:10528000000000000000000000000000000000001E
:1052900084100000C61839E7C618000039E78410EA
:1052A000000000007BEF8410000000000000000000
:1052B00000000000000000000000000000000000EE
:1052C00000000000000000000000000000000000DE
:1052D00000000000000000000000000000000000CE
:1052E00000000000000000000000000000000000BE
:1052F00000000000000000000000000000000000AE
:10530000000000000000000000000000000039E77D
:10531000C618BDF7420839E74208000039E7C61849
:1053200000000000BDF700000000000000000000C9
:10533000000000000000000000000000000000006D
:10534000000000000000000000000000000000005D
:10535000000000000000000000000000000000004D
:10536000000000000000000000000000000000003D
:10537000000000000000000000000000000000002D
:1053800000004208000000000000000000000000D3
:105390008410BDF74208BDF7420800007BEF4208C9
:1053A000000039E7C61800000000000000000000FF
:1053B00000000000000000000000000000000000ED
:1053C00000000000000000000000000000000000DD
:1053D00000000000000000000000000000000000CD
:1053E00000000000000000000000000000000000BD
:1053F0000000000039E7000000000000000000008D
:1054000042080000000000000000000000008410BE
:105410000000C6180000C61800000000FFFF0000D2
:1054200000007BEF420800000000000000000000C8
:10543000000000000000000000000000000000006C
:10544000000000000000000000000000000000005C
:10545000000000000000000000000000000000004C
:10546000000000000000000000000000000000003C
:10547000000039E70000000000000000000000000C
:10548000000000000000000000000000BDF742081E
:1054900039E784107BEFC618BDF78410C6180000EA
:1054A0000000841000000000000000000000000068
:1054B00000000000000000000000000000000000EC
:1054C00000000000000000000000000000000000DC
:1054D00000000000000000000000000000000000CC
:1054E00000000000000000000000000000000000BC
:1054F00000000000000000000000000000000000AC
:105500000000000000000000000000004208000051
:10551000BDF7BDF7BDF78410000039E78410000027
:10552000000000000000000000000000000000007B
:10553000000000000000000000000000000000006B
:10554000000000000000000000000000000000005B
:10555000000000000000000000000000000000004B
:10556000000000000000000000000000000000003B
:10557000000000000000000000000000000000002B
:10558000000000000000000000000000000000001B
:10559000FFFF0000841000000000BDF7420800007B
:1055A00000000000000000000000000000000000FB
:1055B00000000000000000000000000000000000EB
:1055C00000000000000000000000000000000000DB
:1055D00000000000000000000000000000000000CB
:1055E00000000000000000000000000000000000BB
:1055F00000000000000000000000000000000000AB
:10560000000000000000000000000000000039E77A
:10561000841039E7841000000000C6180000000064
:10562000000000000000000000000000000000007A
:10563000000000000000000000000000000000006A
:10564000000000000000000000000000000000005A
:10565000000000000000000000000000000000004A
:10566000000000000000000000000000000000003A
:10567000000000007BEF841000000000000000002C
:105680000000000000000000000000000000BDF766
:1056900000007BEF420800007BEF42080000C618C4
:1056A00000000000000000000000000000000000FA
:1056B00000000000000000000000000000000000EA
:1056C00000000000000000000000000000000000DA
:1056D00000000000000000000000000000000000CA
:1056E00000000000000000000000000000000000BA
:1056F00000000000000000000000000000000000AA
:105700000000000000000000000000000000C618BB
:105710008410BDF7841039E78410000039E70000D9
:105720000000000000000000000000000000000079
:105730000000000000000000000000000000000069
:105740000000000000000000000000000000000059
:105750000000000000000000000000000000000049
:105760000000000000000000000000000000000039
:105770000000000000000000000000000000000029
:1057800000000000000000000000000039E7FFFFFB
:105790007BEFC618BDF7000000000000000000000D
:1057A00000000000000000000000000000000000F9
:1057B00000000000000000000000000000000000E9
:1057C00000000000000000000000000000000000D9
:1057D00000000000000000000000000000000000C9
:1057E00000000000000000000000000000000000B9
:1057F00000000000000000000000000000000000A9
:1058000000000000000000000000000039E78410E4
:105810000000000000000000000000000000000088
:105820000000000000000000000000000000000078
:105830000000000000000000000000000000000068
:105840000000000000000000000000000000000058
:105850000000000000000000000000000000000048
:105860000000000000000000000000000000000038
:1058700000000000000000000000000039E7C6182A
:105880000000000000000000000000000000000018
:105890000000000000000000000000000000000008
:1058A00000000000000000000000000000000000F8
:1058B00000000000000000000000000000001010C8
:1058C000003F0020011B000000000000000000005D
:1058D00000000000000000000000000000000000C8
:1058E00000000000000000000000000000000000B8
:1058F00000000000000000000000000000000000A8
:105900000000000000000000000000000000000097
:105910000000000000000000000000000000000087
:105920000000000000000000000000000000000077
:105930000000000000000000000000000000000067
:105940000000000000000000000000000000000057
:105950000000000000000000000000000000000047
:105960000000000000000000000000000000000037
:105970000000000000000000000000000000000027
:105980000000000000000000000000000000000017
:105990000000000000000000000000000000000007
:1059A00000000000000000000000000000000000F7
:1059B00000000000000000000000000000000000E7
:1059C00000000000000000000000000000000000D7
:1059D00000000000000000000000000000000000C7
:1059E00000000000000000000000000000000000B7
:1059F00000000000000039E7C6184208000000005F
:105A00000000000000000000000000000000000096
:105A10000000000000000000000000000000000086
:105A20000000000000000000000000000000000076
:105A30000000000000000000000000000000000066
:105A40000000000000000000000000000000000056
:105A50000000000000000000000000000000000046
:105A600000000000000000000000000039E7BDF762
:105A700084108410FFFFFFFFBDF742080000000004
:105A80000000000000000000000000000000000016
:105A90000000000000000000000000000000000006
:105AA00000000000000000000000000000000000F6
:105AB00000000000000000000000000000000000E6
:105AC00000000000000000000000000000000000D6
:105AD00000000000000000000000000000000000C6
